{
  "address": "0xfB40dE073C77B6003028cab9ab8bB7F6c29d3fD3",
  "abi": [
    {
      "inputs": [
        {
          "internalType": "contract NameRegistry",
          "name": "_registry",
          "type": "address"
        },
        {
          "internalType": "contract NamehashDB",
          "name": "_namehashDB",
          "type": "address"
        }
      ],
      "stateMutability": "nonpayable",
      "type": "constructor"
    },
    {
      "inputs": [
        {
          "internalType": "bytes32",
          "name": "_node",
          "type": "bytes32"
        }
      ],
      "name": "canonicalRecordsOfNode",
      "outputs": [
        {
          "components": [
            {
              "internalType": "string",
              "name": "name",
              "type": "string"
            },
            {
              "internalType": "address",
              "name": "addr",
              "type": "address"
            },
            {
              "components": [
                {
                  "internalType": "string",
                  "name": "key",
                  "type": "string"
                },
                {
                  "internalType": "string",
                  "name": "value",
                  "type": "string"
                }
              ],
              "internalType": "struct KNSMultifetcher.TextRecord[]",
              "name": "textRecords",
              "type": "tuple[]"
            }
          ],
          "internalType": "struct KNSMultifetcher.DefaultRecords",
          "name": "canonicalRecords",
          "type": "tuple"
        }
      ],
      "stateMutability": "view",
      "type": "function"
    },
    {
      "inputs": [
        {
          "internalType": "uint256",
          "name": "",
          "type": "uint256"
        }
      ],
      "name": "defaultTextRecordsKeys",
      "outputs": [
        {
          "internalType": "string",
          "name": "",
          "type": "string"
        }
      ],
      "stateMutability": "view",
      "type": "function"
    },
    {
      "inputs": [
        {
          "internalType": "bytes32",
          "name": "_node",
          "type": "bytes32"
        }
      ],
      "name": "metadataOfNode",
      "outputs": [
        {
          "components": [
            {
              "internalType": "address",
              "name": "owner",
              "type": "address"
            },
            {
              "internalType": "address",
              "name": "resolver",
              "type": "address"
            },
            {
              "components": [
                {
                  "internalType": "string",
                  "name": "name",
                  "type": "string"
                },
                {
                  "internalType": "address",
                  "name": "addr",
                  "type": "address"
                },
                {
                  "components": [
                    {
                      "internalType": "string",
                      "name": "key",
                      "type": "string"
                    },
                    {
                      "internalType": "string",
                      "name": "value",
                      "type": "string"
                    }
                  ],
                  "internalType": "struct KNSMultifetcher.TextRecord[]",
                  "name": "textRecords",
                  "type": "tuple[]"
                }
              ],
              "internalType": "struct KNSMultifetcher.DefaultRecords",
              "name": "canonicalRecords",
              "type": "tuple"
            }
          ],
          "internalType": "struct KNSMultifetcher.NodeMetadata",
          "name": "metadata",
          "type": "tuple"
        }
      ],
      "stateMutability": "view",
      "type": "function"
    },
    {
      "inputs": [],
      "name": "namehashDB",
      "outputs": [
        {
          "internalType": "contract NamehashDB",
          "name": "",
          "type": "address"
        }
      ],
      "stateMutability": "view",
      "type": "function"
    },
    {
      "inputs": [
        {
          "internalType": "address",
          "name": "_owner",
          "type": "address"
        }
      ],
      "name": "namesOfOwner",
      "outputs": [
        {
          "internalType": "string[]",
          "name": "names",
          "type": "string[]"
        }
      ],
      "stateMutability": "view",
      "type": "function"
    },
    {
      "inputs": [
        {
          "internalType": "address",
          "name": "_owner",
          "type": "address"
        }
      ],
      "name": "nodesOfOwner",
      "outputs": [
        {
          "internalType": "bytes32[]",
          "name": "nodes",
          "type": "bytes32[]"
        }
      ],
      "stateMutability": "view",
      "type": "function"
    },
    {
      "inputs": [],
      "name": "registry",
      "outputs": [
        {
          "internalType": "contract NameRegistry",
          "name": "",
          "type": "address"
        }
      ],
      "stateMutability": "view",
      "type": "function"
    },
    {
      "inputs": [
        {
          "internalType": "bytes32",
          "name": "_node",
          "type": "bytes32"
        },
        {
          "internalType": "string[]",
          "name": "_keys",
          "type": "string[]"
        }
      ],
      "name": "textRecordsOfNode",
      "outputs": [
        {
          "components": [
            {
              "internalType": "string",
              "name": "key",
              "type": "string"
            },
            {
              "internalType": "string",
              "name": "value",
              "type": "string"
            }
          ],
          "internalType": "struct KNSMultifetcher.TextRecord[]",
          "name": "textRecords",
          "type": "tuple[]"
        }
      ],
      "stateMutability": "view",
      "type": "function"
    }
  ],
  "transactionHash": "0xfa7bbe199c935abf01615b5a087d92b3fbf673f3b8474ed88e1433dd25b07837",
  "args": [
    "0x18dE213Cc5F94f88e8A5566BB022e31947D8C264",
    "0xaFb317F90A1fFb8fA2B0E9F9c312460061F419D6"
  ],
  "numDeployments": 1,
  "solcInputHash": "391127a9a4317d748188e24c74830938",
  "bytecode": "0x600561022090815264195b585a5b60da1b6102405260c09081526003610260908152621d5c9b60ea1b6102805260e05260066102a08181526530bb30ba30b960d11b6102c05261010052600b6102e08181526a3232b9b1b934b83a34b7b760a91b6103005261012052610320918252656e6f7469636560d01b61034052610140919091526008610360908152676b6579776f72647360c01b61038052610160526103a08181526a31b7b6973a3bb4ba3a32b960a91b6103c052610180526103e08181526a18dbdb4b991a5cd8dbdc9960aa1b610400526101a052600c6104209081526b6f72672e74656c656772616d60a01b610440526101c052600a6104608181526931b7b69733b4ba343ab160b11b610480526101e0526104e06040526104a09081526918dbdb4b9c9959191a5d60b21b6104c05261020052620001479160009162000190565b503480156200015557600080fd5b50604051620018bc380380620018bc83398101604081905262000178916200030f565b6001600160a01b039182166080521660a0526200038a565b828054828255906000526020600020908101928215620001e2579160200282015b82811115620001e25782518051620001d1918491602090910190620001f4565b5091602001919060010190620001b1565b50620001f09291506200027f565b5090565b82805462000202906200034e565b90600052602060002090601f01602090048101928262000226576000855562000271565b82601f106200024157805160ff191683800117855562000271565b8280016001018555821562000271579182015b828111156200027157825182559160200191906001019062000254565b50620001f0929150620002a0565b80821115620001f0576000620002968282620002b7565b506001016200027f565b5b80821115620001f05760008155600101620002a1565b508054620002c5906200034e565b6000825580601f10620002d6575050565b601f016020900490600052602060002090810190620002f69190620002a0565b50565b6001600160a01b0381168114620002f657600080fd5b600080604083850312156200032357600080fd5b82516200033081620002f9565b60208401519092506200034381620002f9565b809150509250929050565b600181811c908216806200036357607f821691505b6020821081036200038457634e487b7160e01b600052602260045260246000fd5b50919050565b60805160a0516114d5620003e76000396000818160920152610a0c0152600081816101160152818161028201528181610320015281816103f40152818161066f0152818161093d01528181610ae00152610bc601526114d56000f3fe608060405234801561001057600080fd5b50600436106100885760003560e01c8063971dc0001161005b578063971dc00014610138578063b3b4c9bf14610158578063b5a3be8d14610178578063d217838c1461019857600080fd5b80632eb8221a1461008d57806344e57518146100d1578063724706ce146100f15780637b10399914610111575b600080fd5b6100b47f000000000000000000000000000000000000000000000000000000000000000081565b6040516001600160a01b0390911681526020015b60405180910390f35b6100e46100df366004610cc6565b6101b8565b6040516100c89190610d3b565b6101046100ff366004610cc6565b610264565b6040516100c89190610dfe565b6100b47f000000000000000000000000000000000000000000000000000000000000000081565b61014b610146366004610cc6565b6103bf565b6040516100c89190610e42565b61016b610166366004610e55565b61064b565b6040516100c89190610ed4565b61018b610186366004610f71565b6108a9565b6040516100c89190610f8e565b6101ab6101a6366004610f71565b610abb565b6040516100c89190610ff0565b600081815481106101c857600080fd5b9060005260206000200160009150905080546101e390611034565b80601f016020809104026020016040519081016040528092919081815260200182805461020f90611034565b801561025c5780601f106102315761010080835404028352916020019161025c565b820191906000526020600020905b81548152906001019060200180831161023f57829003601f168201915b505050505081565b61026c610c69565b6040516302571be360e01b8152600481018390527f00000000000000000000000000000000000000000000000000000000000000006001600160a01b0316906302571be390602401602060405180830381865afa1580156102d1573d6000803e3d6000fd5b505050506040513d601f19601f820116820180604052508101906102f5919061106e565b6001600160a01b031680825261030a57919050565b604051630178b8bf60e01b8152600481018390527f00000000000000000000000000000000000000000000000000000000000000006001600160a01b031690630178b8bf90602401602060405180830381865afa15801561036f573d6000803e3d6000fd5b505050506040513d601f19601f82011682018060405250810190610393919061106e565b6001600160a01b0316602082018190526103ac57919050565b6103b5826103bf565b6040820152919050565b60408051606080820183528082526000602083015291810191909152604051630178b8bf60e01b8152600481018390526000907f00000000000000000000000000000000000000000000000000000000000000006001600160a01b031690630178b8bf90602401602060405180830381865afa158015610443573d6000803e3d6000fd5b505050506040513d601f19601f82011682018060405250810190610467919061106e565b60405163691f343160e01b8152600481018590529091506001600160a01b0382169063691f343190602401600060405180830381865afa1580156104af573d6000803e3d6000fd5b505050506040513d6000823e601f3d908101601f191682016040526104d7919081019061115f565b8252604051631d9dabef60e11b8152600481018490526001600160a01b03821690633b3b57de90602401602060405180830381865afa15801561051e573d6000803e3d6000fd5b505050506040513d601f19601f82011682018060405250810190610542919061106e565b6001600160a01b031660208301526040516000908190309063b3b4c9bf60e01b906105739088908590602401611194565b60408051601f198184030181529181526020820180517bffffffffffffffffffffffffffffffffffffffffffffffffffffffff167fffffffff000000000000000000000000000000000000000000000000000000009094169390931790925290516105de919061128b565b600060405180830381855afa9150503d8060008114610619576040519150601f19603f3d011682016040523d82523d6000602084013e61061e565b606091505b50915091508115610643578080602001905181019061063d91906112a7565b60408501525b505050919050565b604051630178b8bf60e01b8152600481018490526060906000906001600160a01b037f00000000000000000000000000000000000000000000000000000000000000001690630178b8bf90602401602060405180830381865afa1580156106b6573d6000803e3d6000fd5b505050506040513d601f19601f820116820180604052508101906106da919061106e565b90506001600160a01b0381166106f057506108a2565b8267ffffffffffffffff8111156107095761070961108b565b60405190808252806020026020018201604052801561074e57816020015b60408051808201909152606080825260208201528152602001906001900390816107275790505b50915060005b8381101561089f5784848281811061076e5761076e6113c5565b905060200281019061078091906113db565b8080601f01602080910402602001604051908101604052809392919081815260200183838082843760009201919091525050855186925084915081106107c8576107c86113c5565b6020908102919091010151526001600160a01b0382166359d1d43c878787858181106107f6576107f66113c5565b905060200281019061080891906113db565b6040518463ffffffff1660e01b815260040161082693929190611429565b600060405180830381865afa158015610843573d6000803e3d6000fd5b505050506040513d6000823e601f3d908101601f1916820160405261086b919081019061115f565b83828151811061087d5761087d6113c5565b60200260200101516020018190525080806108979061145f565b915050610754565b50505b9392505050565b606060006108b683610abb565b9050805167ffffffffffffffff8111156108d2576108d261108b565b60405190808252806020026020018201604052801561090557816020015b60608152602001906001900390816108f05790505b50915060005b8151811015610ab457604051632f745c5960e01b81526001600160a01b038581166004830152602482018390526000917f000000000000000000000000000000000000000000000000000000000000000090911690632f745c5990604401602060405180830381865afa158015610986573d6000803e3d6000fd5b505050506040513d601f19601f820116820180604052508101906109aa9190611486565b9050806000036109f657604051806040016040528060068152602001655b726f6f745d60d01b8152508483815181106109e5576109e56113c5565b602002602001018190525050610aa2565b60405163f39ec1f760e01b8152600481018290527f00000000000000000000000000000000000000000000000000000000000000006001600160a01b03169063f39ec1f790602401600060405180830381865afa158015610a5b573d6000803e3d6000fd5b505050506040513d6000823e601f3d908101601f19168201604052610a83919081019061115f565b848381518110610a9557610a956113c5565b6020026020010181905250505b80610aac8161145f565b91505061090b565b5050919050565b6040516370a0823160e01b81526001600160a01b0382811660048301526060916000917f000000000000000000000000000000000000000000000000000000000000000016906370a0823190602401602060405180830381865afa158015610b27573d6000803e3d6000fd5b505050506040513d601f19601f82011682018060405250810190610b4b9190611486565b90508067ffffffffffffffff811115610b6657610b6661108b565b604051908082528060200260200182016040528015610b8f578160200160208202803683370190505b50915060005b81811015610ab457604051632f745c5960e01b81526001600160a01b038581166004830152602482018390526000917f000000000000000000000000000000000000000000000000000000000000000090911690632f745c5990604401602060405180830381865afa158015610c0f573d6000803e3d6000fd5b505050506040513d601f19601f82011682018060405250810190610c339190611486565b90508060001b848381518110610c4b57610c4b6113c5565b60209081029190910101525080610c618161145f565b915050610b95565b604051806060016040528060006001600160a01b0316815260200160006001600160a01b03168152602001610cc160405180606001604052806060815260200160006001600160a01b03168152602001606081525090565b905290565b600060208284031215610cd857600080fd5b5035919050565b60005b83811015610cfa578181015183820152602001610ce2565b83811115610d09576000848401525b50505050565b60008151808452610d27816020860160208601610cdf565b601f01601f19169290920160200192915050565b6020815260006108a26020830184610d0f565b6000815160608452610d636060850182610d0f565b905060206001600160a01b03818501511681860152604080850151868403828801528381518086528486019150848160051b870101858401935060005b82811015610df057878203601f1901845284518051878452610dc488850182610d0f565b91890151848303858b0152919050610ddc8183610d0f565b968901969589019593505050600101610da0565b509998505050505050505050565b6020815260006001600160a01b03808451166020840152806020850151166040840152506040830151606080840152610e3a6080840182610d4e565b949350505050565b6020815260006108a26020830184610d4e565b600080600060408486031215610e6a57600080fd5b83359250602084013567ffffffffffffffff80821115610e8957600080fd5b818601915086601f830112610e9d57600080fd5b813581811115610eac57600080fd5b8760208260051b8501011115610ec157600080fd5b6020830194508093505050509250925092565b60006020808301818452808551808352604092508286019150828160051b87010184880160005b83811015610f4b57888303603f1901855281518051878552610f1f88860182610d0f565b91890151858303868b0152919050610f378183610d0f565b968901969450505090860190600101610efb565b509098975050505050505050565b6001600160a01b0381168114610f6e57600080fd5b50565b600060208284031215610f8357600080fd5b81356108a281610f59565b6000602080830181845280855180835260408601915060408160051b870101925083870160005b82811015610fe357603f19888603018452610fd1858351610d0f565b94509285019290850190600101610fb5565b5092979650505050505050565b6020808252825182820181905260009190848201906040850190845b818110156110285783518352928401929184019160010161100c565b50909695505050505050565b600181811c9082168061104857607f821691505b60208210810361106857634e487b7160e01b600052602260045260246000fd5b50919050565b60006020828403121561108057600080fd5b81516108a281610f59565b634e487b7160e01b600052604160045260246000fd5b6040805190810167ffffffffffffffff811182821017156110c4576110c461108b565b60405290565b604051601f8201601f1916810167ffffffffffffffff811182821017156110f3576110f361108b565b604052919050565b600082601f83011261110c57600080fd5b815167ffffffffffffffff8111156111265761112661108b565b611139601f8201601f19166020016110ca565b81815284602083860101111561114e57600080fd5b610e3a826020830160208701610cdf565b60006020828403121561117157600080fd5b815167ffffffffffffffff81111561118857600080fd5b610e3a848285016110fb565b600060408201848352602060408185015281855480845260608601915060608160051b87010193506000878152838120815b8381101561127c57888703605f1901855281548390600181811c90808316806111f057607f831692505b8a8310810361120d57634e487b7160e01b88526022600452602488fd5b828c5260208c01818015611228576001811461123957611263565b60ff19861682528c82019650611263565b6000898152602090208a5b8681101561125d57815484820152908501908e01611244565b83019750505b50949b50509789019794909401935050506001016111c6565b50949998505050505050505050565b6000825161129d818460208701610cdf565b9190910192915050565b600060208083850312156112ba57600080fd5b825167ffffffffffffffff808211156112d257600080fd5b818501915085601f8301126112e657600080fd5b8151818111156112f8576112f861108b565b8060051b6113078582016110ca565b918252838101850191858101908984111561132157600080fd5b86860192505b838310156113b85782518581111561133f5760008081fd5b86016040818c03601f19018113156113575760008081fd5b61135f6110a1565b89830151888111156113715760008081fd5b61137f8e8c838701016110fb565b8252509082015190878211156113955760008081fd5b6113a38d8b848601016110fb565b818b0152845250509186019190860190611327565b9998505050505050505050565b634e487b7160e01b600052603260045260246000fd5b6000808335601e198436030181126113f257600080fd5b83018035915067ffffffffffffffff82111561140d57600080fd5b60200191503681900382131561142257600080fd5b9250929050565b83815260406020820152816040820152818360608301376000818301606090810191909152601f909201601f1916010192915050565b60006001820161147f57634e487b7160e01b600052601160045260246000fd5b5060010190565b60006020828403121561149857600080fd5b505191905056fea2646970667358221220854aa121a76fd751a8e5daf5865464e792247e36424571d6713a152a568a0a9a64736f6c634300080d0033",
  "devdoc": {
    "author": "Gilgames <gilgames@kuname.domains>",
    "kind": "dev",
    "methods": {},
    "title": "KNS Multifetcher",
    "version": 1
  },
  "userdoc": {
    "kind": "user",
    "methods": {},
    "notice": "This contract implements utility functions used to fetch multiple         records, names, and aggregate information in a single RPC call.",
    "version": 1
  },
  "storageLayout": {
    "storage": [
      {
        "astId": 7180,
        "contract": "src/KNSMultifetcher.sol:KNSMultifetcher",
        "label": "defaultTextRecordsKeys",
        "offset": 0,
        "slot": "0",
        "type": "t_array(t_string_storage)dyn_storage"
      }
    ],
    "types": {
      "t_array(t_string_storage)dyn_storage": {
        "base": "t_string_storage",
        "encoding": "dynamic_array",
        "label": "string[]",
        "numberOfBytes": "32"
      },
      "t_string_storage": {
        "encoding": "bytes",
        "label": "string",
        "numberOfBytes": "32"
      }
    }
  }
}