{
  "address": "0x5a881D80091E8815F9a0884E5587CAAE4928D00b",
  "abi": [
    {
      "inputs": [
        {
          "internalType": "contract NameRegistrar",
          "name": "_registrar",
          "type": "address"
        },
        {
          "internalType": "contract IReverseRegistrar",
          "name": "_reverseRegistrar",
          "type": "address"
        }
      ],
      "stateMutability": "nonpayable",
      "type": "constructor"
    },
    {
      "inputs": [],
      "name": "ControllerNotLive",
      "type": "error"
    },
    {
      "inputs": [],
      "name": "NotEnoughKCSProvided",
      "type": "error"
    },
    {
      "inputs": [],
      "name": "UnavailableName",
      "type": "error"
    },
    {
      "anonymous": false,
      "inputs": [
        {
          "indexed": false,
          "internalType": "string",
          "name": "name",
          "type": "string"
        },
        {
          "indexed": true,
          "internalType": "bytes32",
          "name": "label",
          "type": "bytes32"
        },
        {
          "indexed": true,
          "internalType": "address",
          "name": "owner",
          "type": "address"
        }
      ],
      "name": "NameRegistered",
      "type": "event"
    },
    {
      "anonymous": false,
      "inputs": [
        {
          "indexed": true,
          "internalType": "address",
          "name": "previousOwner",
          "type": "address"
        },
        {
          "indexed": true,
          "internalType": "address",
          "name": "newOwner",
          "type": "address"
        }
      ],
      "name": "OwnershipTransferred",
      "type": "event"
    },
    {
      "inputs": [
        {
          "internalType": "string",
          "name": "name",
          "type": "string"
        }
      ],
      "name": "available",
      "outputs": [
        {
          "internalType": "bool",
          "name": "",
          "type": "bool"
        }
      ],
      "stateMutability": "view",
      "type": "function"
    },
    {
      "inputs": [],
      "name": "owner",
      "outputs": [
        {
          "internalType": "address",
          "name": "",
          "type": "address"
        }
      ],
      "stateMutability": "view",
      "type": "function"
    },
    {
      "inputs": [],
      "name": "priceOracle",
      "outputs": [
        {
          "internalType": "contract KNSPriceOracle",
          "name": "",
          "type": "address"
        }
      ],
      "stateMutability": "view",
      "type": "function"
    },
    {
      "inputs": [
        {
          "internalType": "string",
          "name": "name",
          "type": "string"
        },
        {
          "internalType": "address",
          "name": "_owner",
          "type": "address"
        },
        {
          "internalType": "address",
          "name": "resolver",
          "type": "address"
        },
        {
          "internalType": "address",
          "name": "addr",
          "type": "address"
        },
        {
          "internalType": "bool",
          "name": "reverseRecord",
          "type": "bool"
        }
      ],
      "name": "register",
      "outputs": [],
      "stateMutability": "payable",
      "type": "function"
    },
    {
      "inputs": [],
      "name": "registrar",
      "outputs": [
        {
          "internalType": "contract NameRegistrar",
          "name": "",
          "type": "address"
        }
      ],
      "stateMutability": "view",
      "type": "function"
    },
    {
      "inputs": [],
      "name": "renounceOwnership",
      "outputs": [],
      "stateMutability": "nonpayable",
      "type": "function"
    },
    {
      "inputs": [],
      "name": "reverseRegistrar",
      "outputs": [
        {
          "internalType": "contract IReverseRegistrar",
          "name": "",
          "type": "address"
        }
      ],
      "stateMutability": "view",
      "type": "function"
    },
    {
      "inputs": [
        {
          "internalType": "address",
          "name": "_priceOracle",
          "type": "address"
        }
      ],
      "name": "setPriceOracle",
      "outputs": [],
      "stateMutability": "nonpayable",
      "type": "function"
    },
    {
      "inputs": [
        {
          "internalType": "address",
          "name": "newOwner",
          "type": "address"
        }
      ],
      "name": "transferOwnership",
      "outputs": [],
      "stateMutability": "nonpayable",
      "type": "function"
    },
    {
      "inputs": [
        {
          "internalType": "string",
          "name": "name",
          "type": "string"
        }
      ],
      "name": "valid",
      "outputs": [
        {
          "internalType": "bool",
          "name": "",
          "type": "bool"
        }
      ],
      "stateMutability": "pure",
      "type": "function"
    },
    {
      "inputs": [],
      "name": "withdraw",
      "outputs": [],
      "stateMutability": "nonpayable",
      "type": "function"
    }
  ],
  "transactionHash": "0x01f62014ecbffc299a5434d74422be38c35acb1e305bd1f3fe62cc5e921638cb",
  "args": [
    "0xBBc256D5672131B2Ad2A5c14664e492bf94d1D7b",
    "0xBd6F7d32a6CD0764D546e6A28D3Ba38645284F5F"
  ],
  "numDeployments": 1,
  "solcInputHash": "391127a9a4317d748188e24c74830938",
  "bytecode": "0x60c060405234801561001057600080fd5b5060405161131338038061131383398101604081905261002f916100b7565b6100383361004f565b6001600160a01b039182166080521660a0526100f1565b600080546001600160a01b038381166001600160a01b0319831681178455604051919092169283917f8be0079c531659141344cd1fd0a4f28419497f9722a3daafe3b4186f6b6457e09190a35050565b6001600160a01b03811681146100b457600080fd5b50565b600080604083850312156100ca57600080fd5b82516100d58161009f565b60208401519092506100e68161009f565b809150509250929050565b60805160a0516111cc610147600039600081816101900152610bd1015260008181610110015281816104ef015281816105710152818161061f01528181610788015281816108ae0152610a3201526111cc6000f3fe6080604052600436106100bc5760003560e01c806380869853116100745780639791c0971161004e5780639791c097146101e3578063aeb8ce9b14610213578063f2fde38b1461023357600080fd5b8063808698531461017e578063884d7675146101b25780638da5cb5b146101c557600080fd5b80633ccfd60b116100a55780633ccfd60b14610132578063530e784f14610149578063715018a61461016957600080fd5b80632630c12f146100c15780632b20e397146100fe575b600080fd5b3480156100cd57600080fd5b506001546100e1906001600160a01b031681565b6040516001600160a01b0390911681526020015b60405180910390f35b34801561010a57600080fd5b506100e17f000000000000000000000000000000000000000000000000000000000000000081565b34801561013e57600080fd5b50610147610253565b005b34801561015557600080fd5b50610147610164366004610dee565b610290565b34801561017557600080fd5b5061014761031e565b34801561018a57600080fd5b506100e17f000000000000000000000000000000000000000000000000000000000000000081565b6101476101c0366004610e2b565b610384565b3480156101d157600080fd5b506000546001600160a01b03166100e1565b3480156101ef57600080fd5b506102036101fe366004610ef5565b6109f5565b60405190151581526020016100f5565b34801561021f57600080fd5b5061020361022e366004610ef5565b610a09565b34801561023f57600080fd5b5061014761024e366004610dee565b610aae565b600080546040516001600160a01b03909116914780156108fc02929091818181858888f1935050505015801561028d573d6000803e3d6000fd5b50565b6000546001600160a01b031633146102ef5760405162461bcd60e51b815260206004820181905260248201527f4f776e61626c653a2063616c6c6572206973206e6f7420746865206f776e657260448201526064015b60405180910390fd5b6001805473ffffffffffffffffffffffffffffffffffffffff19166001600160a01b0392909216919091179055565b6000546001600160a01b031633146103785760405162461bcd60e51b815260206004820181905260248201527f4f776e61626c653a2063616c6c6572206973206e6f7420746865206f776e657260448201526064016102e6565b6103826000610b72565b565b6001546001600160a01b03166103ad576040516306e95cc560e21b815260040160405180910390fd5b6103ec86868080601f016020809104026020016040519081016040528093929190818152602001838380828437600092019190915250610a0992505050565b61040957604051630c01d0b160e21b815260040160405180910390fd5b600154604051639ebb009b60e01b81526000916001600160a01b031690639ebb009b9061043e908a908a903390600401610fcf565b602060405180830381865afa15801561045b573d6000803e3d6000fd5b505050506040513d601f19601f8201168201806040525081019061047f9190610ffc565b9050336104946000546001600160a01b031690565b6001600160a01b0316036104a6575060005b803410156104c75760405163281a6d2760e11b815260040160405180910390fd5b60006001600160a01b0385161561087857604051631e59c52960e01b81526001600160a01b037f00000000000000000000000000000000000000000000000000000000000000001690631e59c52990610528908b908b903090600401610fcf565b6020604051808303816000875af1158015610547573d6000803e3d6000fd5b505050506040513d601f19601f8201168201806040525081019061056b9190610ffc565b905060007f00000000000000000000000000000000000000000000000000000000000000006001600160a01b031663114902c56040518163ffffffff1660e01b8152600401602060405180830381865afa1580156105cd573d6000803e3d6000fd5b505050506040513d601f19601f820116820180604052508101906105f19190610ffc565b60408051602081019290925281018390526060016040516020818303038152906040528051906020012090507f00000000000000000000000000000000000000000000000000000000000000006001600160a01b0316637b1039996040518163ffffffff1660e01b8152600401602060405180830381865afa15801561067b573d6000803e3d6000fd5b505050506040513d601f19601f8201168201806040525081019061069f9190611015565b604051630c4b7b8560e11b8152600481018390526001600160a01b0388811660248301529190911690631896f70a90604401600060405180830381600087803b1580156106eb57600080fd5b505af11580156106ff573d6000803e3d6000fd5b505050506001600160a01b038516156107745760405162d5fa2b60e81b8152600481018290526001600160a01b03868116602483015287169063d5fa2b0090604401600060405180830381600087803b15801561075b57600080fd5b505af115801561076f573d6000803e3d6000fd5b505050505b83156107865761078689898833610bcf565b7f00000000000000000000000000000000000000000000000000000000000000006001600160a01b0316637b1039996040518163ffffffff1660e01b8152600401602060405180830381865afa1580156107e4573d6000803e3d6000fd5b505050506040513d601f19601f820116820180604052508101906108089190611015565b6040516323b872dd60e01b81523060048201526001600160a01b0389811660248301526044820184905291909116906323b872dd90606401600060405180830381600087803b15801561085a57600080fd5b505af115801561086e573d6000803e3d6000fd5b505050505061092d565b6001600160a01b0384161561088c57600080fd5b821561089757600080fd5b604051631e59c52960e01b81526001600160a01b037f00000000000000000000000000000000000000000000000000000000000000001690631e59c529906108e7908b908b908b90600401610fcf565b6020604051808303816000875af1158015610906573d6000803e3d6000fd5b505050506040513d601f19601f8201168201806040525081019061092a9190610ffc565b90505b856001600160a01b0316817f949d23b49bd03f2681389f579003c80eeb63fea84d0c36204dab1be0937852168a8a604051610969929190611032565b60405180910390a3600080546040516001600160a01b039091169184156108fc02918591818181858888f193505050501580156109aa573d6000803e3d6000fd5b50813411156109eb57336108fc6109c18434611064565b6040518115909202916000818181858888f193505050501580156109e9573d6000803e3d6000fd5b505b5050505050505050565b600080610a0183610c8c565b101592915050565b6000610a14826109f5565b8015610aa8575060405163aeb8ce9b60e01b81526001600160a01b037f0000000000000000000000000000000000000000000000000000000000000000169063aeb8ce9b90610a679085906004016110c8565b602060405180830381865afa158015610a84573d6000803e3d6000fd5b505050506040513d601f19601f82011682018060405250810190610aa891906110db565b92915050565b6000546001600160a01b03163314610b085760405162461bcd60e51b815260206004820181905260248201527f4f776e61626c653a2063616c6c6572206973206e6f7420746865206f776e657260448201526064016102e6565b6001600160a01b038116610b6d5760405162461bcd60e51b815260206004820152602660248201527f4f776e61626c653a206e6577206f776e657220697320746865207a65726f206160448201526564647265737360d01b60648201526084016102e6565b61028d815b600080546001600160a01b0383811673ffffffffffffffffffffffffffffffffffffffff19831681178455604051919092169283917f8be0079c531659141344cd1fd0a4f28419497f9722a3daafe3b4186f6b6457e09190a35050565b7f00000000000000000000000000000000000000000000000000000000000000006001600160a01b0316637a806d6b3383858888604051602001610c149291906110f8565b6040516020818303038152906040526040518563ffffffff1660e01b8152600401610c429493929190611111565b6020604051808303816000875af1158015610c61573d6000803e3d6000fd5b505050506040513d601f19601f82011682018060405250810190610c859190610ffc565b5050505050565b600080825b8051821015610dc2576007818381518110610cae57610cae61114f565b01602001516001600160f81b031990811690911c16600003610cdc57610cd5600183611165565b9150610db0565b8051600360f91b90600590839085908110610cf957610cf961114f565b01602001516001600160f81b031990811690911c1603610d1e57610cd5600283611165565b8051600760f91b90600490839085908110610d3b57610d3b61114f565b01602001516001600160f81b031990811690911c1603610d6057610cd5600383611165565b8051600f60f91b90600390839085908110610d7d57610d7d61114f565b01602001516001600160f81b031990811690911c1603610da257610cd5600483611165565b610dad600183611165565b91505b82610dba8161117d565b935050610c91565b5050919050565b6001600160a01b038116811461028d57600080fd5b8035610de981610dc9565b919050565b600060208284031215610e0057600080fd5b8135610e0b81610dc9565b9392505050565b801515811461028d57600080fd5b8035610de981610e12565b60008060008060008060a08789031215610e4457600080fd5b863567ffffffffffffffff80821115610e5c57600080fd5b818901915089601f830112610e7057600080fd5b813581811115610e7f57600080fd5b8a6020828501011115610e9157600080fd5b60209283019850965050870135610ea781610dc9565b93506040870135610eb781610dc9565b9250610ec560608801610dde565b9150610ed360808801610e20565b90509295509295509295565b634e487b7160e01b600052604160045260246000fd5b600060208284031215610f0757600080fd5b813567ffffffffffffffff80821115610f1f57600080fd5b818401915084601f830112610f3357600080fd5b813581811115610f4557610f45610edf565b604051601f8201601f19908116603f01168101908382118183101715610f6d57610f6d610edf565b81604052828152876020848701011115610f8657600080fd5b826020860160208301376000928101602001929092525095945050505050565b81835281816020850137506000828201602090810191909152601f909101601f19169091010190565b604081526000610fe3604083018587610fa6565b90506001600160a01b0383166020830152949350505050565b60006020828403121561100e57600080fd5b5051919050565b60006020828403121561102757600080fd5b8151610e0b81610dc9565b602081526000611046602083018486610fa6565b949350505050565b634e487b7160e01b600052601160045260246000fd5b6000828210156110765761107661104e565b500390565b6000815180845260005b818110156110a157602081850181015186830182015201611085565b818111156110b3576000602083870101525b50601f01601f19169290920160200192915050565b602081526000610e0b602083018461107b565b6000602082840312156110ed57600080fd5b8151610e0b81610e12565b81838237632e6b636360e01b9101908152600401919050565b60006001600160a01b038087168352808616602084015280851660408401525060806060830152611145608083018461107b565b9695505050505050565b634e487b7160e01b600052603260045260246000fd5b600082198211156111785761117861104e565b500190565b60006001820161118f5761118f61104e565b506001019056fea2646970667358221220ce176afca4d23d4c9303495bc168e82a11b1ef624d4770debb039f24a343785264736f6c634300080d0033",
  "devdoc": {
    "kind": "dev",
    "methods": {
      "owner()": {
        "details": "Returns the address of the current owner."
      },
      "renounceOwnership()": {
        "details": "Leaves the contract without owner. It will not be possible to call `onlyOwner` functions anymore. Can only be called by the current owner. NOTE: Renouncing ownership will leave the contract without an owner, thereby removing any functionality that is only available to the owner."
      },
      "transferOwnership(address)": {
        "details": "Transfers ownership of the contract to a new account (`newOwner`). Can only be called by the current owner."
      }
    },
    "version": 1
  },
  "userdoc": {
    "kind": "user",
    "methods": {},
    "version": 1
  },
  "storageLayout": {
    "storage": [
      {
        "astId": 4295,
        "contract": "src/KNSRegistrarController.sol:KNSRegistrarController",
        "label": "_owner",
        "offset": 0,
        "slot": "0",
        "type": "t_address"
      },
      {
        "astId": 8493,
        "contract": "src/KNSRegistrarController.sol:KNSRegistrarController",
        "label": "priceOracle",
        "offset": 0,
        "slot": "1",
        "type": "t_contract(KNSPriceOracle)8040"
      }
    ],
    "types": {
      "t_address": {
        "encoding": "inplace",
        "label": "address",
        "numberOfBytes": "20"
      },
      "t_contract(KNSPriceOracle)8040": {
        "encoding": "inplace",
        "label": "contract KNSPriceOracle",
        "numberOfBytes": "20"
      }
    }
  }
}