{
  "address": "0x3Eeba7e7904184479586867F2E3642D0b5d4Db3e",
  "abi": [
    {
      "inputs": [
        {
          "internalType": "contract NamehashDB",
          "name": "_namehashDB",
          "type": "address"
        }
      ],
      "stateMutability": "nonpayable",
      "type": "constructor"
    },
    {
      "inputs": [],
      "name": "ADDR_LABEL",
      "outputs": [
        {
          "internalType": "bytes32",
          "name": "",
          "type": "bytes32"
        }
      ],
      "stateMutability": "view",
      "type": "function"
    },
    {
      "inputs": [],
      "name": "RESOLVER_LABEL",
      "outputs": [
        {
          "internalType": "bytes32",
          "name": "",
          "type": "bytes32"
        }
      ],
      "stateMutability": "view",
      "type": "function"
    },
    {
      "inputs": [],
      "name": "REVERSE_REGISTRAR_LABEL",
      "outputs": [
        {
          "internalType": "bytes32",
          "name": "",
          "type": "bytes32"
        }
      ],
      "stateMutability": "view",
      "type": "function"
    },
    {
      "inputs": [],
      "name": "TLD_LABEL",
      "outputs": [
        {
          "internalType": "bytes32",
          "name": "",
          "type": "bytes32"
        }
      ],
      "stateMutability": "view",
      "type": "function"
    },
    {
      "inputs": [
        {
          "internalType": "bytes32",
          "name": "node",
          "type": "bytes32"
        },
        {
          "internalType": "bytes32",
          "name": "label",
          "type": "bytes32"
        }
      ],
      "name": "namehash",
      "outputs": [
        {
          "internalType": "bytes32",
          "name": "",
          "type": "bytes32"
        }
      ],
      "stateMutability": "pure",
      "type": "function"
    },
    {
      "inputs": [],
      "name": "namehashDB",
      "outputs": [
        {
          "internalType": "contract NamehashDB",
          "name": "",
          "type": "address"
        }
      ],
      "stateMutability": "view",
      "type": "function"
    },
    {
      "inputs": [],
      "name": "publicResolver",
      "outputs": [
        {
          "internalType": "contract KNSPublicResolver",
          "name": "",
          "type": "address"
        }
      ],
      "stateMutability": "view",
      "type": "function"
    },
    {
      "inputs": [],
      "name": "registrar",
      "outputs": [
        {
          "internalType": "contract KNSRegistrar",
          "name": "",
          "type": "address"
        }
      ],
      "stateMutability": "view",
      "type": "function"
    },
    {
      "inputs": [],
      "name": "registry",
      "outputs": [
        {
          "internalType": "contract KNSRegistry",
          "name": "",
          "type": "address"
        }
      ],
      "stateMutability": "view",
      "type": "function"
    },
    {
      "inputs": [],
      "name": "reverseRegistrar",
      "outputs": [
        {
          "internalType": "contract KNSReverseRegistrar",
          "name": "",
          "type": "address"
        }
      ],
      "stateMutability": "view",
      "type": "function"
    }
  ],
  "transactionHash": "0x969bb77db1ced4bb604ac70762dda0d421db8662a526476b62dcf1521ce0010e",
  "args": [
    "0x3616A0231de78AA563D4ec8c41ea1e3DdB0Cc375"
  ],
  "numDeployments": 1,
  "solcInputHash": "fbe74bbd327d2d929ee96906ffbda116",
  "bytecode": "0x60806040523480156200001157600080fd5b5060405162007c2038038062007c208339810160408190526200003491620009e2565b600480546001600160a01b0319166001600160a01b0383161790556040516200005d90620009aa565b604051809103906000f0801580156200007a573d6000803e3d6000fd5b50600080546001600160a01b0319166001600160a01b03929092169182179055604051620000a890620009b8565b6001600160a01b039091168152602001604051809103906000f080158015620000d5573d6000803e3d6000fd5b50600380546001600160a01b0319166001600160a01b0392909216919091179055604080516000602080830182905260008051602062007be083398151915283850152835180840385018152606090930190935281519190920120600080546040516306ab592360e01b8152600481019290925260008051602062007be083398151915260248301523060448301529192506001600160a01b03909116906306ab5923906064016020604051808303816000875af11580156200019c573d6000803e3d6000fd5b505050506040513d601f19601f82011682018060405250810190620001c2919062000a14565b50600054600354604051630c4b7b8560e11b8152600481018490526001600160a01b039182166024820152911690631896f70a90604401600060405180830381600087803b1580156200021457600080fd5b505af115801562000229573d6000803e3d6000fd5b505060035460405162d5fa2b60e81b8152600481018590526001600160a01b0390911660248201819052925063d5fa2b009150604401600060405180830381600087803b1580156200027a57600080fd5b505af11580156200028f573d6000803e3d6000fd5b5050600080546004546001600160a01b039182169450169150620002e99060008051602062007bc0833981519152604080516020808201949094528082019290925280518083038201815260609092019052805191012090565b604051620002f790620009c6565b6001600160a01b0393841681529290911660208301526040820152606001604051809103906000f08015801562000332573d6000803e3d6000fd5b50600180546001600160a01b0319166001600160a01b03928316179055600080546040516306ab592360e01b81526004810183905260008051602062007bc08339815191526024820152306044820152919216906306ab5923906064016020604051808303816000875af1158015620003af573d6000803e3d6000fd5b505050506040513d601f19601f82011682018060405250810190620003d5919062000a14565b600054600354604051630c4b7b8560e11b8152600481018490526001600160a01b0391821660248201529293501690631896f70a90604401600060405180830381600087803b1580156200042857600080fd5b505af11580156200043d573d6000803e3d6000fd5b5050600054600154604051635b0fc9c360e01b8152600481018690526001600160a01b03918216602482015291169250635b0fc9c39150604401600060405180830381600087803b1580156200049257600080fd5b505af1158015620004a7573d6000803e3d6000fd5b50506000546003546040516001600160a01b03928316945091169150620004ce90620009d4565b6001600160a01b03928316815291166020820152604001604051809103906000f08015801562000502573d6000803e3d6000fd5b50600280546001600160a01b0319166001600160a01b0392831690811790915560035460405163e0dba60f60e01b81526004810192909252600160248301529091169063e0dba60f90604401600060405180830381600087803b1580156200056957600080fd5b505af11580156200057e573d6000803e3d6000fd5b5050600080546040516306ab592360e01b8152600481019290925260008051602062007c0083398151915260248301523060448301526001600160a01b031692506306ab592391506064016020604051808303816000875af1158015620005e9573d6000803e3d6000fd5b505050506040513d601f19601f820116820180604052508101906200060f919062000a14565b50600080546001600160a01b0316906306ab592390620006659060008051602062007c00833981519152604080516020808201949094528082019290925280518083038201815260609092019052805191012090565b60025460405160e084901b6001600160e01b031916815260048101929092527fe5e14487b78f85faa6e1808e89246cf57dd34831548ff2e6097380d98db2504a60248301526001600160a01b031660448201526064016020604051808303816000875af1158015620006db573d6000803e3d6000fd5b505050506040513d601f19601f8201168201806040525081019062000701919062000a14565b50600080546040516306ab592360e01b8152600481019290925260008051602062007be083398151915260248301523360448301526001600160a01b0316906306ab5923906064016020604051808303816000875af115801562000769573d6000803e3d6000fd5b505050506040513d601f19601f820116820180604052508101906200078f919062000a14565b50600080546040516306ab592360e01b8152600481019290925260008051602062007c0083398151915260248301523360448301526001600160a01b0316906306ab5923906064016020604051808303816000875af1158015620007f7573d6000803e3d6000fd5b505050506040513d601f19601f820116820180604052508101906200081d919062000a14565b5060008054604051635b0fc9c360e01b815260048101929092523360248301526001600160a01b031690635b0fc9c390604401600060405180830381600087803b1580156200086b57600080fd5b505af115801562000880573d6000803e3d6000fd5b505060015460405163f2fde38b60e01b81523360048201526001600160a01b03909116925063f2fde38b9150602401600060405180830381600087803b158015620008ca57600080fd5b505af1158015620008df573d6000803e3d6000fd5b505060025460405163f2fde38b60e01b81523360048201526001600160a01b03909116925063f2fde38b9150602401600060405180830381600087803b1580156200092957600080fd5b505af11580156200093e573d6000803e3d6000fd5b505060035460405163f2fde38b60e01b81523360048201526001600160a01b03909116925063f2fde38b9150602401600060405180830381600087803b1580156200098857600080fd5b505af11580156200099d573d6000803e3d6000fd5b5050505050505062000a2e565b6128958062000cb983390190565b6129fa806200354e83390190565b610c828062005f4883390190565b610ff68062006bca83390190565b600060208284031215620009f557600080fd5b81516001600160a01b038116811462000a0d57600080fd5b9392505050565b60006020828403121562000a2757600080fd5b5051919050565b61027b8062000a3e6000396000f3fe608060405234801561001057600080fd5b50600436106100be5760003560e01c80637d70c659116100765780639368678f1161005b5780639368678f146101c2578063d1131c72146101e9578063f82561211461021057600080fd5b80637d70c6591461018857806380869853146101af57600080fd5b80632eb8221a116100a75780632eb8221a1461013b5780635ecb25021461014e5780637b1039991461017557600080fd5b80631d9273c7146100c35780632b20e39714610110575b600080fd5b6100fd6100d1366004610223565b604080516020808201949094528082019290925280518083038201815260609092019052805191012090565b6040519081526020015b60405180910390f35b600154610123906001600160a01b031681565b6040516001600160a01b039091168152602001610107565b600454610123906001600160a01b031681565b6100fd7f329539a1d23af1810c48a07fe7fc66a3b34fbc8b37e9b3cdb97bb88ceab7e4bf81565b600054610123906001600160a01b031681565b6100fd7fdec08c9dbbdd0890e300eb5062089b2d4b1c40e3673bbccb5423f7b37dcf9a9c81565b600254610123906001600160a01b031681565b6100fd7fe5e14487b78f85faa6e1808e89246cf57dd34831548ff2e6097380d98db2504a81565b6100fd7f1ffa5ff8aa60d5982bd5d42ffd70a799ffb1ea4f2e7bb8c4ed2a7983902ac35d81565b600354610123906001600160a01b031681565b6000806040838503121561023657600080fd5b5050803592602090910135915056fea2646970667358221220f87af7a9f6c2b7b87ce0c8a5f1c5309a099c7c87481adae0b0f5cb616a02315064736f6c634300080d003360806040523480156200001157600080fd5b50604080518082018252601881527f4b4343204e616d65205365727669636520446f6d61696e73000000000000000060208083019182528351808501909452600484526312d394d160e21b908401528151919291620000739160009162000585565b5080516200008990600190602084019062000585565b5050600a805460ff1916905550620000a3336000620000a9565b620006de565b6001600160a01b038216620001055760405162461bcd60e51b815260206004820181905260248201527f4552433732313a206d696e7420746f20746865207a65726f206164647265737360448201526064015b60405180910390fd5b6000818152600260205260409020546001600160a01b0316156200016c5760405162461bcd60e51b815260206004820152601c60248201527f4552433732313a20746f6b656e20616c7265616479206d696e746564000000006044820152606401620000fc565b6200017a6000838362000203565b6001600160a01b0382166000908152600360205260408120805460019290620001a590849062000641565b909155505060008181526002602052604080822080546001600160a01b0319166001600160a01b03861690811790915590518392907fddf252ad1be2c89b69c2b068fc378daa952ba7f163c4a11628f55a4df523b3ef908290a45050565b600a5460ff16156200024b5760405162461bcd60e51b815260206004820152601060248201526f14185d5cd8589b194e881c185d5cd95960821b6044820152606401620000fc565b620002638383836200026860201b62000ead1760201c565b505050565b620002808383836200026360201b620007fc1760201c565b6001600160a01b038316620002de57620002d881600880546000838152600960205260408120829055600182018355919091527ff3f7a9fe364faab93b216da50a3214154f22a0a2b415b23a84c8169e8b636ee30155565b62000304565b816001600160a01b0316836001600160a01b031614620003045762000304838262000344565b6001600160a01b0382166200031e576200026381620003f1565b826001600160a01b0316826001600160a01b0316146200026357620002638282620004ab565b600060016200035e84620004fc60201b62000c211760201c565b6200036a91906200065c565b600083815260076020526040902054909150808214620003be576001600160a01b03841660009081526006602090815260408083208584528252808320548484528184208190558352600790915290208190555b5060009182526007602090815260408084208490556001600160a01b039094168352600681528383209183525290812055565b60085460009062000405906001906200065c565b6000838152600960205260408120546008805493945090928490811062000430576200043062000676565b90600052602060002001549050806008838154811062000454576200045462000676565b60009182526020808320909101929092558281526009909152604080822084905585825281205560088054806200048f576200048f6200068c565b6001900381819060005260206000200160009055905550505050565b6000620004c383620004fc60201b62000c211760201c565b6001600160a01b039093166000908152600660209081526040808320868452825280832085905593825260079052919091209190915550565b60006001600160a01b038216620005695760405162461bcd60e51b815260206004820152602a60248201527f4552433732313a2062616c616e636520717565727920666f7220746865207a65604482015269726f206164647265737360b01b6064820152608401620000fc565b506001600160a01b031660009081526003602052604090205490565b8280546200059390620006a2565b90600052602060002090601f016020900481019282620005b7576000855562000602565b82601f10620005d257805160ff191683800117855562000602565b8280016001018555821562000602579182015b8281111562000602578251825591602001919060010190620005e5565b506200061092915062000614565b5090565b5b8082111562000610576000815560010162000615565b634e487b7160e01b600052601160045260246000fd5b600082198211156200065757620006576200062b565b500190565b6000828210156200067157620006716200062b565b500390565b634e487b7160e01b600052603260045260246000fd5b634e487b7160e01b600052603160045260246000fd5b600181811c90821680620006b757607f821691505b602082108103620006d857634e487b7160e01b600052602260045260246000fd5b50919050565b6121a780620006ee6000396000f3fe608060405234801561001057600080fd5b50600436106101cf5760003560e01c806342842e0e116101045780638456cb59116100a2578063c87b56dd11610071578063c87b56dd14610407578063cf4088231461041a578063e985e9c51461042d578063f79fe5381461046957600080fd5b80638456cb59146103d157806395d89b41146103d9578063a22cb465146103e1578063b88d4fde146103f457600080fd5b80635c975abb116100de5780635c975abb1461038d5780635ef2c7f0146103985780636352211e146103ab57806370a08231146103be57600080fd5b806342842e0e146103545780634f6ccce7146103675780635b0fc9c31461037a57600080fd5b806314ab9038116101715780631896f70a1161014b5780631896f70a1461031357806323b872dd146103265780632f745c59146103395780633f4ba83a1461034c57600080fd5b806314ab9038146102ae57806316a25cbd146102c157806318160ddd1461030b57600080fd5b806306ab5923116101ad57806306ab59231461025057806306fdde0314610271578063081812fc14610286578063095ea7b31461029957600080fd5b80630178b8bf146101d457806301ffc9a71461021a57806302571be31461023d575b600080fd5b6101fd6101e2366004611bfb565b6000908152600b60205260409020546001600160a01b031690565b6040516001600160a01b0390911681526020015b60405180910390f35b61022d610228366004611c2a565b61047c565b6040519015158152602001610211565b6101fd61024b366004611bfb565b61048d565b61026361025e366004611c63565b6104e2565b604051908152602001610211565b6102796105c0565b6040516102119190611cf0565b6101fd610294366004611bfb565b610652565b6102ac6102a7366004611d03565b6106ec565b005b6102ac6102bc366004611d45565b610801565b6102f26102cf366004611bfb565b6000908152600b6020526040902054600160a01b900467ffffffffffffffff1690565b60405167ffffffffffffffff9091168152602001610211565b600854610263565b6102ac610321366004611d71565b6108a2565b6102ac610334366004611d94565b610935565b610263610347366004611d03565b6109af565b6102ac610a57565b6102ac610362366004611d94565b610a89565b610263610375366004611bfb565b610aa4565b6102ac610388366004611d71565b610b48565b600a5460ff1661022d565b6102ac6103a6366004611dd0565b610b88565b6101fd6103b9366004611bfb565b610baa565b6102636103cc366004611e27565b610c21565b6102ac610cbb565b610279610cea565b6102ac6103ef366004611e42565b610cf9565b6102ac610402366004611e94565b610d08565b610279610415366004611bfb565b610d84565b6102ac610428366004611f70565b610e79565b61022d61043b366004611fbd565b6001600160a01b03918216600090815260056020908152604080832093909416825291909152205460ff1690565b61022d610477366004611bfb565b610e8e565b600061048782610f65565b92915050565b60008181526002602052604081205482906001600160a01b03166104b45750600092915050565b60006104bf82610baa565b9050306001600160a01b038216036104db575060009392505050565b9392505050565b6000836104f0335b82610f8a565b61050c576040516282b42960e81b815260040160405180910390fd5b60408051602080820188905281830187905282518083038401815260609092018352815191810191909120600081815260029092529190205481906001600160a01b03166105635761055e8582611081565b610576565b61057661056f8361048d565b86836111cf565b6040516001600160a01b0386168152869088907fce0457fe73731f824cc272376169235128c118b49d344817417c6d108d155e829060200160405180910390a35095945050505050565b6060600080546105cf90611fe7565b80601f01602080910402602001604051908101604052809291908181526020018280546105fb90611fe7565b80156106485780601f1061061d57610100808354040283529160200191610648565b820191906000526020600020905b81548152906001019060200180831161062b57829003601f168201915b5050505050905090565b6000818152600260205260408120546001600160a01b03166106d05760405162461bcd60e51b815260206004820152602c60248201527f4552433732313a20617070726f76656420717565727920666f72206e6f6e657860448201526b34b9ba32b73a103a37b5b2b760a11b60648201526084015b60405180910390fd5b506000908152600460205260409020546001600160a01b031690565b60006106f782610baa565b9050806001600160a01b0316836001600160a01b0316036107645760405162461bcd60e51b815260206004820152602160248201527f4552433732313a20617070726f76616c20746f2063757272656e74206f776e656044820152603960f91b60648201526084016106c7565b336001600160a01b03821614806107805750610780813361043b565b6107f25760405162461bcd60e51b815260206004820152603860248201527f4552433732313a20617070726f76652063616c6c6572206973206e6f74206f7760448201527f6e6572206e6f7220617070726f76656420666f7220616c6c000000000000000060648201526084016106c7565b6107fc8383611376565b505050565b8161080b336104ea565b610827576040516282b42960e81b815260040160405180910390fd5b60405167ffffffffffffffff8316815283907f1d4f9bbfc9cab89d66e1a1562f2233ccbf1308cb4f63de2ead5787adddb8fa689060200160405180910390a2506000918252600b6020526040909120805467ffffffffffffffff909216600160a01b0267ffffffffffffffff60a01b19909216919091179055565b816108ac336104ea565b6108c8576040516282b42960e81b815260040160405180910390fd5b6040516001600160a01b038316815283907f335721b01866dc23fbee8b6b2c7b1e14d6f05c28cd35a2c934239f94095602a09060200160405180910390a2506000918252600b602052604090912080546001600160a01b0319166001600160a01b03909216919091179055565b61093e336104ea565b6109a45760405162461bcd60e51b815260206004820152603160248201527f4552433732313a207472616e736665722063616c6c6572206973206e6f74206f6044820152701ddb995c881b9bdc88185c1c1c9bdd9959607a1b60648201526084016106c7565b6107fc8383836111cf565b60006109ba83610c21565b8210610a2e5760405162461bcd60e51b815260206004820152602b60248201527f455243373231456e756d657261626c653a206f776e657220696e646578206f7560448201527f74206f6620626f756e647300000000000000000000000000000000000000000060648201526084016106c7565b506001600160a01b03919091166000908152600660209081526040808320938352929052205490565b6000610a62336104ea565b610a7e576040516282b42960e81b815260040160405180910390fd5b610a866113e4565b50565b6107fc83838360405180602001604052806000815250610d08565b6000610aaf60085490565b8210610b235760405162461bcd60e51b815260206004820152602c60248201527f455243373231456e756d657261626c653a20676c6f62616c20696e646578206f60448201527f7574206f6620626f756e6473000000000000000000000000000000000000000060648201526084016106c7565b60088281548110610b3657610b36612021565b90600052602060002001549050919050565b81610b52336104ea565b610b6e576040516282b42960e81b815260040160405180910390fd5b82610b82610b7b8261048d565b84836111cf565b50505050565b6000610b958686866104e2565b9050610ba2818484611480565b505050505050565b6000818152600260205260408120546001600160a01b0316806104875760405162461bcd60e51b815260206004820152602960248201527f4552433732313a206f776e657220717565727920666f72206e6f6e657869737460448201526832b73a103a37b5b2b760b91b60648201526084016106c7565b60006001600160a01b038216610c9f5760405162461bcd60e51b815260206004820152602a60248201527f4552433732313a2062616c616e636520717565727920666f7220746865207a6560448201527f726f20616464726573730000000000000000000000000000000000000000000060648201526084016106c7565b506001600160a01b031660009081526003602052604090205490565b6000610cc6336104ea565b610ce2576040516282b42960e81b815260040160405180910390fd5b610a8661159e565b6060600180546105cf90611fe7565b610d04338383611619565b5050565b610d123383610f8a565b610d785760405162461bcd60e51b815260206004820152603160248201527f4552433732313a207472616e736665722063616c6c6572206973206e6f74206f6044820152701ddb995c881b9bdc88185c1c1c9bdd9959607a1b60648201526084016106c7565b610b82848484846116e7565b6000818152600260205260409020546060906001600160a01b0316610e115760405162461bcd60e51b815260206004820152602f60248201527f4552433732314d657461646174613a2055524920717565727920666f72206e6f60448201527f6e6578697374656e7420746f6b656e000000000000000000000000000000000060648201526084016106c7565b6000610e2860408051602081019091526000815290565b90506000815111610e4857604051806020016040528060008152506104db565b80610e5284611765565b604051602001610e63929190612037565b6040516020818303038152906040529392505050565b610e838484610b48565b610b82848383611480565b6000818152600260205260408120546001600160a01b03161515610487565b6001600160a01b038316610f0857610f0381600880546000838152600960205260408120829055600182018355919091527ff3f7a9fe364faab93b216da50a3214154f22a0a2b415b23a84c8169e8b636ee30155565b610f2b565b816001600160a01b0316836001600160a01b031614610f2b57610f2b838261187e565b6001600160a01b038216610f42576107fc8161191b565b826001600160a01b0316826001600160a01b0316146107fc576107fc82826119ca565b60006001600160e01b0319821663780e9d6360e01b1480610487575061048782611a0e565b6000818152600260205260408120546001600160a01b03166110035760405162461bcd60e51b815260206004820152602c60248201527f4552433732313a206f70657261746f7220717565727920666f72206e6f6e657860448201526b34b9ba32b73a103a37b5b2b760a11b60648201526084016106c7565b600061100e83610baa565b9050806001600160a01b0316846001600160a01b031614806110495750836001600160a01b031661103e84610652565b6001600160a01b0316145b8061107957506001600160a01b0380821660009081526005602090815260408083209388168352929052205460ff165b949350505050565b6001600160a01b0382166110d75760405162461bcd60e51b815260206004820181905260248201527f4552433732313a206d696e7420746f20746865207a65726f206164647265737360448201526064016106c7565b6000818152600260205260409020546001600160a01b03161561113c5760405162461bcd60e51b815260206004820152601c60248201527f4552433732313a20746f6b656e20616c7265616479206d696e7465640000000060448201526064016106c7565b61114860008383611a5e565b6001600160a01b038216600090815260036020526040812080546001929061117190849061207c565b909155505060008181526002602052604080822080546001600160a01b0319166001600160a01b03861690811790915590518392907fddf252ad1be2c89b69c2b068fc378daa952ba7f163c4a11628f55a4df523b3ef908290a45050565b826001600160a01b03166111e282610baa565b6001600160a01b0316146112465760405162461bcd60e51b815260206004820152602560248201527f4552433732313a207472616e736665722066726f6d20696e636f72726563742060448201526437bbb732b960d91b60648201526084016106c7565b6001600160a01b0382166112a85760405162461bcd60e51b8152602060048201526024808201527f4552433732313a207472616e7366657220746f20746865207a65726f206164646044820152637265737360e01b60648201526084016106c7565b6112b3838383611a5e565b6112be600082611376565b6001600160a01b03831660009081526003602052604081208054600192906112e7908490612094565b90915550506001600160a01b038216600090815260036020526040812080546001929061131590849061207c565b909155505060008181526002602052604080822080546001600160a01b0319166001600160a01b0386811691821790925591518493918716917fddf252ad1be2c89b69c2b068fc378daa952ba7f163c4a11628f55a4df523b3ef91a4505050565b600081815260046020526040902080546001600160a01b0319166001600160a01b03841690811790915581906113ab82610baa565b6001600160a01b03167f8c5be1e5ebec7d5bd14f71427d1e84f3dd0314c0f7b2291e5b200ac8c7c3b92560405160405180910390a45050565b600a5460ff166114365760405162461bcd60e51b815260206004820152601460248201527f5061757361626c653a206e6f742070617573656400000000000000000000000060448201526064016106c7565b600a805460ff191690557f5db9ee0a495bf2e6ff9c91a7834c1ba4fdd244a5e8aa4e537bd38aeae4b073aa335b6040516001600160a01b03909116815260200160405180910390a1565b6000838152600b60205260409020546001600160a01b03838116911614611502576000838152600b602090815260409182902080546001600160a01b0319166001600160a01b038616908117909155915191825284917f335721b01866dc23fbee8b6b2c7b1e14d6f05c28cd35a2c934239f94095602a0910160405180910390a25b6000838152600b602052604090205467ffffffffffffffff828116600160a01b90920416146107fc576000838152600b6020908152604091829020805467ffffffffffffffff60a01b1916600160a01b67ffffffffffffffff861690810291909117909155915191825284917f1d4f9bbfc9cab89d66e1a1562f2233ccbf1308cb4f63de2ead5787adddb8fa68910160405180910390a2505050565b600a5460ff16156115e45760405162461bcd60e51b815260206004820152601060248201526f14185d5cd8589b194e881c185d5cd95960821b60448201526064016106c7565b600a805460ff191660011790557f62e78cea01bee320cd4e420270b5ea74000d11b0c9f74754ebdbfc544b05a2586114633390565b816001600160a01b0316836001600160a01b03160361167a5760405162461bcd60e51b815260206004820152601960248201527f4552433732313a20617070726f766520746f2063616c6c65720000000000000060448201526064016106c7565b6001600160a01b03838116600081815260056020908152604080832094871680845294825291829020805460ff191686151590811790915591519182527f17307eab39ab6107e8899845ad3d59bd9653f200f220920489ca2b5937696c31910160405180910390a3505050565b6116f28484846111cf565b6116fe84848484611aaf565b610b825760405162461bcd60e51b815260206004820152603260248201527f4552433732313a207472616e7366657220746f206e6f6e20455243373231526560448201527131b2b4bb32b91034b6b83632b6b2b73a32b960711b60648201526084016106c7565b60608160000361178c5750506040805180820190915260018152600360fc1b602082015290565b8160005b81156117b657806117a0816120ab565b91506117af9050600a836120da565b9150611790565b60008167ffffffffffffffff8111156117d1576117d1611e7e565b6040519080825280601f01601f1916602001820160405280156117fb576020820181803683370190505b5090505b841561107957611810600183612094565b915061181d600a866120ee565b61182890603061207c565b60f81b81838151811061183d5761183d612021565b60200101907effffffffffffffffffffffffffffffffffffffffffffffffffffffffffffff1916908160001a905350611877600a866120da565b94506117ff565b6000600161188b84610c21565b6118959190612094565b6000838152600760205260409020549091508082146118e8576001600160a01b03841660009081526006602090815260408083208584528252808320548484528184208190558352600790915290208190555b5060009182526007602090815260408084208490556001600160a01b039094168352600681528383209183525290812055565b60085460009061192d90600190612094565b6000838152600960205260408120546008805493945090928490811061195557611955612021565b90600052602060002001549050806008838154811061197657611976612021565b60009182526020808320909101929092558281526009909152604080822084905585825281205560088054806119ae576119ae612102565b6001900381819060005260206000200160009055905550505050565b60006119d583610c21565b6001600160a01b039093166000908152600660209081526040808320868452825280832085905593825260079052919091209190915550565b60006001600160e01b031982166380ac58cd60e01b1480611a3f57506001600160e01b03198216635b5e139f60e01b145b8061048757506301ffc9a760e01b6001600160e01b0319831614610487565b600a5460ff1615611aa45760405162461bcd60e51b815260206004820152601060248201526f14185d5cd8589b194e881c185d5cd95960821b60448201526064016106c7565b6107fc838383610ead565b60006001600160a01b0384163b15611bf057604051630a85bd0160e11b81526001600160a01b0385169063150b7a0290611af3903390899088908890600401612118565b6020604051808303816000875af1925050508015611b2e575060408051601f3d908101601f19168201909252611b2b91810190612154565b60015b611bd6573d808015611b5c576040519150601f19603f3d011682016040523d82523d6000602084013e611b61565b606091505b508051600003611bce5760405162461bcd60e51b815260206004820152603260248201527f4552433732313a207472616e7366657220746f206e6f6e20455243373231526560448201527131b2b4bb32b91034b6b83632b6b2b73a32b960711b60648201526084016106c7565b805181602001fd5b6001600160e01b031916630a85bd0160e11b149050611079565b506001949350505050565b600060208284031215611c0d57600080fd5b5035919050565b6001600160e01b031981168114610a8657600080fd5b600060208284031215611c3c57600080fd5b81356104db81611c14565b80356001600160a01b0381168114611c5e57600080fd5b919050565b600080600060608486031215611c7857600080fd5b8335925060208401359150611c8f60408501611c47565b90509250925092565b60005b83811015611cb3578181015183820152602001611c9b565b83811115610b825750506000910152565b60008151808452611cdc816020860160208601611c98565b601f01601f19169290920160200192915050565b6020815260006104db6020830184611cc4565b60008060408385031215611d1657600080fd5b611d1f83611c47565b946020939093013593505050565b803567ffffffffffffffff81168114611c5e57600080fd5b60008060408385031215611d5857600080fd5b82359150611d6860208401611d2d565b90509250929050565b60008060408385031215611d8457600080fd5b82359150611d6860208401611c47565b600080600060608486031215611da957600080fd5b611db284611c47565b9250611dc060208501611c47565b9150604084013590509250925092565b600080600080600060a08688031215611de857600080fd5b8535945060208601359350611dff60408701611c47565b9250611e0d60608701611c47565b9150611e1b60808701611d2d565b90509295509295909350565b600060208284031215611e3957600080fd5b6104db82611c47565b60008060408385031215611e5557600080fd5b611e5e83611c47565b915060208301358015158114611e7357600080fd5b809150509250929050565b634e487b7160e01b600052604160045260246000fd5b60008060008060808587031215611eaa57600080fd5b611eb385611c47565b9350611ec160208601611c47565b925060408501359150606085013567ffffffffffffffff80821115611ee557600080fd5b818701915087601f830112611ef957600080fd5b813581811115611f0b57611f0b611e7e565b604051601f8201601f19908116603f01168101908382118183101715611f3357611f33611e7e565b816040528281528a6020848701011115611f4c57600080fd5b82602086016020830137600060208483010152809550505050505092959194509250565b60008060008060808587031215611f8657600080fd5b84359350611f9660208601611c47565b9250611fa460408601611c47565b9150611fb260608601611d2d565b905092959194509250565b60008060408385031215611fd057600080fd5b611fd983611c47565b9150611d6860208401611c47565b600181811c90821680611ffb57607f821691505b60208210810361201b57634e487b7160e01b600052602260045260246000fd5b50919050565b634e487b7160e01b600052603260045260246000fd5b60008351612049818460208801611c98565b83519083019061205d818360208801611c98565b01949350505050565b634e487b7160e01b600052601160045260246000fd5b6000821982111561208f5761208f612066565b500190565b6000828210156120a6576120a6612066565b500390565b6000600182016120bd576120bd612066565b5060010190565b634e487b7160e01b600052601260045260246000fd5b6000826120e9576120e96120c4565b500490565b6000826120fd576120fd6120c4565b500690565b634e487b7160e01b600052603160045260246000fd5b60006001600160a01b0380871683528086166020840152508360408301526080606083015261214a6080830184611cc4565b9695505050505050565b60006020828403121561216657600080fd5b81516104db81611c1456fea2646970667358221220b54a09ebacd8d438de8b9856d27e64047e1364c68e313c84798bdfb92ab94e4c64736f6c634300080d003360a06040523480156200001157600080fd5b50604051620029fa380380620029fa8339810160408190526200003491620000a3565b6200003f3362000051565b6001600160a01b0316608052620000d5565b600b80546001600160a01b038381166001600160a01b0319831681179093556040519116919082907f8be0079c531659141344cd1fd0a4f28419497f9722a3daafe3b4186f6b6457e090600090a35050565b600060208284031215620000b657600080fd5b81516001600160a01b0381168114620000ce57600080fd5b9392505050565b608051612909620000f160003960006116f701526129096000f3fe608060405234801561001057600080fd5b50600436106101e55760003560e01c80638b95dd711161010f578063ce3decdc116100a2578063e59d895d11610071578063e59d895d1461049c578063e985e9c5146104af578063f1cb7e06146104eb578063f2fde38b146104fe57600080fd5b8063ce3decdc14610440578063d5fa2b0014610453578063da8c229e14610466578063e0dba60f1461048957600080fd5b8063ac9650d8116100de578063ac9650d8146103bd578063ad5780af146103dd578063bc1c58d1146103f0578063c86902331461040357600080fd5b80638b95dd71146103735780638da5cb5b14610386578063a22cb46514610397578063a8fa5682146103aa57600080fd5b80633b3b57de11610187578063623195b011610156578063623195b014610332578063691f343114610345578063715018a614610358578063773722131461036057600080fd5b80633b3b57de146102ac5780634cbf6ba4146102bf57806359d1d43c146102ff5780635c98042b1461031f57600080fd5b8063124a319c116101c3578063124a319c1461023a5780632203ab561461026557806329cd62ea14610286578063304e6ade1461029957600080fd5b806301ffc9a7146101ea5780630af179d71461021257806310f13a8c14610227575b600080fd5b6101fd6101f8366004612104565b610511565b60405190151581526020015b60405180910390f35b610225610220366004612161565b610522565b005b6102256102353660046121ad565b610710565b61024d610248366004612227565b6107bd565b6040516001600160a01b039091168152602001610209565b610278610273366004612253565b610a25565b6040516102099291906122d1565b6102256102943660046122ea565b610b40565b6102256102a7366004612161565b610bc0565b61024d6102ba366004612316565b610c1f565b6101fd6102cd366004612253565b600091825260066020908152604080842060048352818520548552825280842092845291905290205461ffff16151590565b61031261030d366004612161565b610c51565b604051610209919061232f565b61031261032d366004612316565b610d16565b610225610340366004612342565b610db8565b610312610353366004612316565b610e39565b610225610e56565b61022561036e366004612161565b610ec1565b6102256103813660046123ab565b610f20565b600b546001600160a01b031661024d565b6102256103a5366004612484565b610fea565b6103126103b83660046124c2565b6110d4565b6103d06103cb366004612502565b611117565b6040516102099190612577565b6102256103eb366004612316565b611232565b6103126103fe366004612316565b611293565b61042b610411366004612316565b600090815260096020526040902080546001909101549091565b60408051928352602083019190915201610209565b61022561044e366004612161565b6112b0565b6102256104613660046125d9565b6113bc565b6101fd6104743660046125fe565b600c6020526000908152604090205460ff1681565b610225610497366004612484565b6113e3565b6102256104aa36600461261b565b61149c565b6101fd6104bd366004612650565b6001600160a01b039182166000908152600d6020908152604080832093909416825291909152205460ff1690565b6103126104f9366004612253565b611536565b61022561050c3660046125fe565b6115e4565b600061051c826116af565b92915050565b8261052c816116d4565b61053557600080fd5b60008060608060008061058260008a8a8080601f01602080910402602001604051908101604052809392919081815260200183838082843760009201919091525092939250506117bc9050565b90505b805151602082015110156106ab578561ffff166000036105ea57806040015195506105af8161181d565b9350836040516020016105c2919061267e565b6040516020818303038152906040528051906020012091506105e38161183e565b925061069d565b60006105f58261181d565b9050816040015161ffff168761ffff161415806106195750610617858261185a565b155b1561069b576106748b86898d8d8080601f016020809104026020016040519081016040528093929190818152602001838380828437600092019190915250505060208801518c915061066c9082906126b0565b8a5115611878565b8160400151965081602001519550809450848051906020012092506106988261183e565b93505b505b6106a681611abb565b610585565b50825115610705576107058984878b8b8080601f0160208091040260200160405190810160405280939291908181526020018383808284376000920191909152508b92506106fd91508290508e6126b0565b885115611878565b505050505050505050565b8461071a816116d4565b61072357600080fd5b8282600a600089815260200190815260200160002087876040516107489291906126c7565b908152604051908190036020019020610762929091611fa4565b5084846040516107739291906126c7565b6040518091039020867fd8c9334b1a9c2f9da342a0a2b32629c1a229b6445dad78947f674b44444a755087876040516107ad929190612700565b60405180910390a3505050505050565b60008281526007602090815260408083206001600160e01b0319851684529091528120546001600160a01b031680156107f757905061051c565b600061080285610c1f565b90506001600160a01b03811661081d5760009250505061051c565b6040516301ffc9a760e01b602482015260009081906001600160a01b0384169060440160408051601f198184030181529181526020820180516001600160e01b03166301ffc9a760e01b17905251610875919061267e565b600060405180830381855afa9150503d80600081146108b0576040519150601f19603f3d011682016040523d82523d6000602084013e6108b5565b606091505b50915091508115806108c8575060208151105b8061090a575080601f815181106108e1576108e1612714565b01602001517fff0000000000000000000000000000000000000000000000000000000000000016155b1561091c57600094505050505061051c565b6040516001600160e01b0319871660248201526001600160a01b0384169060440160408051601f198184030181529181526020820180516001600160e01b03166301ffc9a760e01b17905251610972919061267e565b600060405180830381855afa9150503d80600081146109ad576040519150601f19603f3d011682016040523d82523d6000602084013e6109b2565b606091505b5090925090508115806109c6575060208151105b80610a08575080601f815181106109df576109df612714565b01602001517fff0000000000000000000000000000000000000000000000000000000000000016155b15610a1a57600094505050505061051c565b509095945050505050565b600082815260208190526040812060609060015b848111610b205780851615801590610a69575060008181526020839052604081208054610a659061272a565b9050115b15610b185780826000838152602001908152602001600020808054610a8d9061272a565b80601f0160208091040260200160405190810160405280929190818152602001828054610ab99061272a565b8015610b065780601f10610adb57610100808354040283529160200191610b06565b820191906000526020600020905b815481529060010190602001808311610ae957829003601f168201915b50505050509050935093505050610b39565b60011b610a39565b5060006040518060200160405280600081525092509250505b9250929050565b82610b4a816116d4565b610b5357600080fd5b60408051808201825284815260208082018581526000888152600983528490209251835551600190920191909155815185815290810184905285917f1d6f5e03d3f63eb58751986629a5439baee5079ff04f345becb66e23eb154e4691015b60405180910390a250505050565b82610bca816116d4565b610bd357600080fd5b6000848152600260205260409020610bec908484611fa4565b50837fe379c1624ed7e714cc0937528a32359d69d5281337765313dba4e081b72d75788484604051610bb2929190612700565b600080610c2d83603c611536565b90508051600003610c415750600092915050565b610c4a81611ba3565b9392505050565b6060600a60008581526020019081526020016000208383604051610c769291906126c7565b90815260200160405180910390208054610c8f9061272a565b80601f0160208091040260200160405190810160405280929190818152602001828054610cbb9061272a565b8015610d085780601f10610cdd57610100808354040283529160200191610d08565b820191906000526020600020905b815481529060010190602001808311610ceb57829003601f168201915b505050505090509392505050565b6000818152600360205260409020805460609190610d339061272a565b80601f0160208091040260200160405190810160405280929190818152602001828054610d5f9061272a565b8015610dac5780601f10610d8157610100808354040283529160200191610dac565b820191906000526020600020905b815481529060010190602001808311610d8f57829003601f168201915b50505050509050919050565b83610dc2816116d4565b610dcb57600080fd5b83610dd76001826126b0565b1615610de257600080fd5b6000858152602081815260408083208784529091529020610e04908484611fa4565b50604051849086907faa121bbeef5f32f5961a2a28966e769023910fc9479059ee3495d4c1a696efe390600090a35050505050565b6000818152600860205260409020805460609190610d339061272a565b600b546001600160a01b03163314610eb55760405162461bcd60e51b815260206004820181905260248201527f4f776e61626c653a2063616c6c6572206973206e6f7420746865206f776e657260448201526064015b60405180910390fd5b610ebf6000611bcb565b565b82610ecb816116d4565b610ed457600080fd5b6000848152600860205260409020610eed908484611fa4565b50837fb7d29e911041e8d9b843369e890bcb72c9388692ba48b65ac54e7214c4c348f78484604051610bb2929190612700565b82610f2a816116d4565b610f3357600080fd5b837f65412581168e88a1e60c6459d7f44ae83ad0832e670826c05a4e2476b57af7528484604051610f659291906122d1565b60405180910390a2603c8303610fbc57837f52d7d861f09ab3d26239d492e8968629f95e9e318cf0b73bfddc441522a15fd2610fa084611ba3565b6040516001600160a01b03909116815260200160405180910390a25b600084815260016020908152604080832086845282529091208351610fe392850190612028565b5050505050565b6001600160a01b03821633036110685760405162461bcd60e51b815260206004820152603360248201527f5075626c69635265736f6c7665723a2063616e6e6f742073657420617070726f60448201527f76616c2073746174757320666f722073656c66000000000000000000000000006064820152608401610eac565b336000818152600d602090815260408083206001600160a01b03871680855290835292819020805460ff191686151590811790915590519081529192917f17307eab39ab6107e8899845ad3d59bd9653f200f220920489ca2b5937696c31910160405180910390a35050565b6000838152600560209081526040808320600483528184205484528252808320858452825280832061ffff851684529091529020805460609190610c8f9061272a565b60608167ffffffffffffffff81111561113257611132612395565b60405190808252806020026020018201604052801561116557816020015b60608152602001906001900390816111505790505b50905060005b8281101561122b576000803086868581811061118957611189612714565b905060200281019061119b9190612764565b6040516111a99291906126c7565b600060405180830381855af49150503d80600081146111e4576040519150601f19603f3d011682016040523d82523d6000602084013e6111e9565b606091505b5091509150816111f857600080fd5b8084848151811061120b5761120b612714565b602002602001018190525050508080611223906127ab565b91505061116b565b5092915050565b8061123c816116d4565b61124557600080fd5b600082815260046020526040812080549161125f836127ab565b909155505060405182907fb757169b8492ca2f1c6619d9d76ce22803035c3b1d5f6930dffe7b127c1a198390600090a25050565b6000818152600260205260409020805460609190610d339061272a565b826112ba816116d4565b6112c357600080fd5b600084815260036020526040812080546112dc9061272a565b80601f01602080910402602001604051908101604052809291908181526020018280546113089061272a565b80156113555780601f1061132a57610100808354040283529160200191611355565b820191906000526020600020905b81548152906001019060200180831161133857829003601f168201915b505050600088815260036020526040902092935061137892915086905085611fa4565b50847f8f15ed4b723ef428f250961da8315675b507046737e19319fc1a4d81bfe87f858286866040516113ad939291906127c4565b60405180910390a25050505050565b816113c6816116d4565b6113cf57600080fd5b6113de83603c61038185611c2a565b505050565b600b546001600160a01b0316331461143d5760405162461bcd60e51b815260206004820181905260248201527f4f776e61626c653a2063616c6c6572206973206e6f7420746865206f776e65726044820152606401610eac565b6001600160a01b0382166000818152600c6020908152604091829020805460ff191685151590811790915591519182527f4c97694570a07277810af7e5669ffd5f6a2d6b74b6e9a274b8b870fd5114cf87910160405180910390a25050565b826114a6816116d4565b6114af57600080fd5b60008481526007602090815260408083206001600160e01b0319871680855290835292819020805473ffffffffffffffffffffffffffffffffffffffff19166001600160a01b038716908117909155905190815286917f7c69f06bea0bdef565b709e93a147836b0063ba2dd89f02d0b7e8d931e6a6daa910160405180910390a350505050565b6000828152600160209081526040808320848452909152902080546060919061155e9061272a565b80601f016020809104026020016040519081016040528092919081815260200182805461158a9061272a565b80156115d75780601f106115ac576101008083540402835291602001916115d7565b820191906000526020600020905b8154815290600101906020018083116115ba57829003601f168201915b5050505050905092915050565b600b546001600160a01b0316331461163e5760405162461bcd60e51b815260206004820181905260248201527f4f776e61626c653a2063616c6c6572206973206e6f7420746865206f776e65726044820152606401610eac565b6001600160a01b0381166116a35760405162461bcd60e51b815260206004820152602660248201527f4f776e61626c653a206e6577206f776e657220697320746865207a65726f206160448201526564647265737360d01b6064820152608401610eac565b6116ac81611bcb565b50565b60006001600160e01b03198216631674750f60e21b148061051c575061051c82611c63565b6040516302571be360e01b81526004810182905260009081906001600160a01b037f000000000000000000000000000000000000000000000000000000000000000016906302571be390602401602060405180830381865afa15801561173e573d6000803e3d6000fd5b505050506040513d601f19601f8201168201806040525081019061176291906127f4565b90506001600160a01b03811633148061178a5750336000908152600c602052604090205460ff165b80610c4a57506001600160a01b0381166000908152600d6020908152604080832033845290915290205460ff16610c4a565b61180a6040518060e001604052806060815260200160008152602001600061ffff168152602001600061ffff168152602001600063ffffffff16815260200160008152602001600081525090565b82815260c0810182905261051c81611abb565b6020810151815160609161051c916118359082611c88565b84519190611cea565b60a081015160c082015160609161051c916118359082906126b0565b600081518351148015610c4a5750610c4a8360008460008751611d61565b6000878152600460209081526040822054885191890191909120909161189f878787611cea565b905083156119a85760008a81526005602090815260408083208684528252808320858452825280832061ffff8c168452909152902080546118df9061272a565b1590506119335760008a815260066020908152604080832086845282528083208584529091528120805461ffff169161191783612811565b91906101000a81548161ffff021916908361ffff160217905550505b60008a81526005602090815260408083208684528252808320858452825280832061ffff8c16845290915281206119699161209c565b897f03528ed0c2a3ebc993b12ce3c16bb382f9c7d88ef7d8a1bf290eaf35955a12078a8a60405161199b92919061282f565b60405180910390a2611aaf565b60008a81526005602090815260408083208684528252808320858452825280832061ffff8c168452909152902080546119e09061272a565b9050600003611a365760008a815260066020908152604080832086845282528083208584529091528120805461ffff1691611a1a83612855565b91906101000a81548161ffff021916908361ffff160217905550505b60008a81526005602090815260408083208684528252808320858452825280832061ffff8c16845282529091208251611a7192840190612028565b50897f52a608b3303a48862d07a73d82fa221318c0027fbbcfb1b2329bface3f19ff2b8a8a84604051611aa693929190612876565b60405180910390a25b50505050505050505050565b60c08101516020820181905281515111611ad25750565b6000611ae682600001518360200151611c88565b8260200151611af591906128a5565b8251909150611b049082611d84565b61ffff166040830152611b186002826128a5565b8251909150611b279082611d84565b61ffff166060830152611b3b6002826128a5565b8251909150611b4a9082611dac565b63ffffffff166080830152611b606004826128a5565b8251909150600090611b729083611d84565b61ffff169050611b836002836128a5565b60a084018190529150611b9681836128a5565b60c0909301929092525050565b60008151601414611bb357600080fd5b50602001516c01000000000000000000000000900490565b600b80546001600160a01b0383811673ffffffffffffffffffffffffffffffffffffffff19831681179093556040519116919082907f8be0079c531659141344cd1fd0a4f28419497f9722a3daafe3b4186f6b6457e090600090a35050565b6040805160148082528183019092526060916020820181803683375050506c010000000000000000000000009290920260208301525090565b60006001600160e01b0319821663c869023360e01b148061051c575061051c82611dd6565b6000815b83518110611c9c57611c9c6128bd565b6000611ca88583611dfb565b60ff169050611cb88160016128a5565b611cc290836128a5565b915080600003611cd25750611cd8565b50611c8c565b611ce283826126b0565b949350505050565b8251606090611cf983856128a5565b1115611d0457600080fd5b60008267ffffffffffffffff811115611d1f57611d1f612395565b6040519080825280601f01601f191660200182016040528015611d49576020820181803683370190505b50905060208082019086860101610a1a828287611e1f565b6000611d6e848484611e75565b611d79878785611e75565b149695505050505050565b8151600090611d948360026128a5565b1115611d9f57600080fd5b50016002015161ffff1690565b8151600090611dbc8360046128a5565b1115611dc757600080fd5b50016004015163ffffffff1690565b60006001600160e01b0319821663691f343160e01b148061051c575061051c82611e99565b6000828281518110611e0f57611e0f612714565b016020015160f81c905092915050565b60208110611e575781518352611e366020846128a5565b9250611e436020836128a5565b9150611e506020826126b0565b9050611e1f565b905182516020929092036101000a6000190180199091169116179052565b8251600090611e8483856128a5565b1115611e8f57600080fd5b5091016020012090565b60006001600160e01b031982166304928c6760e21b148061051c575061051c8260006001600160e01b0319821663547d2b4160e11b1480611eea57506001600160e01b03198216635c98042b60e01b145b8061051c575061051c8260006001600160e01b0319821663bc1c58d160e01b148061051c575061051c8260006001600160e01b03198216631d9dabef60e11b1480611f4557506001600160e01b031982166378e5bf0360e11b145b8061051c575061051c8260006001600160e01b03198216631101d5ab60e11b148061051c575061051c8260006001600160e01b03198216631592ca1b60e31b148061051c57506301ffc9a760e01b6001600160e01b031983161461051c565b828054611fb09061272a565b90600052602060002090601f016020900481019282611fd25760008555612018565b82601f10611feb5782800160ff19823516178555612018565b82800160010185558215612018579182015b82811115612018578235825591602001919060010190611ffd565b506120249291506120d2565b5090565b8280546120349061272a565b90600052602060002090601f0160209004810192826120565760008555612018565b82601f1061206f57805160ff1916838001178555612018565b82800160010185558215612018579182015b82811115612018578251825591602001919060010190612081565b5080546120a89061272a565b6000825580601f106120b8575050565b601f0160209004906000526020600020908101906116ac91905b5b8082111561202457600081556001016120d3565b80356001600160e01b0319811681146120ff57600080fd5b919050565b60006020828403121561211657600080fd5b610c4a826120e7565b60008083601f84011261213157600080fd5b50813567ffffffffffffffff81111561214957600080fd5b602083019150836020828501011115610b3957600080fd5b60008060006040848603121561217657600080fd5b83359250602084013567ffffffffffffffff81111561219457600080fd5b6121a08682870161211f565b9497909650939450505050565b6000806000806000606086880312156121c557600080fd5b85359450602086013567ffffffffffffffff808211156121e457600080fd5b6121f089838a0161211f565b9096509450604088013591508082111561220957600080fd5b506122168882890161211f565b969995985093965092949392505050565b6000806040838503121561223a57600080fd5b8235915061224a602084016120e7565b90509250929050565b6000806040838503121561226657600080fd5b50508035926020909101359150565b60005b83811015612290578181015183820152602001612278565b8381111561229f576000848401525b50505050565b600081518084526122bd816020860160208601612275565b601f01601f19169290920160200192915050565b828152604060208201526000611ce260408301846122a5565b6000806000606084860312156122ff57600080fd5b505081359360208301359350604090920135919050565b60006020828403121561232857600080fd5b5035919050565b602081526000610c4a60208301846122a5565b6000806000806060858703121561235857600080fd5b8435935060208501359250604085013567ffffffffffffffff81111561237d57600080fd5b6123898782880161211f565b95989497509550505050565b634e487b7160e01b600052604160045260246000fd5b6000806000606084860312156123c057600080fd5b8335925060208401359150604084013567ffffffffffffffff808211156123e657600080fd5b818601915086601f8301126123fa57600080fd5b81358181111561240c5761240c612395565b604051601f8201601f19908116603f0116810190838211818310171561243457612434612395565b8160405282815289602084870101111561244d57600080fd5b8260208601602083013760006020848301015280955050505050509250925092565b6001600160a01b03811681146116ac57600080fd5b6000806040838503121561249757600080fd5b82356124a28161246f565b9150602083013580151581146124b757600080fd5b809150509250929050565b6000806000606084860312156124d757600080fd5b8335925060208401359150604084013561ffff811681146124f757600080fd5b809150509250925092565b6000806020838503121561251557600080fd5b823567ffffffffffffffff8082111561252d57600080fd5b818501915085601f83011261254157600080fd5b81358181111561255057600080fd5b8660208260051b850101111561256557600080fd5b60209290920196919550909350505050565b6000602080830181845280855180835260408601915060408160051b870101925083870160005b828110156125cc57603f198886030184526125ba8583516122a5565b9450928501929085019060010161259e565b5092979650505050505050565b600080604083850312156125ec57600080fd5b8235915060208301356124b78161246f565b60006020828403121561261057600080fd5b8135610c4a8161246f565b60008060006060848603121561263057600080fd5b83359250612640602085016120e7565b915060408401356124f78161246f565b6000806040838503121561266357600080fd5b823561266e8161246f565b915060208301356124b78161246f565b60008251612690818460208701612275565b9190910192915050565b634e487b7160e01b600052601160045260246000fd5b6000828210156126c2576126c261269a565b500390565b8183823760009101908152919050565b81835281816020850137506000828201602090810191909152601f909101601f19169091010190565b602081526000611ce26020830184866126d7565b634e487b7160e01b600052603260045260246000fd5b600181811c9082168061273e57607f821691505b60208210810361275e57634e487b7160e01b600052602260045260246000fd5b50919050565b6000808335601e1984360301811261277b57600080fd5b83018035915067ffffffffffffffff82111561279657600080fd5b602001915036819003821315610b3957600080fd5b6000600182016127bd576127bd61269a565b5060010190565b6040815260006127d760408301866122a5565b82810360208401526127ea8185876126d7565b9695505050505050565b60006020828403121561280657600080fd5b8151610c4a8161246f565b600061ffff8216806128255761282561269a565b6000190192915050565b60408152600061284260408301856122a5565b905061ffff831660208301529392505050565b600061ffff80831681810361286c5761286c61269a565b6001019392505050565b60608152600061288960608301866122a5565b61ffff8516602084015282810360408401526127ea81856122a5565b600082198211156128b8576128b861269a565b500190565b634e487b7160e01b600052600160045260246000fdfea2646970667358221220969e3c0b056f2a8ab8a5369222ad0cc12226877a7d4edfc9aa92c0f1bf75a45e64736f6c634300080d0033608060405234801561001057600080fd5b50604051610c82380380610c8283398101604081905261002f916100d8565b61003833610070565b600180546001600160a01b039485166001600160a01b031991821617909155600280549390941692169190911790915560035561011b565b600080546001600160a01b038381166001600160a01b0319831681178455604051919092169283917f8be0079c531659141344cd1fd0a4f28419497f9722a3daafe3b4186f6b6457e09190a35050565b6001600160a01b03811681146100d557600080fd5b50565b6000806000606084860312156100ed57600080fd5b83516100f8816100c0565b6020850151909350610109816100c0565b80925050604084015190509250925092565b610b588061012a6000396000f3fe608060405234801561001057600080fd5b50600436106100df5760003560e01c80638da5cb5b1161008c578063aeb8ce9b11610066578063aeb8ce9b146101a5578063da8c229e146101c8578063f2fde38b146101eb578063f6a74ed7146101fe57600080fd5b80638da5cb5b1461016e57806390ddd11b1461017f578063a7fc7a071461019257600080fd5b80634e543b26116100bd5780634e543b261461013e578063715018a6146101535780637b1039991461015b57600080fd5b8063114902c5146100e45780631e59c529146101005780632eb8221a14610113575b600080fd5b6100ed60035481565b6040519081526020015b60405180910390f35b6100ed61010e3660046109c7565b610211565b600254610126906001600160a01b031681565b6040516001600160a01b0390911681526020016100f7565b61015161014c366004610a1e565b610467565b005b610151610533565b600154610126906001600160a01b031681565b6000546001600160a01b0316610126565b61015161018d366004610a1e565b610599565b6101516101a0366004610a1e565b610622565b6101b86101b3366004610a42565b6106c8565b60405190151581526020016100f7565b6101b86101d6366004610a1e565b60046020526000908152604090205460ff1681565b6101516101f9366004610a1e565b61079e565b61015161020c366004610a1e565b610869565b6001546003546040516302571be360e01b8152600481019190915260009130916001600160a01b03909116906302571be390602401602060405180830381865afa158015610263573d6000803e3d6000fd5b505050506040513d601f19601f820116820180604052508101906102879190610a84565b6001600160a01b0316146102ae5760405163185923dd60e31b815260040160405180910390fd5b3360009081526004602052604090205460ff166102dd576040516282b42960e81b815260040160405180910390fd5b6102e784846106c8565b61030457604051630c01d0b160e21b815260040160405180910390fd5b60008484604051602001610319929190610aa1565b60408051808303601f190181529082905280516020909101206001546003546306ab592360e01b84526004840152602483018290526001600160a01b03868116604485015291935016906306ab5923906064016020604051808303816000875af115801561038b573d6000803e3d6000fd5b505050506040513d601f19601f820116820180604052508101906103af9190610ab1565b506002546001600160a01b03161561042957600254600354604051639d105a2560e01b81526001600160a01b0390921691639d105a25916103f69189908990600401610aca565b600060405180830381600087803b15801561041057600080fd5b505af1158015610424573d6000803e3d6000fd5b505050505b6040516001600160a01b0384169082907f25631d78c8c9e9757c5c8419905e25845aa864284d1df44be777e5fafd2e09f790600090a3949350505050565b6000546001600160a01b031633146104c65760405162461bcd60e51b815260206004820181905260248201527f4f776e61626c653a2063616c6c6572206973206e6f7420746865206f776e657260448201526064015b60405180910390fd5b600154600354604051630c4b7b8560e11b815260048101919091526001600160a01b03838116602483015290911690631896f70a90604401600060405180830381600087803b15801561051857600080fd5b505af115801561052c573d6000803e3d6000fd5b5050505050565b6000546001600160a01b0316331461058d5760405162461bcd60e51b815260206004820181905260248201527f4f776e61626c653a2063616c6c6572206973206e6f7420746865206f776e657260448201526064016104bd565b610597600061090c565b565b6000546001600160a01b031633146105f35760405162461bcd60e51b815260206004820181905260248201527f4f776e61626c653a2063616c6c6572206973206e6f7420746865206f776e657260448201526064016104bd565b6002805473ffffffffffffffffffffffffffffffffffffffff19166001600160a01b0392909216919091179055565b6000546001600160a01b0316331461067c5760405162461bcd60e51b815260206004820181905260248201527f4f776e61626c653a2063616c6c6572206973206e6f7420746865206f776e657260448201526064016104bd565b6001600160a01b038116600081815260046020526040808220805460ff19166001179055517f0a8bb31534c0ed46f380cb867bd5c803a189ced9a764e30b3a4991a9901d74749190a250565b60008060035484846040516020016106e1929190610aa1565b60405160208183030381529060405280519060200120604051602001610711929190918252602082015260400190565b60408051808303601f19018152908290528051602090910120600154631ef3fca760e31b8352600483018290529092506001600160a01b03169063f79fe53890602401602060405180830381865afa158015610771573d6000803e3d6000fd5b505050506040513d601f19601f820116820180604052508101906107959190610b00565b15949350505050565b6000546001600160a01b031633146107f85760405162461bcd60e51b815260206004820181905260248201527f4f776e61626c653a2063616c6c6572206973206e6f7420746865206f776e657260448201526064016104bd565b6001600160a01b03811661085d5760405162461bcd60e51b815260206004820152602660248201527f4f776e61626c653a206e6577206f776e657220697320746865207a65726f206160448201526564647265737360d01b60648201526084016104bd565b6108668161090c565b50565b6000546001600160a01b031633146108c35760405162461bcd60e51b815260206004820181905260248201527f4f776e61626c653a2063616c6c6572206973206e6f7420746865206f776e657260448201526064016104bd565b6001600160a01b038116600081815260046020526040808220805460ff19169055517f33d83959be2573f5453b12eb9d43b3499bc57d96bd2f067ba44803c859e811139190a250565b600080546001600160a01b0383811673ffffffffffffffffffffffffffffffffffffffff19831681178455604051919092169283917f8be0079c531659141344cd1fd0a4f28419497f9722a3daafe3b4186f6b6457e09190a35050565b60008083601f84011261097b57600080fd5b50813567ffffffffffffffff81111561099357600080fd5b6020830191508360208285010111156109ab57600080fd5b9250929050565b6001600160a01b038116811461086657600080fd5b6000806000604084860312156109dc57600080fd5b833567ffffffffffffffff8111156109f357600080fd5b6109ff86828701610969565b9094509250506020840135610a13816109b2565b809150509250925092565b600060208284031215610a3057600080fd5b8135610a3b816109b2565b9392505050565b60008060208385031215610a5557600080fd5b823567ffffffffffffffff811115610a6c57600080fd5b610a7885828601610969565b90969095509350505050565b600060208284031215610a9657600080fd5b8151610a3b816109b2565b8183823760009101908152919050565b600060208284031215610ac357600080fd5b5051919050565b83815260406020820152816040820152818360608301376000818301606090810191909152601f909201601f1916010192915050565b600060208284031215610b1257600080fd5b81518015158114610a3b57600080fdfea2646970667358221220386127552bcf8d4417e9b267f3f8532f49daf74ca9fcb5c6f624a42097d4b3bc64736f6c634300080d003360a06040523480156200001157600080fd5b5060405162000ff638038062000ff68339810160408190526200003491620001de565b6200003f3362000175565b6001600160a01b038281166080819052600280546001600160a01b031916928416929092179091556040516302571be360e01b81527f91d1777781884d03a6757a803996e38de2a42967fb37eeaca72729271025a9e26004820152600091906302571be390602401602060405180830381865afa158015620000c5573d6000803e3d6000fd5b505050506040513d601f19601f82011682018060405250810190620000eb91906200021d565b90506001600160a01b038116156200016c57604051630f41a04d60e11b81523360048201526001600160a01b03821690631e83409a906024016020604051808303816000875af115801562000144573d6000803e3d6000fd5b505050506040513d601f19601f820116820180604052508101906200016a919062000244565b505b5050506200025e565b600080546001600160a01b038381166001600160a01b0319831681178455604051919092169283917f8be0079c531659141344cd1fd0a4f28419497f9722a3daafe3b4186f6b6457e09190a35050565b6001600160a01b0381168114620001db57600080fd5b50565b60008060408385031215620001f257600080fd5b8251620001ff81620001c5565b60208401519092506200021281620001c5565b809150509250929050565b6000602082840312156200023057600080fd5b81516200023d81620001c5565b9392505050565b6000602082840312156200025757600080fd5b5051919050565b608051610d6e620002886000396000818161015d015281816102d701526104d50152610d6e6000f3fe608060405234801561001057600080fd5b50600436106100ea5760003560e01c80638da5cb5b1161008c578063c66485b211610066578063c66485b2146101e1578063da8c229e146101f4578063e0dba60f14610227578063f2fde38b1461023a57600080fd5b80638da5cb5b146101aa578063bffbe61c146101bb578063c47f0027146101ce57600080fd5b8063715018a6116100c8578063715018a61461013b5780637a806d6b146101455780637b10399914610158578063828eab0e1461019757600080fd5b80630f5a5466146100ef5780631e83409a146101155780636566963114610128575b600080fd5b6101026100fd366004610a6f565b61024d565b6040519081526020015b60405180910390f35b610102610123366004610aa8565b610261565b610102610136366004610ac5565b610283565b61014361053c565b005b610102610153366004610bb3565b6105a2565b61017f7f000000000000000000000000000000000000000000000000000000000000000081565b6040516001600160a01b03909116815260200161010c565b60025461017f906001600160a01b031681565b6000546001600160a01b031661017f565b6101026101c9366004610aa8565b61061d565b6101026101dc366004610c28565b610678565b6101436101ef366004610aa8565b610695565b610217610202366004610aa8565b60016020526000908152604090205460ff1681565b604051901515815260200161010c565b610143610235366004610c73565b61079a565b610143610248366004610aa8565b610853565b600061025a338484610283565b9392505050565b60025460009061027d90339084906001600160a01b0316610283565b92915050565b6000836001600160a01b0381163314806102ac57503360009081526001602052604090205460ff165b80610342575060405163e985e9c560e01b81526001600160a01b0382811660048301523360248301527f0000000000000000000000000000000000000000000000000000000000000000169063e985e9c590604401602060405180830381865afa15801561031e573d6000803e3d6000fd5b505050506040513d601f19601f820116820180604052508101906103429190610ca1565b8061035157506103518161091e565b6103ee5760405162461bcd60e51b815260206004820152605b60248201527f526576657273655265676973747261723a2043616c6c6572206973206e6f742060448201527f6120636f6e74726f6c6c6572206f7220617574686f726973656420627920616460648201527f6472657373206f7220746865206164647265737320697473656c660000000000608482015260a4015b60405180910390fd5b60006103f986610997565b604080517f91d1777781884d03a6757a803996e38de2a42967fb37eeaca72729271025a9e2602080830191909152818301849052825180830384018152606090920192839052815191012091925081906001600160a01b038916907f6ada868dd3058cf77a48a74489fd7963688e5464b2b0fa957ace976243270e9290600090a36040516305ef2c7f60e41b81527f91d1777781884d03a6757a803996e38de2a42967fb37eeaca72729271025a9e26004820152602481018390526001600160a01b0387811660448301528681166064830152600060848301527f00000000000000000000000000000000000000000000000000000000000000001690635ef2c7f09060a401600060405180830381600087803b15801561051957600080fd5b505af115801561052d573d6000803e3d6000fd5b50929998505050505050505050565b6000546001600160a01b031633146105965760405162461bcd60e51b815260206004820181905260248201527f4f776e61626c653a2063616c6c6572206973206e6f7420746865206f776e657260448201526064016103e5565b6105a060006109fd565b565b6000806105b0868686610283565b604051637737221360e01b81529091506001600160a01b038516906377372213906105e19084908790600401610cbe565b600060405180830381600087803b1580156105fb57600080fd5b505af115801561060f573d6000803e3d6000fd5b509298975050505050505050565b60007f91d1777781884d03a6757a803996e38de2a42967fb37eeaca72729271025a9e261064983610997565b604080516020810193909352820152606001604051602081830303815290604052805190602001209050919050565b60025460009061027d90339081906001600160a01b0316856105a2565b6000546001600160a01b031633146106ef5760405162461bcd60e51b815260206004820181905260248201527f4f776e61626c653a2063616c6c6572206973206e6f7420746865206f776e657260448201526064016103e5565b6001600160a01b03811661076b5760405162461bcd60e51b815260206004820152603060248201527f526576657273655265676973747261723a205265736f6c76657220616464726560448201527f7373206d757374206e6f7420626520300000000000000000000000000000000060648201526084016103e5565b6002805473ffffffffffffffffffffffffffffffffffffffff19166001600160a01b0392909216919091179055565b6000546001600160a01b031633146107f45760405162461bcd60e51b815260206004820181905260248201527f4f776e61626c653a2063616c6c6572206973206e6f7420746865206f776e657260448201526064016103e5565b6001600160a01b038216600081815260016020908152604091829020805460ff191685151590811790915591519182527f4c97694570a07277810af7e5669ffd5f6a2d6b74b6e9a274b8b870fd5114cf87910160405180910390a25050565b6000546001600160a01b031633146108ad5760405162461bcd60e51b815260206004820181905260248201527f4f776e61626c653a2063616c6c6572206973206e6f7420746865206f776e657260448201526064016103e5565b6001600160a01b0381166109125760405162461bcd60e51b815260206004820152602660248201527f4f776e61626c653a206e6577206f776e657220697320746865207a65726f206160448201526564647265737360d01b60648201526084016103e5565b61091b816109fd565b50565b6000816001600160a01b0316638da5cb5b6040518163ffffffff1660e01b8152600401602060405180830381865afa92505050801561097a575060408051601f3d908101601f1916820190925261097791810190610d1b565b60015b61098657506000919050565b6001600160a01b0316331492915050565b600060285b80156109f157600019016f181899199a1a9b1b9c1cb0b131b232b360811b600f84161a8153601090920491600019016f181899199a1a9b1b9c1cb0b131b232b360811b600f84161a815360108304925061099c565b50506028600020919050565b600080546001600160a01b0383811673ffffffffffffffffffffffffffffffffffffffff19831681178455604051919092169283917f8be0079c531659141344cd1fd0a4f28419497f9722a3daafe3b4186f6b6457e09190a35050565b6001600160a01b038116811461091b57600080fd5b60008060408385031215610a8257600080fd5b8235610a8d81610a5a565b91506020830135610a9d81610a5a565b809150509250929050565b600060208284031215610aba57600080fd5b813561025a81610a5a565b600080600060608486031215610ada57600080fd5b8335610ae581610a5a565b92506020840135610af581610a5a565b91506040840135610b0581610a5a565b809150509250925092565b634e487b7160e01b600052604160045260246000fd5b600082601f830112610b3757600080fd5b813567ffffffffffffffff80821115610b5257610b52610b10565b604051601f8301601f19908116603f01168101908282118183101715610b7a57610b7a610b10565b81604052838152866020858801011115610b9357600080fd5b836020870160208301376000602085830101528094505050505092915050565b60008060008060808587031215610bc957600080fd5b8435610bd481610a5a565b93506020850135610be481610a5a565b92506040850135610bf481610a5a565b9150606085013567ffffffffffffffff811115610c1057600080fd5b610c1c87828801610b26565b91505092959194509250565b600060208284031215610c3a57600080fd5b813567ffffffffffffffff811115610c5157600080fd5b610c5d84828501610b26565b949350505050565b801515811461091b57600080fd5b60008060408385031215610c8657600080fd5b8235610c9181610a5a565b91506020830135610a9d81610c65565b600060208284031215610cb357600080fd5b815161025a81610c65565b82815260006020604081840152835180604085015260005b81811015610cf257858101830151858201606001528201610cd6565b81811115610d04576000606083870101525b50601f01601f191692909201606001949350505050565b600060208284031215610d2d57600080fd5b815161025a81610a5a56fea26469706673582212201684a48ce309207c1e1e13e026d6f12be33577fc1b880240daf3ef9b09804d1b64736f6c634300080d00331ffa5ff8aa60d5982bd5d42ffd70a799ffb1ea4f2e7bb8c4ed2a7983902ac35d329539a1d23af1810c48a07fe7fc66a3b34fbc8b37e9b3cdb97bb88ceab7e4bfdec08c9dbbdd0890e300eb5062089b2d4b1c40e3673bbccb5423f7b37dcf9a9c",
  "devdoc": {
    "author": "Gilgames <gilgames@kuname.domains>",
    "kind": "dev",
    "methods": {},
    "title": "KNS Deployer",
    "version": 1
  },
  "userdoc": {
    "kind": "user",
    "methods": {},
    "version": 1
  },
  "storageLayout": {
    "storage": [
      {
        "astId": 6864,
        "contract": "src/KNSDeployer.sol:KNSDeployer",
        "label": "registry",
        "offset": 0,
        "slot": "0",
        "type": "t_contract(KNSRegistry)9340"
      },
      {
        "astId": 6867,
        "contract": "src/KNSDeployer.sol:KNSDeployer",
        "label": "registrar",
        "offset": 0,
        "slot": "1",
        "type": "t_contract(KNSRegistrar)8460"
      },
      {
        "astId": 6870,
        "contract": "src/KNSDeployer.sol:KNSDeployer",
        "label": "reverseRegistrar",
        "offset": 0,
        "slot": "2",
        "type": "t_contract(KNSReverseRegistrar)9682"
      },
      {
        "astId": 6873,
        "contract": "src/KNSDeployer.sol:KNSDeployer",
        "label": "publicResolver",
        "offset": 0,
        "slot": "3",
        "type": "t_contract(KNSPublicResolver)8208"
      },
      {
        "astId": 6876,
        "contract": "src/KNSDeployer.sol:KNSDeployer",
        "label": "namehashDB",
        "offset": 0,
        "slot": "4",
        "type": "t_contract(NamehashDB)10107"
      }
    ],
    "types": {
      "t_contract(KNSPublicResolver)8208": {
        "encoding": "inplace",
        "label": "contract KNSPublicResolver",
        "numberOfBytes": "20"
      },
      "t_contract(KNSRegistrar)8460": {
        "encoding": "inplace",
        "label": "contract KNSRegistrar",
        "numberOfBytes": "20"
      },
      "t_contract(KNSRegistry)9340": {
        "encoding": "inplace",
        "label": "contract KNSRegistry",
        "numberOfBytes": "20"
      },
      "t_contract(KNSReverseRegistrar)9682": {
        "encoding": "inplace",
        "label": "contract KNSReverseRegistrar",
        "numberOfBytes": "20"
      },
      "t_contract(NamehashDB)10107": {
        "encoding": "inplace",
        "label": "contract NamehashDB",
        "numberOfBytes": "20"
      }
    }
  }
}