{
  "address": "0xe423b964992B4E19aFc09fD44fE5460D8835D093",
  "abi": [
    {
      "inputs": [],
      "stateMutability": "nonpayable",
      "type": "constructor"
    },
    {
      "inputs": [],
      "name": "ADDR_LABEL",
      "outputs": [
        {
          "internalType": "bytes32",
          "name": "",
          "type": "bytes32"
        }
      ],
      "stateMutability": "view",
      "type": "function"
    },
    {
      "inputs": [],
      "name": "RESOLVER_LABEL",
      "outputs": [
        {
          "internalType": "bytes32",
          "name": "",
          "type": "bytes32"
        }
      ],
      "stateMutability": "view",
      "type": "function"
    },
    {
      "inputs": [],
      "name": "REVERSE_REGISTRAR_LABEL",
      "outputs": [
        {
          "internalType": "bytes32",
          "name": "",
          "type": "bytes32"
        }
      ],
      "stateMutability": "view",
      "type": "function"
    },
    {
      "inputs": [],
      "name": "TLD_LABEL",
      "outputs": [
        {
          "internalType": "bytes32",
          "name": "",
          "type": "bytes32"
        }
      ],
      "stateMutability": "view",
      "type": "function"
    },
    {
      "inputs": [],
      "name": "fifoRegistrarController",
      "outputs": [
        {
          "internalType": "contract FIFORegistrarController",
          "name": "",
          "type": "address"
        }
      ],
      "stateMutability": "view",
      "type": "function"
    },
    {
      "inputs": [
        {
          "internalType": "bytes32",
          "name": "node",
          "type": "bytes32"
        },
        {
          "internalType": "bytes32",
          "name": "label",
          "type": "bytes32"
        }
      ],
      "name": "namehash",
      "outputs": [
        {
          "internalType": "bytes32",
          "name": "",
          "type": "bytes32"
        }
      ],
      "stateMutability": "pure",
      "type": "function"
    },
    {
      "inputs": [],
      "name": "namehashDB",
      "outputs": [
        {
          "internalType": "contract NamehashDB",
          "name": "",
          "type": "address"
        }
      ],
      "stateMutability": "view",
      "type": "function"
    },
    {
      "inputs": [],
      "name": "publicResolver",
      "outputs": [
        {
          "internalType": "contract KNSPublicResolver",
          "name": "",
          "type": "address"
        }
      ],
      "stateMutability": "view",
      "type": "function"
    },
    {
      "inputs": [],
      "name": "registrar",
      "outputs": [
        {
          "internalType": "contract KNSRegistrar",
          "name": "",
          "type": "address"
        }
      ],
      "stateMutability": "view",
      "type": "function"
    },
    {
      "inputs": [],
      "name": "registry",
      "outputs": [
        {
          "internalType": "contract KNSRegistry",
          "name": "",
          "type": "address"
        }
      ],
      "stateMutability": "view",
      "type": "function"
    },
    {
      "inputs": [],
      "name": "reverseRegistrar",
      "outputs": [
        {
          "internalType": "contract KNSReverseRegistrar",
          "name": "",
          "type": "address"
        }
      ],
      "stateMutability": "view",
      "type": "function"
    }
  ],
  "transactionHash": "0x4d2d9a7538a2766e530084c735bdd04ef4b4fc26e42bbab62b4c0d866a05bbdd",
  "args": [],
  "numDeployments": 1,
  "solcInputHash": "7883dbc1a76445e721d6847459b742d0",
  "bytecode": "0x60806040523480156200001157600080fd5b50604051620000209062000aee565b604051809103906000f0801580156200003d573d6000803e3d6000fd5b50600080546001600160a01b0319166001600160a01b039290921691821790556040516200006b9062000afc565b6001600160a01b039091168152602001604051809103906000f08015801562000098573d6000803e3d6000fd5b50600380546001600160a01b0319166001600160a01b039290921691909117905560408051600060208083018290526000805160206200852783398151915283850152835180840385018152606090930190935281519190920120600080546040516306ab592360e01b815260048101929092526000805160206200852783398151915260248301523060448301529192506001600160a01b03909116906306ab5923906064016020604051808303816000875af11580156200015f573d6000803e3d6000fd5b505050506040513d601f19601f8201168201806040525081019062000185919062000b42565b50600054600354604051630c4b7b8560e11b8152600481018490526001600160a01b039182166024820152911690631896f70a90604401600060405180830381600087803b158015620001d757600080fd5b505af1158015620001ec573d6000803e3d6000fd5b505060035460405162d5fa2b60e81b8152600481018590526001600160a01b0390911660248201819052925063d5fa2b009150604401600060405180830381600087803b1580156200023d57600080fd5b505af115801562000252573d6000803e3d6000fd5b50505050604051620002649062000b0a565b604051809103906000f08015801562000281573d6000803e3d6000fd5b50600480546001600160a01b0319166001600160a01b039283169081179091556000805460408051602080820194909452600080516020620085078339815191528183015281518082038301815260609091019091528051920191909120921691604051620002f09062000b18565b6001600160a01b0393841681529290911660208301526040820152606001604051809103906000f0801580156200032b573d6000803e3d6000fd5b50600180546001600160a01b0319166001600160a01b03928316908117909155600080546040516306ab592360e01b8152600481019290925260008051602062008507833981519152602483015260448201929092529116906306ab5923906064016020604051808303816000875af1158015620003ad573d6000803e3d6000fd5b505050506040513d601f19601f82011682018060405250810190620003d3919062000b42565b506000546003546040516001600160a01b039283169290911690620003f89062000b26565b6001600160a01b03928316815291166020820152604001604051809103906000f0801580156200042c573d6000803e3d6000fd5b50600280546001600160a01b0319166001600160a01b039283161790556001546040519116906200045d9062000b34565b6001600160a01b039091168152602001604051809103906000f0801580156200048a573d6000803e3d6000fd5b50600580546001600160a01b0319166001600160a01b0392831690811790915560015460405163a7fc7a0760e01b815260048101929092529091169063a7fc7a0790602401600060405180830381600087803b158015620004ea57600080fd5b505af1158015620004ff573d6000803e3d6000fd5b5050600080546040516306ab592360e01b815260048101929092526000805160206200854783398151915260248301523060448301526001600160a01b031692506306ab592391506064016020604051808303816000875af11580156200056a573d6000803e3d6000fd5b505050506040513d601f19601f8201168201806040525081019062000590919062000b42565b50600080546001600160a01b0316906306ab592390620005e69060008051602062008547833981519152604080516020808201949094528082019290925280518083038201815260609092019052805191012090565b60025460405160e084901b6001600160e01b031916815260048101929092527fe5e14487b78f85faa6e1808e89246cf57dd34831548ff2e6097380d98db2504a60248301526001600160a01b031660448201526064016020604051808303816000875af11580156200065c573d6000803e3d6000fd5b505050506040513d601f19601f8201168201806040525081019062000682919062000b42565b50600080546040516306ab592360e01b815260048101929092526000805160206200852783398151915260248301523360448301526001600160a01b0316906306ab5923906064016020604051808303816000875af1158015620006ea573d6000803e3d6000fd5b505050506040513d601f19601f8201168201806040525081019062000710919062000b42565b50600080546040516306ab592360e01b815260048101929092526000805160206200854783398151915260248301523360448301526001600160a01b0316906306ab5923906064016020604051808303816000875af115801562000778573d6000803e3d6000fd5b505050506040513d601f19601f820116820180604052508101906200079e919062000b42565b5060008054604051635b0fc9c360e01b815260048101929092523360248301526001600160a01b031690635b0fc9c390604401600060405180830381600087803b158015620007ec57600080fd5b505af115801562000801573d6000803e3d6000fd5b505060015460405163f2fde38b60e01b81523360048201526001600160a01b03909116925063f2fde38b9150602401600060405180830381600087803b1580156200084b57600080fd5b505af115801562000860573d6000803e3d6000fd5b505060025460405163f2fde38b60e01b81523360048201526001600160a01b03909116925063f2fde38b9150602401600060405180830381600087803b158015620008aa57600080fd5b505af1158015620008bf573d6000803e3d6000fd5b50506004805460408051639d105a2560e01b8152600093810193909352602483015260036044830152626b636360e81b60648301526001600160a01b03169250639d105a259150608401600060405180830381600087803b1580156200092457600080fd5b505af115801562000939573d6000803e3d6000fd5b50506004805460408051639d105a2560e01b8152600093810193909352602483015260086044830152673932b9b7b63b32b960c11b60648301526001600160a01b03169250639d105a259150608401600060405180830381600087803b158015620009a357600080fd5b505af1158015620009b8573d6000803e3d6000fd5b50506004805460408051639d105a2560e01b8152600093810193909352602483015260076044830152667265766572736560c81b60648301526001600160a01b03169250639d105a259150608401600060405180830381600087803b15801562000a2157600080fd5b505af115801562000a36573d6000803e3d6000fd5b505060048054604080516000602080830191909152667265766572736560c81b828401528251808303840181526060830180855281519190920120639d105a2560e01b9091526064820152608481019190915260a48101929092526330b2323960e11b60c48301526001600160a01b03169250639d105a25915060e401600060405180830381600087803b15801562000ace57600080fd5b505af115801562000ae3573d6000803e3d6000fd5b505050505062000b5c565b6127248062000e0583390190565b61268a806200352983390190565b6105c98062005bb383390190565b610c70806200617c83390190565b610ff68062006dec83390190565b6107258062007de283390190565b60006020828403121562000b5557600080fd5b5051919050565b6102998062000b6c6000396000f3fe608060405234801561001057600080fd5b50600436106100c95760003560e01c80637b103999116100815780639368678f1161005b5780639368678f146101e0578063d1131c7214610207578063f82561211461022e57600080fd5b80637b103999146101935780637d70c659146101a657806380869853146101cd57600080fd5b80632b20e397116100b25780632b20e397146101465780632eb8221a146101595780635ecb25021461016c57600080fd5b80631d9273c7146100ce5780631f0fca471461011b575b600080fd5b6101086100dc366004610241565b604080516020808201949094528082019290925280518083038201815260609092019052805191012090565b6040519081526020015b60405180910390f35b60055461012e906001600160a01b031681565b6040516001600160a01b039091168152602001610112565b60015461012e906001600160a01b031681565b60045461012e906001600160a01b031681565b6101087f329539a1d23af1810c48a07fe7fc66a3b34fbc8b37e9b3cdb97bb88ceab7e4bf81565b60005461012e906001600160a01b031681565b6101087fdec08c9dbbdd0890e300eb5062089b2d4b1c40e3673bbccb5423f7b37dcf9a9c81565b60025461012e906001600160a01b031681565b6101087fe5e14487b78f85faa6e1808e89246cf57dd34831548ff2e6097380d98db2504a81565b6101087f1ffa5ff8aa60d5982bd5d42ffd70a799ffb1ea4f2e7bb8c4ed2a7983902ac35d81565b60035461012e906001600160a01b031681565b6000806040838503121561025457600080fd5b5050803592602090910135915056fea2646970667358221220731e485ad287133b26b5debc2a9902d99cc5a796fbe97cea8f0f3c9539a4d4fe64736f6c634300080d003360806040523480156200001157600080fd5b50604080518082018252601881527f4b4343204e616d65205365727669636520446f6d61696e73000000000000000060208083019182528351808501909452600484526312d394d160e21b908401528151919291620000739160009162000545565b5080516200008990600190602084019062000545565b505050620000a8620000a0620000ae60201b60201c565b6000620000b2565b6200069e565b3390565b6001600160a01b0382166200010e5760405162461bcd60e51b815260206004820181905260248201527f4552433732313a206d696e7420746f20746865207a65726f206164647265737360448201526064015b60405180910390fd5b6000818152600260205260409020546001600160a01b031615620001755760405162461bcd60e51b815260206004820152601c60248201527f4552433732313a20746f6b656e20616c7265616479206d696e74656400000000604482015260640162000105565b62000183600083836200020c565b6001600160a01b0382166000908152600360205260408120805460019290620001ae90849062000601565b909155505060008181526002602052604080822080546001600160a01b0319166001600160a01b03861690811790915590518392907fddf252ad1be2c89b69c2b068fc378daa952ba7f163c4a11628f55a4df523b3ef908290a45050565b620002248383836200022960201b62000e2f1760201c565b505050565b620002418383836200022460201b620007d71760201c565b6001600160a01b0383166200029f576200029981600880546000838152600960205260408120829055600182018355919091527ff3f7a9fe364faab93b216da50a3214154f22a0a2b415b23a84c8169e8b636ee30155565b620002c5565b816001600160a01b0316836001600160a01b031614620002c557620002c5838262000305565b6001600160a01b038216620002df576200022481620003b2565b826001600160a01b0316826001600160a01b03161462000224576200022482826200046c565b600060016200031f84620004bd60201b62000be61760201c565b6200032b91906200061c565b6000838152600760205260409020549091508082146200037f576001600160a01b03841660009081526006602090815260408083208584528252808320548484528184208190558352600790915290208190555b5060009182526007602090815260408084208490556001600160a01b039094168352600681528383209183525290812055565b600854600090620003c6906001906200061c565b60008381526009602052604081205460088054939450909284908110620003f157620003f162000636565b90600052602060002001549050806008838154811062000415576200041562000636565b60009182526020808320909101929092558281526009909152604080822084905585825281205560088054806200045057620004506200064c565b6001900381819060005260206000200160009055905550505050565b60006200048483620004bd60201b62000be61760201c565b6001600160a01b039093166000908152600660209081526040808320868452825280832085905593825260079052919091209190915550565b60006001600160a01b038216620005295760405162461bcd60e51b815260206004820152602960248201527f4552433732313a2061646472657373207a65726f206973206e6f7420612076616044820152683634b21037bbb732b960b91b606482015260840162000105565b506001600160a01b031660009081526003602052604090205490565b828054620005539062000662565b90600052602060002090601f016020900481019282620005775760008555620005c2565b82601f106200059257805160ff1916838001178555620005c2565b82800160010185558215620005c2579182015b82811115620005c2578251825591602001919060010190620005a5565b50620005d0929150620005d4565b5090565b5b80821115620005d05760008155600101620005d5565b634e487b7160e01b600052601160045260246000fd5b60008219821115620006175762000617620005eb565b500190565b600082821015620006315762000631620005eb565b500390565b634e487b7160e01b600052603260045260246000fd5b634e487b7160e01b600052603160045260246000fd5b600181811c908216806200067757607f821691505b6020821081036200069857634e487b7160e01b600052602260045260246000fd5b50919050565b61207680620006ae6000396000f3fe608060405234801561001057600080fd5b50600436106101ae5760003560e01c806342842e0e116100ee57806395d89b4111610097578063c87b56dd11610071578063c87b56dd146103cb578063cf408823146103de578063e985e9c5146103f1578063f79fe5381461042d57600080fd5b806395d89b411461039d578063a22cb465146103a5578063b88d4fde146103b857600080fd5b80635ef2c7f0116100c85780635ef2c7f0146103645780636352211e1461037757806370a082311461038a57600080fd5b806342842e0e1461032b5780634f6ccce71461033e5780635b0fc9c31461035157600080fd5b8063095ea7b31161015b57806318160ddd1161013557806318160ddd146102ea5780631896f70a146102f257806323b872dd146103055780632f745c591461031857600080fd5b8063095ea7b31461027857806314ab90381461028d57806316a25cbd146102a057600080fd5b806306ab59231161018c57806306ab59231461022f57806306fdde0314610250578063081812fc1461026557600080fd5b80630178b8bf146101b357806301ffc9a7146101f957806302571be31461021c575b600080fd5b6101dc6101c1366004611ac7565b6000908152600a60205260409020546001600160a01b031690565b6040516001600160a01b0390911681526020015b60405180910390f35b61020c610207366004611af9565b610440565b60405190151581526020016101f0565b6101dc61022a366004611ac7565b610451565b61024261023d366004611b32565b6104a6565b6040519081526020016101f0565b61025861059b565b6040516101f09190611bbf565b6101dc610273366004611ac7565b61062d565b61028b610286366004611bd2565b6106c7565b005b61028b61029b366004611c14565b6107dc565b6102d16102ae366004611ac7565b6000908152600a6020526040902054600160a01b900467ffffffffffffffff1690565b60405167ffffffffffffffff90911681526020016101f0565b600854610242565b61028b610300366004611c40565b61087d565b61028b610313366004611c63565b610910565b610242610326366004611bd2565b61098a565b61028b610339366004611c63565b610a32565b61024261034c366004611ac7565b610a4d565b61028b61035f366004611c40565b610af1565b61028b610372366004611c9f565b610b4d565b6101dc610385366004611ac7565b610b6f565b610242610398366004611cf6565b610be6565b610258610c6c565b61028b6103b3366004611d11565b610c7b565b61028b6103c6366004611d63565b610c8a565b6102586103d9366004611ac7565b610d06565b61028b6103ec366004611e3f565b610dfb565b61020c6103ff366004611e8c565b6001600160a01b03918216600090815260056020908152604080832093909416825291909152205460ff1690565b61020c61043b366004611ac7565b610e10565b600061044b82610ee7565b92915050565b60008181526002602052604081205482906001600160a01b03166104785750600092915050565b600061048382610b6f565b9050306001600160a01b0382160361049f575060009392505050565b9392505050565b6000836104b4335b82610f0c565b6104d0576040516282b42960e81b815260040160405180910390fd5b60408051602080820188905281830187905282518083038401815260609092018352815191810191909120600081815260029092529190205481906001600160a01b0316610527576105228582611003565b610551565b6001600160a01b03851661053e5761052281611151565b61055161054a83610451565b86836111f8565b6040516001600160a01b0386168152869088907fce0457fe73731f824cc272376169235128c118b49d344817417c6d108d155e829060200160405180910390a35095945050505050565b6060600080546105aa90611eb6565b80601f01602080910402602001604051908101604052809291908181526020018280546105d690611eb6565b80156106235780601f106105f857610100808354040283529160200191610623565b820191906000526020600020905b81548152906001019060200180831161060657829003601f168201915b5050505050905090565b6000818152600260205260408120546001600160a01b03166106ab5760405162461bcd60e51b815260206004820152602c60248201527f4552433732313a20617070726f76656420717565727920666f72206e6f6e657860448201526b34b9ba32b73a103a37b5b2b760a11b60648201526084015b60405180910390fd5b506000908152600460205260409020546001600160a01b031690565b60006106d282610b6f565b9050806001600160a01b0316836001600160a01b03160361073f5760405162461bcd60e51b815260206004820152602160248201527f4552433732313a20617070726f76616c20746f2063757272656e74206f776e656044820152603960f91b60648201526084016106a2565b336001600160a01b038216148061075b575061075b81336103ff565b6107cd5760405162461bcd60e51b815260206004820152603860248201527f4552433732313a20617070726f76652063616c6c6572206973206e6f74206f7760448201527f6e6572206e6f7220617070726f76656420666f7220616c6c000000000000000060648201526084016106a2565b6107d7838361139f565b505050565b816107e6336104ae565b610802576040516282b42960e81b815260040160405180910390fd5b60405167ffffffffffffffff8316815283907f1d4f9bbfc9cab89d66e1a1562f2233ccbf1308cb4f63de2ead5787adddb8fa689060200160405180910390a2506000918252600a6020526040909120805467ffffffffffffffff909216600160a01b0267ffffffffffffffff60a01b19909216919091179055565b81610887336104ae565b6108a3576040516282b42960e81b815260040160405180910390fd5b6040516001600160a01b038316815283907f335721b01866dc23fbee8b6b2c7b1e14d6f05c28cd35a2c934239f94095602a09060200160405180910390a2506000918252600a602052604090912080546001600160a01b0319166001600160a01b03909216919091179055565b610919336104ae565b61097f5760405162461bcd60e51b815260206004820152603160248201527f4552433732313a207472616e736665722063616c6c6572206973206e6f74206f6044820152701ddb995c881b9bdc88185c1c1c9bdd9959607a1b60648201526084016106a2565b6107d78383836111f8565b600061099583610be6565b8210610a095760405162461bcd60e51b815260206004820152602b60248201527f455243373231456e756d657261626c653a206f776e657220696e646578206f7560448201527f74206f6620626f756e647300000000000000000000000000000000000000000060648201526084016106a2565b506001600160a01b03919091166000908152600660209081526040808320938352929052205490565b6107d783838360405180602001604052806000815250610c8a565b6000610a5860085490565b8210610acc5760405162461bcd60e51b815260206004820152602c60248201527f455243373231456e756d657261626c653a20676c6f62616c20696e646578206f60448201527f7574206f6620626f756e6473000000000000000000000000000000000000000060648201526084016106a2565b60088281548110610adf57610adf611ef0565b90600052602060002001549050919050565b81610afb336104ae565b610b17576040516282b42960e81b815260040160405180910390fd5b826001600160a01b038316610b3457610b2f81611151565b610b47565b610b47610b4085610451565b84836111f8565b50505050565b6000610b5a8686866104a6565b9050610b6781848461140d565b505050505050565b6000818152600260205260408120546001600160a01b03168061044b5760405162461bcd60e51b815260206004820152602960248201527f4552433732313a206f776e657220717565727920666f72206e6f6e657869737460448201526832b73a103a37b5b2b760b91b60648201526084016106a2565b60006001600160a01b038216610c505760405162461bcd60e51b815260206004820152602960248201527f4552433732313a2061646472657373207a65726f206973206e6f7420612076616044820152683634b21037bbb732b960b91b60648201526084016106a2565b506001600160a01b031660009081526003602052604090205490565b6060600180546105aa90611eb6565b610c8633838361152b565b5050565b610c943383610f0c565b610cfa5760405162461bcd60e51b815260206004820152603160248201527f4552433732313a207472616e736665722063616c6c6572206973206e6f74206f6044820152701ddb995c881b9bdc88185c1c1c9bdd9959607a1b60648201526084016106a2565b610b47848484846115f9565b6000818152600260205260409020546060906001600160a01b0316610d935760405162461bcd60e51b815260206004820152602f60248201527f4552433732314d657461646174613a2055524920717565727920666f72206e6f60448201527f6e6578697374656e7420746f6b656e000000000000000000000000000000000060648201526084016106a2565b6000610daa60408051602081019091526000815290565b90506000815111610dca576040518060200160405280600081525061049f565b80610dd484611677565b604051602001610de5929190611f06565b6040516020818303038152906040529392505050565b610e058484610af1565b610b4784838361140d565b6000818152600260205260408120546001600160a01b0316151561044b565b6001600160a01b038316610e8a57610e8581600880546000838152600960205260408120829055600182018355919091527ff3f7a9fe364faab93b216da50a3214154f22a0a2b415b23a84c8169e8b636ee30155565b610ead565b816001600160a01b0316836001600160a01b031614610ead57610ead8382611790565b6001600160a01b038216610ec4576107d78161182d565b826001600160a01b0316826001600160a01b0316146107d7576107d782826118dc565b60006001600160e01b0319821663780e9d6360e01b148061044b575061044b82611920565b6000818152600260205260408120546001600160a01b0316610f855760405162461bcd60e51b815260206004820152602c60248201527f4552433732313a206f70657261746f7220717565727920666f72206e6f6e657860448201526b34b9ba32b73a103a37b5b2b760a11b60648201526084016106a2565b6000610f9083610b6f565b9050806001600160a01b0316846001600160a01b03161480610fd757506001600160a01b0380821660009081526005602090815260408083209388168352929052205460ff165b80610ffb5750836001600160a01b0316610ff08461062d565b6001600160a01b0316145b949350505050565b6001600160a01b0382166110595760405162461bcd60e51b815260206004820181905260248201527f4552433732313a206d696e7420746f20746865207a65726f206164647265737360448201526064016106a2565b6000818152600260205260409020546001600160a01b0316156110be5760405162461bcd60e51b815260206004820152601c60248201527f4552433732313a20746f6b656e20616c7265616479206d696e7465640000000060448201526064016106a2565b6110ca60008383611970565b6001600160a01b03821660009081526003602052604081208054600192906110f3908490611f4b565b909155505060008181526002602052604080822080546001600160a01b0319166001600160a01b03861690811790915590518392907fddf252ad1be2c89b69c2b068fc378daa952ba7f163c4a11628f55a4df523b3ef908290a45050565b600061115c82610b6f565b905061116a81600084611970565b61117560008361139f565b6001600160a01b038116600090815260036020526040812080546001929061119e908490611f63565b909155505060008281526002602052604080822080546001600160a01b0319169055518391906001600160a01b038416907fddf252ad1be2c89b69c2b068fc378daa952ba7f163c4a11628f55a4df523b3ef908390a45050565b826001600160a01b031661120b82610b6f565b6001600160a01b03161461126f5760405162461bcd60e51b815260206004820152602560248201527f4552433732313a207472616e736665722066726f6d20696e636f72726563742060448201526437bbb732b960d91b60648201526084016106a2565b6001600160a01b0382166112d15760405162461bcd60e51b8152602060048201526024808201527f4552433732313a207472616e7366657220746f20746865207a65726f206164646044820152637265737360e01b60648201526084016106a2565b6112dc838383611970565b6112e760008261139f565b6001600160a01b0383166000908152600360205260408120805460019290611310908490611f63565b90915550506001600160a01b038216600090815260036020526040812080546001929061133e908490611f4b565b909155505060008181526002602052604080822080546001600160a01b0319166001600160a01b0386811691821790925591518493918716917fddf252ad1be2c89b69c2b068fc378daa952ba7f163c4a11628f55a4df523b3ef91a4505050565b600081815260046020526040902080546001600160a01b0319166001600160a01b03841690811790915581906113d482610b6f565b6001600160a01b03167f8c5be1e5ebec7d5bd14f71427d1e84f3dd0314c0f7b2291e5b200ac8c7c3b92560405160405180910390a45050565b6000838152600a60205260409020546001600160a01b0383811691161461148f576000838152600a602090815260409182902080546001600160a01b0319166001600160a01b038616908117909155915191825284917f335721b01866dc23fbee8b6b2c7b1e14d6f05c28cd35a2c934239f94095602a0910160405180910390a25b6000838152600a602052604090205467ffffffffffffffff828116600160a01b90920416146107d7576000838152600a6020908152604091829020805467ffffffffffffffff60a01b1916600160a01b67ffffffffffffffff861690810291909117909155915191825284917f1d4f9bbfc9cab89d66e1a1562f2233ccbf1308cb4f63de2ead5787adddb8fa68910160405180910390a2505050565b816001600160a01b0316836001600160a01b03160361158c5760405162461bcd60e51b815260206004820152601960248201527f4552433732313a20617070726f766520746f2063616c6c65720000000000000060448201526064016106a2565b6001600160a01b03838116600081815260056020908152604080832094871680845294825291829020805460ff191686151590811790915591519182527f17307eab39ab6107e8899845ad3d59bd9653f200f220920489ca2b5937696c31910160405180910390a3505050565b6116048484846111f8565b6116108484848461197b565b610b475760405162461bcd60e51b815260206004820152603260248201527f4552433732313a207472616e7366657220746f206e6f6e20455243373231526560448201527131b2b4bb32b91034b6b83632b6b2b73a32b960711b60648201526084016106a2565b60608160000361169e5750506040805180820190915260018152600360fc1b602082015290565b8160005b81156116c857806116b281611f7a565b91506116c19050600a83611fa9565b91506116a2565b60008167ffffffffffffffff8111156116e3576116e3611d4d565b6040519080825280601f01601f19166020018201604052801561170d576020820181803683370190505b5090505b8415610ffb57611722600183611f63565b915061172f600a86611fbd565b61173a906030611f4b565b60f81b81838151811061174f5761174f611ef0565b60200101907effffffffffffffffffffffffffffffffffffffffffffffffffffffffffffff1916908160001a905350611789600a86611fa9565b9450611711565b6000600161179d84610be6565b6117a79190611f63565b6000838152600760205260409020549091508082146117fa576001600160a01b03841660009081526006602090815260408083208584528252808320548484528184208190558352600790915290208190555b5060009182526007602090815260408084208490556001600160a01b039094168352600681528383209183525290812055565b60085460009061183f90600190611f63565b6000838152600960205260408120546008805493945090928490811061186757611867611ef0565b90600052602060002001549050806008838154811061188857611888611ef0565b60009182526020808320909101929092558281526009909152604080822084905585825281205560088054806118c0576118c0611fd1565b6001900381819060005260206000200160009055905550505050565b60006118e783610be6565b6001600160a01b039093166000908152600660209081526040808320868452825280832085905593825260079052919091209190915550565b60006001600160e01b031982166380ac58cd60e01b148061195157506001600160e01b03198216635b5e139f60e01b145b8061044b57506301ffc9a760e01b6001600160e01b031983161461044b565b6107d7838383610e2f565b60006001600160a01b0384163b15611abc57604051630a85bd0160e11b81526001600160a01b0385169063150b7a02906119bf903390899088908890600401611fe7565b6020604051808303816000875af19250505080156119fa575060408051601f3d908101601f191682019092526119f791810190612023565b60015b611aa2573d808015611a28576040519150601f19603f3d011682016040523d82523d6000602084013e611a2d565b606091505b508051600003611a9a5760405162461bcd60e51b815260206004820152603260248201527f4552433732313a207472616e7366657220746f206e6f6e20455243373231526560448201527131b2b4bb32b91034b6b83632b6b2b73a32b960711b60648201526084016106a2565b805181602001fd5b6001600160e01b031916630a85bd0160e11b149050610ffb565b506001949350505050565b600060208284031215611ad957600080fd5b5035919050565b6001600160e01b031981168114611af657600080fd5b50565b600060208284031215611b0b57600080fd5b813561049f81611ae0565b80356001600160a01b0381168114611b2d57600080fd5b919050565b600080600060608486031215611b4757600080fd5b8335925060208401359150611b5e60408501611b16565b90509250925092565b60005b83811015611b82578181015183820152602001611b6a565b83811115610b475750506000910152565b60008151808452611bab816020860160208601611b67565b601f01601f19169290920160200192915050565b60208152600061049f6020830184611b93565b60008060408385031215611be557600080fd5b611bee83611b16565b946020939093013593505050565b803567ffffffffffffffff81168114611b2d57600080fd5b60008060408385031215611c2757600080fd5b82359150611c3760208401611bfc565b90509250929050565b60008060408385031215611c5357600080fd5b82359150611c3760208401611b16565b600080600060608486031215611c7857600080fd5b611c8184611b16565b9250611c8f60208501611b16565b9150604084013590509250925092565b600080600080600060a08688031215611cb757600080fd5b8535945060208601359350611cce60408701611b16565b9250611cdc60608701611b16565b9150611cea60808701611bfc565b90509295509295909350565b600060208284031215611d0857600080fd5b61049f82611b16565b60008060408385031215611d2457600080fd5b611d2d83611b16565b915060208301358015158114611d4257600080fd5b809150509250929050565b634e487b7160e01b600052604160045260246000fd5b60008060008060808587031215611d7957600080fd5b611d8285611b16565b9350611d9060208601611b16565b925060408501359150606085013567ffffffffffffffff80821115611db457600080fd5b818701915087601f830112611dc857600080fd5b813581811115611dda57611dda611d4d565b604051601f8201601f19908116603f01168101908382118183101715611e0257611e02611d4d565b816040528281528a6020848701011115611e1b57600080fd5b82602086016020830137600060208483010152809550505050505092959194509250565b60008060008060808587031215611e5557600080fd5b84359350611e6560208601611b16565b9250611e7360408601611b16565b9150611e8160608601611bfc565b905092959194509250565b60008060408385031215611e9f57600080fd5b611ea883611b16565b9150611c3760208401611b16565b600181811c90821680611eca57607f821691505b602082108103611eea57634e487b7160e01b600052602260045260246000fd5b50919050565b634e487b7160e01b600052603260045260246000fd5b60008351611f18818460208801611b67565b835190830190611f2c818360208801611b67565b01949350505050565b634e487b7160e01b600052601160045260246000fd5b60008219821115611f5e57611f5e611f35565b500190565b600082821015611f7557611f75611f35565b500390565b600060018201611f8c57611f8c611f35565b5060010190565b634e487b7160e01b600052601260045260246000fd5b600082611fb857611fb8611f93565b500490565b600082611fcc57611fcc611f93565b500690565b634e487b7160e01b600052603160045260246000fd5b60006001600160a01b038087168352808616602084015250836040830152608060608301526120196080830184611b93565b9695505050505050565b60006020828403121561203557600080fd5b815161049f81611ae056fea264697066735822122002f1f47ae7f08aff22c4fe62a60440d94b33f3ab457ca4aef713d98dfbbb6db064736f6c634300080d003360a06040523480156200001157600080fd5b506040516200268a3803806200268a833981016040819052620000349162000046565b6001600160a01b031660805262000078565b6000602082840312156200005957600080fd5b81516001600160a01b03811681146200007157600080fd5b9392505050565b6080516125f662000094600039600061147301526125f66000f3fe608060405234801561001057600080fd5b50600436106101ae5760003560e01c806377372213116100ee578063bc1c58d111610097578063d5fa2b0011610071578063d5fa2b0014610403578063e59d895d14610416578063e985e9c514610429578063f1cb7e061461046557600080fd5b8063bc1c58d1146103a0578063c8690233146103b3578063ce3decdc146103f057600080fd5b8063a8fa5682116100c8578063a8fa56821461035a578063ac9650d81461036d578063ad5780af1461038d57600080fd5b806377372213146103215780638b95dd7114610334578063a22cb4651461034757600080fd5b8063304e6ade1161015b57806359d1d43c1161013557806359d1d43c146102c85780635c98042b146102e8578063623195b0146102fb578063691f34311461030e57600080fd5b8063304e6ade146102625780633b3b57de146102755780634cbf6ba41461028857600080fd5b8063124a319c1161018c578063124a319c146102035780632203ab561461022e57806329cd62ea1461024f57600080fd5b806301ffc9a7146101b35780630af179d7146101db57806310f13a8c146101f0575b600080fd5b6101c66101c1366004611e0e565b610478565b60405190151581526020015b60405180910390f35b6101ee6101e9366004611e6b565b610489565b005b6101ee6101fe366004611eb7565b610677565b610216610211366004611f31565b610724565b6040516001600160a01b0390911681526020016101d2565b61024161023c366004611f5d565b61098c565b6040516101d2929190611fdb565b6101ee61025d366004611ff4565b610aa7565b6101ee610270366004611e6b565b610b27565b610216610283366004612020565b610b86565b6101c6610296366004611f5d565b600091825260066020908152604080842060048352818520548552825280842092845291905290205461ffff16151590565b6102db6102d6366004611e6b565b610bb8565b6040516101d29190612039565b6102db6102f6366004612020565b610c7d565b6101ee61030936600461204c565b610d1f565b6102db61031c366004612020565b610da0565b6101ee61032f366004611e6b565b610dbd565b6101ee6103423660046120b5565b610e1c565b6101ee61035536600461218e565b610ee6565b6102db6103683660046121cc565b610fd4565b61038061037b36600461220c565b611017565b6040516101d29190612281565b6101ee61039b366004612020565b611132565b6102db6103ae366004612020565b611193565b6103db6103c1366004612020565b600090815260096020526040902080546001909101549091565b604080519283526020830191909152016101d2565b6101ee6103fe366004611e6b565b6111b0565b6101ee6104113660046122e3565b6112bc565b6101ee610424366004612308565b6112e3565b6101c661043736600461233d565b6001600160a01b039182166000908152600b6020908152604080832093909416825291909152205460ff1690565b6102db610473366004611f5d565b61137d565b60006104838261142b565b92915050565b8261049381611450565b61049c57600080fd5b6000806060806000806104e960008a8a8080601f016020809104026020016040519081016040528093929190818152602001838380828437600092019190915250929392505061151e9050565b90505b80515160208201511015610612578561ffff1660000361055157806040015195506105168161157f565b935083604051602001610529919061236b565b60405160208183030381529060405280519060200120915061054a816115a0565b9250610604565b600061055c8261157f565b9050816040015161ffff168761ffff16141580610580575061057e85826115bc565b155b15610602576105db8b86898d8d8080601f016020809104026020016040519081016040528093929190818152602001838380828437600092019190915250505060208801518c91506105d390829061239d565b8a51156115da565b8160400151965081602001519550809450848051906020012092506105ff826115a0565b93505b505b61060d8161181d565b6104ec565b5082511561066c5761066c8984878b8b8080601f0160208091040260200160405190810160405280939291908181526020018383808284376000920191909152508b925061066491508290508e61239d565b8851156115da565b505050505050505050565b8461068181611450565b61068a57600080fd5b8282600a600089815260200190815260200160002087876040516106af9291906123b4565b9081526040519081900360200190206106c9929091611ca7565b5084846040516106da9291906123b4565b6040518091039020867fd8c9334b1a9c2f9da342a0a2b32629c1a229b6445dad78947f674b44444a755087876040516107149291906123ed565b60405180910390a3505050505050565b60008281526007602090815260408083206001600160e01b0319851684529091528120546001600160a01b0316801561075e579050610483565b600061076985610b86565b90506001600160a01b03811661078457600092505050610483565b6040516301ffc9a760e01b602482015260009081906001600160a01b0384169060440160408051601f198184030181529181526020820180516001600160e01b03166301ffc9a760e01b179052516107dc919061236b565b600060405180830381855afa9150503d8060008114610817576040519150601f19603f3d011682016040523d82523d6000602084013e61081c565b606091505b509150915081158061082f575060208151105b80610871575080601f8151811061084857610848612401565b01602001517fff0000000000000000000000000000000000000000000000000000000000000016155b15610883576000945050505050610483565b6040516001600160e01b0319871660248201526001600160a01b0384169060440160408051601f198184030181529181526020820180516001600160e01b03166301ffc9a760e01b179052516108d9919061236b565b600060405180830381855afa9150503d8060008114610914576040519150601f19603f3d011682016040523d82523d6000602084013e610919565b606091505b50909250905081158061092d575060208151105b8061096f575080601f8151811061094657610946612401565b01602001517fff0000000000000000000000000000000000000000000000000000000000000016155b15610981576000945050505050610483565b509095945050505050565b600082815260208190526040812060609060015b848111610a8757808516158015906109d05750600081815260208390526040812080546109cc90612417565b9050115b15610a7f57808260008381526020019081526020016000208080546109f490612417565b80601f0160208091040260200160405190810160405280929190818152602001828054610a2090612417565b8015610a6d5780601f10610a4257610100808354040283529160200191610a6d565b820191906000526020600020905b815481529060010190602001808311610a5057829003601f168201915b50505050509050935093505050610aa0565b60011b6109a0565b5060006040518060200160405280600081525092509250505b9250929050565b82610ab181611450565b610aba57600080fd5b60408051808201825284815260208082018581526000888152600983528490209251835551600190920191909155815185815290810184905285917f1d6f5e03d3f63eb58751986629a5439baee5079ff04f345becb66e23eb154e4691015b60405180910390a250505050565b82610b3181611450565b610b3a57600080fd5b6000848152600260205260409020610b53908484611ca7565b50837fe379c1624ed7e714cc0937528a32359d69d5281337765313dba4e081b72d75788484604051610b199291906123ed565b600080610b9483603c61137d565b90508051600003610ba85750600092915050565b610bb181611905565b9392505050565b6060600a60008581526020019081526020016000208383604051610bdd9291906123b4565b90815260200160405180910390208054610bf690612417565b80601f0160208091040260200160405190810160405280929190818152602001828054610c2290612417565b8015610c6f5780601f10610c4457610100808354040283529160200191610c6f565b820191906000526020600020905b815481529060010190602001808311610c5257829003601f168201915b505050505090509392505050565b6000818152600360205260409020805460609190610c9a90612417565b80601f0160208091040260200160405190810160405280929190818152602001828054610cc690612417565b8015610d135780601f10610ce857610100808354040283529160200191610d13565b820191906000526020600020905b815481529060010190602001808311610cf657829003601f168201915b50505050509050919050565b83610d2981611450565b610d3257600080fd5b83610d3e60018261239d565b1615610d4957600080fd5b6000858152602081815260408083208784529091529020610d6b908484611ca7565b50604051849086907faa121bbeef5f32f5961a2a28966e769023910fc9479059ee3495d4c1a696efe390600090a35050505050565b6000818152600860205260409020805460609190610c9a90612417565b82610dc781611450565b610dd057600080fd5b6000848152600860205260409020610de9908484611ca7565b50837fb7d29e911041e8d9b843369e890bcb72c9388692ba48b65ac54e7214c4c348f78484604051610b199291906123ed565b82610e2681611450565b610e2f57600080fd5b837f65412581168e88a1e60c6459d7f44ae83ad0832e670826c05a4e2476b57af7528484604051610e61929190611fdb565b60405180910390a2603c8303610eb857837f52d7d861f09ab3d26239d492e8968629f95e9e318cf0b73bfddc441522a15fd2610e9c84611905565b6040516001600160a01b03909116815260200160405180910390a25b600084815260016020908152604080832086845282529091208351610edf92850190611d2b565b5050505050565b6001600160a01b0382163303610f685760405162461bcd60e51b815260206004820152603360248201527f5075626c69635265736f6c7665723a2063616e6e6f742073657420617070726f60448201527f76616c2073746174757320666f722073656c6600000000000000000000000000606482015260840160405180910390fd5b336000818152600b602090815260408083206001600160a01b03871680855290835292819020805460ff191686151590811790915590519081529192917f17307eab39ab6107e8899845ad3d59bd9653f200f220920489ca2b5937696c31910160405180910390a35050565b6000838152600560209081526040808320600483528184205484528252808320858452825280832061ffff851684529091529020805460609190610bf690612417565b60608167ffffffffffffffff8111156110325761103261209f565b60405190808252806020026020018201604052801561106557816020015b60608152602001906001900390816110505790505b50905060005b8281101561112b576000803086868581811061108957611089612401565b905060200281019061109b9190612451565b6040516110a99291906123b4565b600060405180830381855af49150503d80600081146110e4576040519150601f19603f3d011682016040523d82523d6000602084013e6110e9565b606091505b5091509150816110f857600080fd5b8084848151811061110b5761110b612401565b60200260200101819052505050808061112390612498565b91505061106b565b5092915050565b8061113c81611450565b61114557600080fd5b600082815260046020526040812080549161115f83612498565b909155505060405182907fb757169b8492ca2f1c6619d9d76ce22803035c3b1d5f6930dffe7b127c1a198390600090a25050565b6000818152600260205260409020805460609190610c9a90612417565b826111ba81611450565b6111c357600080fd5b600084815260036020526040812080546111dc90612417565b80601f016020809104026020016040519081016040528092919081815260200182805461120890612417565b80156112555780601f1061122a57610100808354040283529160200191611255565b820191906000526020600020905b81548152906001019060200180831161123857829003601f168201915b505050600088815260036020526040902092935061127892915086905085611ca7565b50847f8f15ed4b723ef428f250961da8315675b507046737e19319fc1a4d81bfe87f858286866040516112ad939291906124b1565b60405180910390a25050505050565b816112c681611450565b6112cf57600080fd5b6112de83603c6103428561192d565b505050565b826112ed81611450565b6112f657600080fd5b60008481526007602090815260408083206001600160e01b0319871680855290835292819020805473ffffffffffffffffffffffffffffffffffffffff19166001600160a01b038716908117909155905190815286917f7c69f06bea0bdef565b709e93a147836b0063ba2dd89f02d0b7e8d931e6a6daa910160405180910390a350505050565b600082815260016020908152604080832084845290915290208054606091906113a590612417565b80601f01602080910402602001604051908101604052809291908181526020018280546113d190612417565b801561141e5780601f106113f35761010080835404028352916020019161141e565b820191906000526020600020905b81548152906001019060200180831161140157829003601f168201915b5050505050905092915050565b60006001600160e01b03198216631674750f60e21b1480610483575061048382611966565b6040516302571be360e01b81526004810182905260009081906001600160a01b037f000000000000000000000000000000000000000000000000000000000000000016906302571be390602401602060405180830381865afa1580156114ba573d6000803e3d6000fd5b505050506040513d601f19601f820116820180604052508101906114de91906124e1565b90506001600160a01b038116331480610bb157506001600160a01b0381166000908152600b6020908152604080832033845290915290205460ff16610bb1565b61156c6040518060e001604052806060815260200160008152602001600061ffff168152602001600061ffff168152602001600063ffffffff16815260200160008152602001600081525090565b82815260c081018290526104838161181d565b6020810151815160609161048391611597908261198b565b845191906119ed565b60a081015160c08201516060916104839161159790829061239d565b600081518351148015610bb15750610bb18360008460008751611a64565b600087815260046020908152604082205488519189019190912090916116018787876119ed565b9050831561170a5760008a81526005602090815260408083208684528252808320858452825280832061ffff8c1684529091529020805461164190612417565b1590506116955760008a815260066020908152604080832086845282528083208584529091528120805461ffff1691611679836124fe565b91906101000a81548161ffff021916908361ffff160217905550505b60008a81526005602090815260408083208684528252808320858452825280832061ffff8c16845290915281206116cb91611d9f565b897f03528ed0c2a3ebc993b12ce3c16bb382f9c7d88ef7d8a1bf290eaf35955a12078a8a6040516116fd92919061251c565b60405180910390a2611811565b60008a81526005602090815260408083208684528252808320858452825280832061ffff8c1684529091529020805461174290612417565b90506000036117985760008a815260066020908152604080832086845282528083208584529091528120805461ffff169161177c83612542565b91906101000a81548161ffff021916908361ffff160217905550505b60008a81526005602090815260408083208684528252808320858452825280832061ffff8c168452825290912082516117d392840190611d2b565b50897f52a608b3303a48862d07a73d82fa221318c0027fbbcfb1b2329bface3f19ff2b8a8a8460405161180893929190612563565b60405180910390a25b50505050505050505050565b60c081015160208201819052815151116118345750565b60006118488260000151836020015161198b565b82602001516118579190612592565b82519091506118669082611a87565b61ffff16604083015261187a600282612592565b82519091506118899082611a87565b61ffff16606083015261189d600282612592565b82519091506118ac9082611aaf565b63ffffffff1660808301526118c2600482612592565b82519091506000906118d49083611a87565b61ffff1690506118e5600283612592565b60a0840181905291506118f88183612592565b60c0909301929092525050565b6000815160141461191557600080fd5b50602001516c01000000000000000000000000900490565b6040805160148082528183019092526060916020820181803683375050506c010000000000000000000000009290920260208301525090565b60006001600160e01b0319821663c869023360e01b1480610483575061048382611ad9565b6000815b8351811061199f5761199f6125aa565b60006119ab8583611afe565b60ff1690506119bb816001612592565b6119c59083612592565b9150806000036119d557506119db565b5061198f565b6119e5838261239d565b949350505050565b82516060906119fc8385612592565b1115611a0757600080fd5b60008267ffffffffffffffff811115611a2257611a2261209f565b6040519080825280601f01601f191660200182016040528015611a4c576020820181803683370190505b50905060208082019086860101610981828287611b22565b6000611a71848484611b78565b611a7c878785611b78565b149695505050505050565b8151600090611a97836002612592565b1115611aa257600080fd5b50016002015161ffff1690565b8151600090611abf836004612592565b1115611aca57600080fd5b50016004015163ffffffff1690565b60006001600160e01b0319821663691f343160e01b1480610483575061048382611b9c565b6000828281518110611b1257611b12612401565b016020015160f81c905092915050565b60208110611b5a5781518352611b39602084612592565b9250611b46602083612592565b9150611b5360208261239d565b9050611b22565b905182516020929092036101000a6000190180199091169116179052565b8251600090611b878385612592565b1115611b9257600080fd5b5091016020012090565b60006001600160e01b031982166304928c6760e21b148061048357506104838260006001600160e01b0319821663547d2b4160e11b1480611bed57506001600160e01b03198216635c98042b60e01b145b8061048357506104838260006001600160e01b0319821663bc1c58d160e01b148061048357506104838260006001600160e01b03198216631d9dabef60e11b1480611c4857506001600160e01b031982166378e5bf0360e11b145b8061048357506104838260006001600160e01b03198216631101d5ab60e11b148061048357506104838260006001600160e01b03198216631592ca1b60e31b148061048357506301ffc9a760e01b6001600160e01b0319831614610483565b828054611cb390612417565b90600052602060002090601f016020900481019282611cd55760008555611d1b565b82601f10611cee5782800160ff19823516178555611d1b565b82800160010185558215611d1b579182015b82811115611d1b578235825591602001919060010190611d00565b50611d27929150611ddc565b5090565b828054611d3790612417565b90600052602060002090601f016020900481019282611d595760008555611d1b565b82601f10611d7257805160ff1916838001178555611d1b565b82800160010185558215611d1b579182015b82811115611d1b578251825591602001919060010190611d84565b508054611dab90612417565b6000825580601f10611dbb575050565b601f016020900490600052602060002090810190611dd99190611ddc565b50565b5b80821115611d275760008155600101611ddd565b80356001600160e01b031981168114611e0957600080fd5b919050565b600060208284031215611e2057600080fd5b610bb182611df1565b60008083601f840112611e3b57600080fd5b50813567ffffffffffffffff811115611e5357600080fd5b602083019150836020828501011115610aa057600080fd5b600080600060408486031215611e8057600080fd5b83359250602084013567ffffffffffffffff811115611e9e57600080fd5b611eaa86828701611e29565b9497909650939450505050565b600080600080600060608688031215611ecf57600080fd5b85359450602086013567ffffffffffffffff80821115611eee57600080fd5b611efa89838a01611e29565b90965094506040880135915080821115611f1357600080fd5b50611f2088828901611e29565b969995985093965092949392505050565b60008060408385031215611f4457600080fd5b82359150611f5460208401611df1565b90509250929050565b60008060408385031215611f7057600080fd5b50508035926020909101359150565b60005b83811015611f9a578181015183820152602001611f82565b83811115611fa9576000848401525b50505050565b60008151808452611fc7816020860160208601611f7f565b601f01601f19169290920160200192915050565b8281526040602082015260006119e56040830184611faf565b60008060006060848603121561200957600080fd5b505081359360208301359350604090920135919050565b60006020828403121561203257600080fd5b5035919050565b602081526000610bb16020830184611faf565b6000806000806060858703121561206257600080fd5b8435935060208501359250604085013567ffffffffffffffff81111561208757600080fd5b61209387828801611e29565b95989497509550505050565b634e487b7160e01b600052604160045260246000fd5b6000806000606084860312156120ca57600080fd5b8335925060208401359150604084013567ffffffffffffffff808211156120f057600080fd5b818601915086601f83011261210457600080fd5b8135818111156121165761211661209f565b604051601f8201601f19908116603f0116810190838211818310171561213e5761213e61209f565b8160405282815289602084870101111561215757600080fd5b8260208601602083013760006020848301015280955050505050509250925092565b6001600160a01b0381168114611dd957600080fd5b600080604083850312156121a157600080fd5b82356121ac81612179565b9150602083013580151581146121c157600080fd5b809150509250929050565b6000806000606084860312156121e157600080fd5b8335925060208401359150604084013561ffff8116811461220157600080fd5b809150509250925092565b6000806020838503121561221f57600080fd5b823567ffffffffffffffff8082111561223757600080fd5b818501915085601f83011261224b57600080fd5b81358181111561225a57600080fd5b8660208260051b850101111561226f57600080fd5b60209290920196919550909350505050565b6000602080830181845280855180835260408601915060408160051b870101925083870160005b828110156122d657603f198886030184526122c4858351611faf565b945092850192908501906001016122a8565b5092979650505050505050565b600080604083850312156122f657600080fd5b8235915060208301356121c181612179565b60008060006060848603121561231d57600080fd5b8335925061232d60208501611df1565b9150604084013561220181612179565b6000806040838503121561235057600080fd5b823561235b81612179565b915060208301356121c181612179565b6000825161237d818460208701611f7f565b9190910192915050565b634e487b7160e01b600052601160045260246000fd5b6000828210156123af576123af612387565b500390565b8183823760009101908152919050565b81835281816020850137506000828201602090810191909152601f909101601f19169091010190565b6020815260006119e56020830184866123c4565b634e487b7160e01b600052603260045260246000fd5b600181811c9082168061242b57607f821691505b60208210810361244b57634e487b7160e01b600052602260045260246000fd5b50919050565b6000808335601e1984360301811261246857600080fd5b83018035915067ffffffffffffffff82111561248357600080fd5b602001915036819003821315610aa057600080fd5b6000600182016124aa576124aa612387565b5060010190565b6040815260006124c46040830186611faf565b82810360208401526124d78185876123c4565b9695505050505050565b6000602082840312156124f357600080fd5b8151610bb181612179565b600061ffff82168061251257612512612387565b6000190192915050565b60408152600061252f6040830185611faf565b905061ffff831660208301529392505050565b600061ffff80831681810361255957612559612387565b6001019392505050565b6060815260006125766060830186611faf565b61ffff8516602084015282810360408401526124d78185611faf565b600082198211156125a5576125a5612387565b500190565b634e487b7160e01b600052600160045260246000fdfea2646970667358221220ada45dcd7c978cabcffd6edef532e07bb19a89be5ef3c3dc86b3eef5703499ec64736f6c634300080d0033608060405234801561001057600080fd5b506105a9806100206000396000f3fe608060405234801561001057600080fd5b50600436106100415760003560e01c80631d9273c7146100465780639d105a2514610093578063f39ec1f7146100a8575b600080fd5b610080610054366004610368565b604080516020808201949094528082019290925280518083038201815260609092019052805191012090565b6040519081526020015b60405180910390f35b6100a66100a136600461038a565b6100c8565b005b6100bb6100b6366004610406565b6101f0565b60405161008a919061041f565b600061011f8484846040516020016100e1929190610474565b60408051601f198184030181528282528051602091820120838201949094528282019390935280518083038201815260609092019052805191012090565b90508361016c576101668184848080601f01602080910402602001604051908101604052809392919081815260200183838082843760009201919091525061029292505050565b50505050565b60008481526001602052604081205460ff161515900361018c5750505050565b600081815260208190526040902080546101a590610484565b1590506101b25750505050565b6101668184846000808981526020019081526020016000206040516020016101dc939291906104be565b604051602081830303815290604052610292565b600081815260208190526040902080546060919061020d90610484565b80601f016020809104026020016040519081016040528092919081815260200182805461023990610484565b80156102865780601f1061025b57610100808354040283529160200191610286565b820191906000526020600020905b81548152906001019060200180831161026957829003601f168201915b50505050509050919050565b60008281526020818152604090912082516102af928401906102cf565b50506000908152600160208190526040909120805460ff19169091179055565b8280546102db90610484565b90600052602060002090601f0160209004810192826102fd5760008555610343565b82601f1061031657805160ff1916838001178555610343565b82800160010185558215610343579182015b82811115610343578251825591602001919060010190610328565b5061034f929150610353565b5090565b5b8082111561034f5760008155600101610354565b6000806040838503121561037b57600080fd5b50508035926020909101359150565b60008060006040848603121561039f57600080fd5b83359250602084013567ffffffffffffffff808211156103be57600080fd5b818601915086601f8301126103d257600080fd5b8135818111156103e157600080fd5b8760208285010111156103f357600080fd5b6020830194508093505050509250925092565b60006020828403121561041857600080fd5b5035919050565b600060208083528351808285015260005b8181101561044c57858101830151858201604001528201610430565b8181111561045e576000604083870101525b50601f01601f1916929092016040019392505050565b8183823760009101908152919050565b600181811c9082168061049857607f821691505b6020821081036104b857634e487b7160e01b600052602260045260246000fd5b50919050565b828482376000838201601760f91b81526001600085548181841c9050838216806104e957607f821691505b6020808310820361050857634e487b7160e01b85526022600452602485fd5b81801561051c576001811461053157610562565b60ff1985168888015283880187019550610562565b60008b81526020902060005b858110156105585781548a82018a015290880190830161053d565b5050868489010195505b50939b9a505050505050505050505056fea2646970667358221220356d7d199e1e5527c4c33a979c7bbba8a2d745a0f9308c5e29a97f548a7c139f64736f6c634300080d0033608060405234801561001057600080fd5b50604051610c70380380610c7083398101604081905261002f916100d8565b61003833610070565b600180546001600160a01b039485166001600160a01b031991821617909155600280549390941692169190911790915560035561011b565b600080546001600160a01b038381166001600160a01b0319831681178455604051919092169283917f8be0079c531659141344cd1fd0a4f28419497f9722a3daafe3b4186f6b6457e09190a35050565b6001600160a01b03811681146100d557600080fd5b50565b6000806000606084860312156100ed57600080fd5b83516100f8816100c0565b6020850151909350610109816100c0565b80925050604084015190509250925092565b610b468061012a6000396000f3fe608060405234801561001057600080fd5b50600436106100df5760003560e01c806390ddd11b1161008c578063da8c229e11610066578063da8c229e146101bf578063f2fde38b146101e2578063f6a74ed7146101f5578063faff50a81461020857600080fd5b806390ddd11b14610176578063a7fc7a0714610189578063aeb8ce9b1461019c57600080fd5b8063715018a6116100bd578063715018a61461014a5780637b103999146101525780638da5cb5b1461016557600080fd5b80631e59c529146100e45780632eb8221a1461010a5780634e543b2614610135575b600080fd5b6100f76100f23660046109b5565b610211565b6040519081526020015b60405180910390f35b60025461011d906001600160a01b031681565b6040516001600160a01b039091168152602001610101565b610148610143366004610a0c565b610455565b005b610148610521565b60015461011d906001600160a01b031681565b6000546001600160a01b031661011d565b610148610184366004610a0c565b610587565b610148610197366004610a0c565b610610565b6101af6101aa366004610a30565b6106b6565b6040519015158152602001610101565b6101af6101cd366004610a0c565b60046020526000908152604090205460ff1681565b6101486101f0366004610a0c565b61078c565b610148610203366004610a0c565b610857565b6100f760035481565b6001546003546040516302571be360e01b8152600481019190915260009130916001600160a01b03909116906302571be390602401602060405180830381865afa158015610263573d6000803e3d6000fd5b505050506040513d601f19601f820116820180604052508101906102879190610a72565b6001600160a01b0316146102ae5760405163185923dd60e31b815260040160405180910390fd5b3360009081526004602052604090205460ff166102dd576040516282b42960e81b815260040160405180910390fd5b6102e784846106b6565b61030457604051630c01d0b160e21b815260040160405180910390fd5b60008484604051602001610319929190610a8f565b60408051808303601f190181529082905280516020909101206001546003546306ab592360e01b84526004840152602483018290526001600160a01b03868116604485015291935016906306ab5923906064016020604051808303816000875af115801561038b573d6000803e3d6000fd5b505050506040513d601f19601f820116820180604052508101906103af9190610a9f565b50600254600354604051639d105a2560e01b81526001600160a01b0390921691639d105a25916103e59189908990600401610ab8565b600060405180830381600087803b1580156103ff57600080fd5b505af1158015610413573d6000803e3d6000fd5b50506040516001600160a01b03861692508391507f25631d78c8c9e9757c5c8419905e25845aa864284d1df44be777e5fafd2e09f790600090a3949350505050565b6000546001600160a01b031633146104b45760405162461bcd60e51b815260206004820181905260248201527f4f776e61626c653a2063616c6c6572206973206e6f7420746865206f776e657260448201526064015b60405180910390fd5b600154600354604051630c4b7b8560e11b815260048101919091526001600160a01b03838116602483015290911690631896f70a90604401600060405180830381600087803b15801561050657600080fd5b505af115801561051a573d6000803e3d6000fd5b5050505050565b6000546001600160a01b0316331461057b5760405162461bcd60e51b815260206004820181905260248201527f4f776e61626c653a2063616c6c6572206973206e6f7420746865206f776e657260448201526064016104ab565b61058560006108fa565b565b6000546001600160a01b031633146105e15760405162461bcd60e51b815260206004820181905260248201527f4f776e61626c653a2063616c6c6572206973206e6f7420746865206f776e657260448201526064016104ab565b6002805473ffffffffffffffffffffffffffffffffffffffff19166001600160a01b0392909216919091179055565b6000546001600160a01b0316331461066a5760405162461bcd60e51b815260206004820181905260248201527f4f776e61626c653a2063616c6c6572206973206e6f7420746865206f776e657260448201526064016104ab565b6001600160a01b038116600081815260046020526040808220805460ff19166001179055517f0a8bb31534c0ed46f380cb867bd5c803a189ced9a764e30b3a4991a9901d74749190a250565b60008060035484846040516020016106cf929190610a8f565b604051602081830303815290604052805190602001206040516020016106ff929190918252602082015260400190565b60408051808303601f19018152908290528051602090910120600154631ef3fca760e31b8352600483018290529092506001600160a01b03169063f79fe53890602401602060405180830381865afa15801561075f573d6000803e3d6000fd5b505050506040513d601f19601f820116820180604052508101906107839190610aee565b15949350505050565b6000546001600160a01b031633146107e65760405162461bcd60e51b815260206004820181905260248201527f4f776e61626c653a2063616c6c6572206973206e6f7420746865206f776e657260448201526064016104ab565b6001600160a01b03811661084b5760405162461bcd60e51b815260206004820152602660248201527f4f776e61626c653a206e6577206f776e657220697320746865207a65726f206160448201526564647265737360d01b60648201526084016104ab565b610854816108fa565b50565b6000546001600160a01b031633146108b15760405162461bcd60e51b815260206004820181905260248201527f4f776e61626c653a2063616c6c6572206973206e6f7420746865206f776e657260448201526064016104ab565b6001600160a01b038116600081815260046020526040808220805460ff19169055517f33d83959be2573f5453b12eb9d43b3499bc57d96bd2f067ba44803c859e811139190a250565b600080546001600160a01b0383811673ffffffffffffffffffffffffffffffffffffffff19831681178455604051919092169283917f8be0079c531659141344cd1fd0a4f28419497f9722a3daafe3b4186f6b6457e09190a35050565b60008083601f84011261096957600080fd5b50813567ffffffffffffffff81111561098157600080fd5b60208301915083602082850101111561099957600080fd5b9250929050565b6001600160a01b038116811461085457600080fd5b6000806000604084860312156109ca57600080fd5b833567ffffffffffffffff8111156109e157600080fd5b6109ed86828701610957565b9094509250506020840135610a01816109a0565b809150509250925092565b600060208284031215610a1e57600080fd5b8135610a29816109a0565b9392505050565b60008060208385031215610a4357600080fd5b823567ffffffffffffffff811115610a5a57600080fd5b610a6685828601610957565b90969095509350505050565b600060208284031215610a8457600080fd5b8151610a29816109a0565b8183823760009101908152919050565b600060208284031215610ab157600080fd5b5051919050565b83815260406020820152816040820152818360608301376000818301606090810191909152601f909201601f1916010192915050565b600060208284031215610b0057600080fd5b81518015158114610a2957600080fdfea26469706673582212202800bbbc62c2d31225949b355e1beb1b5a3e2caaeccc55d7133652f7a80bd20264736f6c634300080d003360a06040523480156200001157600080fd5b5060405162000ff638038062000ff68339810160408190526200003491620001de565b6200003f3362000175565b6001600160a01b038281166080819052600280546001600160a01b031916928416929092179091556040516302571be360e01b81527f91d1777781884d03a6757a803996e38de2a42967fb37eeaca72729271025a9e26004820152600091906302571be390602401602060405180830381865afa158015620000c5573d6000803e3d6000fd5b505050506040513d601f19601f82011682018060405250810190620000eb91906200021d565b90506001600160a01b038116156200016c57604051630f41a04d60e11b81523360048201526001600160a01b03821690631e83409a906024016020604051808303816000875af115801562000144573d6000803e3d6000fd5b505050506040513d601f19601f820116820180604052508101906200016a919062000244565b505b5050506200025e565b600080546001600160a01b038381166001600160a01b0319831681178455604051919092169283917f8be0079c531659141344cd1fd0a4f28419497f9722a3daafe3b4186f6b6457e09190a35050565b6001600160a01b0381168114620001db57600080fd5b50565b60008060408385031215620001f257600080fd5b8251620001ff81620001c5565b60208401519092506200021281620001c5565b809150509250929050565b6000602082840312156200023057600080fd5b81516200023d81620001c5565b9392505050565b6000602082840312156200025757600080fd5b5051919050565b608051610d6e620002886000396000818161015d015281816102d701526104d50152610d6e6000f3fe608060405234801561001057600080fd5b50600436106100ea5760003560e01c80638da5cb5b1161008c578063c66485b211610066578063c66485b2146101e1578063da8c229e146101f4578063e0dba60f14610227578063f2fde38b1461023a57600080fd5b80638da5cb5b146101aa578063bffbe61c146101bb578063c47f0027146101ce57600080fd5b8063715018a6116100c8578063715018a61461013b5780637a806d6b146101455780637b10399914610158578063828eab0e1461019757600080fd5b80630f5a5466146100ef5780631e83409a146101155780636566963114610128575b600080fd5b6101026100fd366004610a6f565b61024d565b6040519081526020015b60405180910390f35b610102610123366004610aa8565b610261565b610102610136366004610ac5565b610283565b61014361053c565b005b610102610153366004610bb3565b6105a2565b61017f7f000000000000000000000000000000000000000000000000000000000000000081565b6040516001600160a01b03909116815260200161010c565b60025461017f906001600160a01b031681565b6000546001600160a01b031661017f565b6101026101c9366004610aa8565b61061d565b6101026101dc366004610c28565b610678565b6101436101ef366004610aa8565b610695565b610217610202366004610aa8565b60016020526000908152604090205460ff1681565b604051901515815260200161010c565b610143610235366004610c73565b61079a565b610143610248366004610aa8565b610853565b600061025a338484610283565b9392505050565b60025460009061027d90339084906001600160a01b0316610283565b92915050565b6000836001600160a01b0381163314806102ac57503360009081526001602052604090205460ff165b80610342575060405163e985e9c560e01b81526001600160a01b0382811660048301523360248301527f0000000000000000000000000000000000000000000000000000000000000000169063e985e9c590604401602060405180830381865afa15801561031e573d6000803e3d6000fd5b505050506040513d601f19601f820116820180604052508101906103429190610ca1565b8061035157506103518161091e565b6103ee5760405162461bcd60e51b815260206004820152605b60248201527f526576657273655265676973747261723a2043616c6c6572206973206e6f742060448201527f6120636f6e74726f6c6c6572206f7220617574686f726973656420627920616460648201527f6472657373206f7220746865206164647265737320697473656c660000000000608482015260a4015b60405180910390fd5b60006103f986610997565b604080517f91d1777781884d03a6757a803996e38de2a42967fb37eeaca72729271025a9e2602080830191909152818301849052825180830384018152606090920192839052815191012091925081906001600160a01b038916907f6ada868dd3058cf77a48a74489fd7963688e5464b2b0fa957ace976243270e9290600090a36040516305ef2c7f60e41b81527f91d1777781884d03a6757a803996e38de2a42967fb37eeaca72729271025a9e26004820152602481018390526001600160a01b0387811660448301528681166064830152600060848301527f00000000000000000000000000000000000000000000000000000000000000001690635ef2c7f09060a401600060405180830381600087803b15801561051957600080fd5b505af115801561052d573d6000803e3d6000fd5b50929998505050505050505050565b6000546001600160a01b031633146105965760405162461bcd60e51b815260206004820181905260248201527f4f776e61626c653a2063616c6c6572206973206e6f7420746865206f776e657260448201526064016103e5565b6105a060006109fd565b565b6000806105b0868686610283565b604051637737221360e01b81529091506001600160a01b038516906377372213906105e19084908790600401610cbe565b600060405180830381600087803b1580156105fb57600080fd5b505af115801561060f573d6000803e3d6000fd5b509298975050505050505050565b60007f91d1777781884d03a6757a803996e38de2a42967fb37eeaca72729271025a9e261064983610997565b604080516020810193909352820152606001604051602081830303815290604052805190602001209050919050565b60025460009061027d90339081906001600160a01b0316856105a2565b6000546001600160a01b031633146106ef5760405162461bcd60e51b815260206004820181905260248201527f4f776e61626c653a2063616c6c6572206973206e6f7420746865206f776e657260448201526064016103e5565b6001600160a01b03811661076b5760405162461bcd60e51b815260206004820152603060248201527f526576657273655265676973747261723a205265736f6c76657220616464726560448201527f7373206d757374206e6f7420626520300000000000000000000000000000000060648201526084016103e5565b6002805473ffffffffffffffffffffffffffffffffffffffff19166001600160a01b0392909216919091179055565b6000546001600160a01b031633146107f45760405162461bcd60e51b815260206004820181905260248201527f4f776e61626c653a2063616c6c6572206973206e6f7420746865206f776e657260448201526064016103e5565b6001600160a01b038216600081815260016020908152604091829020805460ff191685151590811790915591519182527f4c97694570a07277810af7e5669ffd5f6a2d6b74b6e9a274b8b870fd5114cf87910160405180910390a25050565b6000546001600160a01b031633146108ad5760405162461bcd60e51b815260206004820181905260248201527f4f776e61626c653a2063616c6c6572206973206e6f7420746865206f776e657260448201526064016103e5565b6001600160a01b0381166109125760405162461bcd60e51b815260206004820152602660248201527f4f776e61626c653a206e6577206f776e657220697320746865207a65726f206160448201526564647265737360d01b60648201526084016103e5565b61091b816109fd565b50565b6000816001600160a01b0316638da5cb5b6040518163ffffffff1660e01b8152600401602060405180830381865afa92505050801561097a575060408051601f3d908101601f1916820190925261097791810190610d1b565b60015b61098657506000919050565b6001600160a01b0316331492915050565b600060285b80156109f157600019016f181899199a1a9b1b9c1cb0b131b232b360811b600f84161a8153601090920491600019016f181899199a1a9b1b9c1cb0b131b232b360811b600f84161a815360108304925061099c565b50506028600020919050565b600080546001600160a01b0383811673ffffffffffffffffffffffffffffffffffffffff19831681178455604051919092169283917f8be0079c531659141344cd1fd0a4f28419497f9722a3daafe3b4186f6b6457e09190a35050565b6001600160a01b038116811461091b57600080fd5b60008060408385031215610a8257600080fd5b8235610a8d81610a5a565b91506020830135610a9d81610a5a565b809150509250929050565b600060208284031215610aba57600080fd5b813561025a81610a5a565b600080600060608486031215610ada57600080fd5b8335610ae581610a5a565b92506020840135610af581610a5a565b91506040840135610b0581610a5a565b809150509250925092565b634e487b7160e01b600052604160045260246000fd5b600082601f830112610b3757600080fd5b813567ffffffffffffffff80821115610b5257610b52610b10565b604051601f8301601f19908116603f01168101908282118183101715610b7a57610b7a610b10565b81604052838152866020858801011115610b9357600080fd5b836020870160208301376000602085830101528094505050505092915050565b60008060008060808587031215610bc957600080fd5b8435610bd481610a5a565b93506020850135610be481610a5a565b92506040850135610bf481610a5a565b9150606085013567ffffffffffffffff811115610c1057600080fd5b610c1c87828801610b26565b91505092959194509250565b600060208284031215610c3a57600080fd5b813567ffffffffffffffff811115610c5157600080fd5b610c5d84828501610b26565b949350505050565b801515811461091b57600080fd5b60008060408385031215610c8657600080fd5b8235610c9181610a5a565b91506020830135610a9d81610c65565b600060208284031215610cb357600080fd5b815161025a81610c65565b82815260006020604081840152835180604085015260005b81811015610cf257858101830151858201606001528201610cd6565b81811115610d04576000606083870101525b50601f01601f191692909201606001949350505050565b600060208284031215610d2d57600080fd5b815161025a81610a5a56fea26469706673582212200b3400d18ca697209c80791ea5ecc1d9fdd20a1b804e2393123341605dadf1c064736f6c634300080d003360a060405234801561001057600080fd5b5060405161072538038061072583398101604081905261002f91610040565b6001600160a01b0316608052610070565b60006020828403121561005257600080fd5b81516001600160a01b038116811461006957600080fd5b9392505050565b60805161068d61009860003960008181606b015281816101530152610212015261068d6000f3fe608060405234801561001057600080fd5b506004361061004c5760003560e01c80631e59c529146100515780632b20e397146100665780639791c097146100aa578063aeb8ce9b146100cd575b600080fd5b61006461005f3660046103cb565b6100e0565b005b61008d7f000000000000000000000000000000000000000000000000000000000000000081565b6040516001600160a01b0390911681526020015b60405180910390f35b6100bd6100b8366004610470565b6101d5565b60405190151581526020016100a1565b6100bd6100db366004610470565b6101e9565b61011f83838080601f0160208091040260200160405190810160405280939291908181526020018383808284376000920191909152506101e992505050565b61013c57604051630c01d0b160e21b815260040160405180910390fd5b604051631e59c52960e01b81526001600160a01b037f00000000000000000000000000000000000000000000000000000000000000001690631e59c5299061018c90869086908690600401610521565b6020604051808303816000875af11580156101ab573d6000803e3d6000fd5b505050506040513d601f19601f820116820180604052508101906101cf9190610563565b50505050565b6000806101e18361028e565b101592915050565b60006101f4826101d5565b8015610288575060405163aeb8ce9b60e01b81526001600160a01b037f0000000000000000000000000000000000000000000000000000000000000000169063aeb8ce9b9061024790859060040161057c565b602060405180830381865afa158015610264573d6000803e3d6000fd5b505050506040513d601f19601f8201168201806040525081019061028891906105d1565b92915050565b600080825b80518210156103c45760078183815181106102b0576102b06105fa565b01602001516001600160f81b031990811690911c166000036102de576102d7600183610626565b91506103b2565b8051600360f91b906005908390859081106102fb576102fb6105fa565b01602001516001600160f81b031990811690911c1603610320576102d7600283610626565b8051600760f91b9060049083908590811061033d5761033d6105fa565b01602001516001600160f81b031990811690911c1603610362576102d7600383610626565b8051600f60f91b9060039083908590811061037f5761037f6105fa565b01602001516001600160f81b031990811690911c16036103a4576102d7600483610626565b6103af600183610626565b91505b826103bc8161063e565b935050610293565b5050919050565b6000806000604084860312156103e057600080fd5b833567ffffffffffffffff808211156103f857600080fd5b818601915086601f83011261040c57600080fd5b81358181111561041b57600080fd5b87602082850101111561042d57600080fd5b602092830195509350508401356001600160a01b038116811461044f57600080fd5b809150509250925092565b634e487b7160e01b600052604160045260246000fd5b60006020828403121561048257600080fd5b813567ffffffffffffffff8082111561049a57600080fd5b818401915084601f8301126104ae57600080fd5b8135818111156104c0576104c061045a565b604051601f8201601f19908116603f011681019083821181831017156104e8576104e861045a565b8160405282815287602084870101111561050157600080fd5b826020860160208301376000928101602001929092525095945050505050565b604081528260408201528284606083013760006060848301015260006060601f19601f86011683010190506001600160a01b0383166020830152949350505050565b60006020828403121561057557600080fd5b5051919050565b600060208083528351808285015260005b818110156105a95785810183015185820160400152820161058d565b818111156105bb576000604083870101525b50601f01601f1916929092016040019392505050565b6000602082840312156105e357600080fd5b815180151581146105f357600080fd5b9392505050565b634e487b7160e01b600052603260045260246000fd5b634e487b7160e01b600052601160045260246000fd5b6000821982111561063957610639610610565b500190565b60006001820161065057610650610610565b506001019056fea26469706673582212206a5eeafc12c87c8f824e5abe38df15efe196ef2283b200b7beae757eb117b45464736f6c634300080d00331ffa5ff8aa60d5982bd5d42ffd70a799ffb1ea4f2e7bb8c4ed2a7983902ac35d329539a1d23af1810c48a07fe7fc66a3b34fbc8b37e9b3cdb97bb88ceab7e4bfdec08c9dbbdd0890e300eb5062089b2d4b1c40e3673bbccb5423f7b37dcf9a9c",
  "devdoc": {
    "author": "Gilgames <gilgames@kuname.domains>",
    "kind": "dev",
    "methods": {},
    "title": "KNS Deployer",
    "version": 1
  },
  "userdoc": {
    "kind": "user",
    "methods": {},
    "version": 1
  },
  "storageLayout": {
    "storage": [
      {
        "astId": 6465,
        "contract": "src/KNSDeployer.sol:KNSDeployer",
        "label": "registry",
        "offset": 0,
        "slot": "0",
        "type": "t_contract(KNSRegistry)7612"
      },
      {
        "astId": 6468,
        "contract": "src/KNSDeployer.sol:KNSDeployer",
        "label": "registrar",
        "offset": 0,
        "slot": "1",
        "type": "t_contract(KNSRegistrar)7154"
      },
      {
        "astId": 6471,
        "contract": "src/KNSDeployer.sol:KNSDeployer",
        "label": "reverseRegistrar",
        "offset": 0,
        "slot": "2",
        "type": "t_contract(KNSReverseRegistrar)7954"
      },
      {
        "astId": 6474,
        "contract": "src/KNSDeployer.sol:KNSDeployer",
        "label": "publicResolver",
        "offset": 0,
        "slot": "3",
        "type": "t_contract(KNSPublicResolver)6913"
      },
      {
        "astId": 6477,
        "contract": "src/KNSDeployer.sol:KNSDeployer",
        "label": "namehashDB",
        "offset": 0,
        "slot": "4",
        "type": "t_contract(NamehashDB)8281"
      },
      {
        "astId": 6480,
        "contract": "src/KNSDeployer.sol:KNSDeployer",
        "label": "fifoRegistrarController",
        "offset": 0,
        "slot": "5",
        "type": "t_contract(FIFORegistrarController)6425"
      }
    ],
    "types": {
      "t_contract(FIFORegistrarController)6425": {
        "encoding": "inplace",
        "label": "contract FIFORegistrarController",
        "numberOfBytes": "20"
      },
      "t_contract(KNSPublicResolver)6913": {
        "encoding": "inplace",
        "label": "contract KNSPublicResolver",
        "numberOfBytes": "20"
      },
      "t_contract(KNSRegistrar)7154": {
        "encoding": "inplace",
        "label": "contract KNSRegistrar",
        "numberOfBytes": "20"
      },
      "t_contract(KNSRegistry)7612": {
        "encoding": "inplace",
        "label": "contract KNSRegistry",
        "numberOfBytes": "20"
      },
      "t_contract(KNSReverseRegistrar)7954": {
        "encoding": "inplace",
        "label": "contract KNSReverseRegistrar",
        "numberOfBytes": "20"
      },
      "t_contract(NamehashDB)8281": {
        "encoding": "inplace",
        "label": "contract NamehashDB",
        "numberOfBytes": "20"
      }
    }
  }
}