{
  "address": "0xA1e3F53D53DB933Ab335440acf77748C7d3365bb",
  "abi": [
    {
      "inputs": [
        {
          "internalType": "contract IWitnetPriceRouter",
          "name": "_witnetPriceRouter",
          "type": "address"
        }
      ],
      "stateMutability": "nonpayable",
      "type": "constructor"
    },
    {
      "inputs": [],
      "name": "CollectionAlreadyEligible",
      "type": "error"
    },
    {
      "inputs": [],
      "name": "CollectionNotEligible",
      "type": "error"
    },
    {
      "inputs": [],
      "name": "NameTooShort",
      "type": "error"
    },
    {
      "anonymous": false,
      "inputs": [
        {
          "indexed": true,
          "internalType": "address",
          "name": "previousOwner",
          "type": "address"
        },
        {
          "indexed": true,
          "internalType": "address",
          "name": "newOwner",
          "type": "address"
        }
      ],
      "name": "OwnershipTransferred",
      "type": "event"
    },
    {
      "inputs": [
        {
          "internalType": "address",
          "name": "collection",
          "type": "address"
        }
      ],
      "name": "addEligibleCollection",
      "outputs": [],
      "stateMutability": "nonpayable",
      "type": "function"
    },
    {
      "inputs": [
        {
          "internalType": "string",
          "name": "name",
          "type": "string"
        }
      ],
      "name": "getNameBasePriceInKCS",
      "outputs": [
        {
          "internalType": "uint256",
          "name": "price",
          "type": "uint256"
        }
      ],
      "stateMutability": "view",
      "type": "function"
    },
    {
      "inputs": [
        {
          "internalType": "string",
          "name": "name",
          "type": "string"
        }
      ],
      "name": "getNameBasePriceInUSD",
      "outputs": [
        {
          "internalType": "uint256",
          "name": "price",
          "type": "uint256"
        }
      ],
      "stateMutability": "pure",
      "type": "function"
    },
    {
      "inputs": [
        {
          "internalType": "string",
          "name": "name",
          "type": "string"
        }
      ],
      "name": "getNameDiscountedPriceInKCS",
      "outputs": [
        {
          "internalType": "uint256",
          "name": "price",
          "type": "uint256"
        }
      ],
      "stateMutability": "view",
      "type": "function"
    },
    {
      "inputs": [
        {
          "internalType": "string",
          "name": "name",
          "type": "string"
        }
      ],
      "name": "getNameDiscountedPriceInUSD",
      "outputs": [
        {
          "internalType": "uint256",
          "name": "price",
          "type": "uint256"
        }
      ],
      "stateMutability": "pure",
      "type": "function"
    },
    {
      "inputs": [
        {
          "internalType": "string",
          "name": "name",
          "type": "string"
        },
        {
          "internalType": "address",
          "name": "_buyer",
          "type": "address"
        }
      ],
      "name": "getNamePriceBreakdownForBuyer",
      "outputs": [
        {
          "components": [
            {
              "internalType": "bool",
              "name": "isEligibleForDiscount",
              "type": "bool"
            },
            {
              "internalType": "uint256",
              "name": "basePrice",
              "type": "uint256"
            },
            {
              "internalType": "uint256",
              "name": "discountedPrice",
              "type": "uint256"
            },
            {
              "internalType": "uint256",
              "name": "finalPrice",
              "type": "uint256"
            }
          ],
          "internalType": "struct PriceBreakdown",
          "name": "priceBreakdown",
          "type": "tuple"
        }
      ],
      "stateMutability": "view",
      "type": "function"
    },
    {
      "inputs": [
        {
          "internalType": "string",
          "name": "name",
          "type": "string"
        },
        {
          "internalType": "address",
          "name": "buyer",
          "type": "address"
        }
      ],
      "name": "getNamePriceInKCSForBuyer",
      "outputs": [
        {
          "internalType": "uint256",
          "name": "price",
          "type": "uint256"
        }
      ],
      "stateMutability": "view",
      "type": "function"
    },
    {
      "inputs": [
        {
          "internalType": "address",
          "name": "buyer",
          "type": "address"
        }
      ],
      "name": "isEligibleForDiscount",
      "outputs": [
        {
          "internalType": "bool",
          "name": "",
          "type": "bool"
        }
      ],
      "stateMutability": "view",
      "type": "function"
    },
    {
      "inputs": [],
      "name": "kcsUSDTFeedID",
      "outputs": [
        {
          "internalType": "bytes32",
          "name": "",
          "type": "bytes32"
        }
      ],
      "stateMutability": "view",
      "type": "function"
    },
    {
      "inputs": [],
      "name": "kcsUSDTPriceFeed",
      "outputs": [
        {
          "internalType": "contract IWitnetPriceFeed",
          "name": "",
          "type": "address"
        }
      ],
      "stateMutability": "view",
      "type": "function"
    },
    {
      "inputs": [
        {
          "internalType": "uint256",
          "name": "",
          "type": "uint256"
        }
      ],
      "name": "nftCollectionsEligibleForDiscount",
      "outputs": [
        {
          "internalType": "address",
          "name": "",
          "type": "address"
        }
      ],
      "stateMutability": "view",
      "type": "function"
    },
    {
      "inputs": [],
      "name": "owner",
      "outputs": [
        {
          "internalType": "address",
          "name": "",
          "type": "address"
        }
      ],
      "stateMutability": "view",
      "type": "function"
    },
    {
      "inputs": [
        {
          "internalType": "address",
          "name": "collection",
          "type": "address"
        }
      ],
      "name": "removeEligibleCollection",
      "outputs": [],
      "stateMutability": "nonpayable",
      "type": "function"
    },
    {
      "inputs": [],
      "name": "renounceOwnership",
      "outputs": [],
      "stateMutability": "nonpayable",
      "type": "function"
    },
    {
      "inputs": [
        {
          "internalType": "address",
          "name": "newOwner",
          "type": "address"
        }
      ],
      "name": "transferOwnership",
      "outputs": [],
      "stateMutability": "nonpayable",
      "type": "function"
    },
    {
      "inputs": [],
      "name": "updateKCSUSDTPriceFeed",
      "outputs": [],
      "stateMutability": "nonpayable",
      "type": "function"
    },
    {
      "inputs": [],
      "name": "witnetPriceRouter",
      "outputs": [
        {
          "internalType": "contract IWitnetPriceRouter",
          "name": "",
          "type": "address"
        }
      ],
      "stateMutability": "view",
      "type": "function"
    }
  ],
  "transactionHash": "0x2d82371964962e1ed043c58cf947d331332a76da81ad62f3ed178f99340b563a",
  "args": [
    "0xba7CF62498340fa3734EC51Ca8A69928F0d9E03a"
  ],
  "numDeployments": 1,
  "solcInputHash": "fbe74bbd327d2d929ee96906ffbda116",
  "bytecode": "0x60c06040523480156200001157600080fd5b50604051620011c7380380620011c783398101604081905262000034916200018d565b6200003f3362000081565b6001600160a01b0381166080527f31debffc453c5d04a78431e7bc28098c606d2bbeea22f10a35809924a201a97760a0526200007a620000d1565b50620001b4565b600080546001600160a01b038381166001600160a01b0319831681178455604051919092169283917f8be0079c531659141344cd1fd0a4f28419497f9722a3daafe3b4186f6b6457e09190a35050565b60805160a0516040516346056fb160e11b815260048101919091526000916001600160a01b031690638c0adf6290602401602060405180830381865afa15801562000120573d6000803e3d6000fd5b505050506040513d601f19601f820116820180604052508101906200014691906200018d565b90506001600160a01b038116156200017457600180546001600160a01b0319166001600160a01b0383161790555b50565b6001600160a01b03811681146200017457600080fd5b600060208284031215620001a057600080fd5b8151620001ad8162000177565b9392505050565b60805160a051610fdf620001e86000396000818161018a01526106320152600081816101b1015261065b0152610fdf6000f3fe608060405234801561001057600080fd5b506004361061011a5760003560e01c806382ffe3ac116100b2578063c4f759c911610081578063d24ca8a111610066578063d24ca8a1146102ab578063f2fde38b146102be578063ff684e2e146102d157600080fd5b8063c4f759c914610285578063c5ed997f1461029857600080fd5b806382ffe3ac146102365780638da5cb5b1461023e578063961cb3611461024f5780639ebb009b1461027257600080fd5b80634fc87f24116100ee5780634fc87f24146101ac578063715018a6146101d357806379a84082146101db5780637b7f9e761461022357600080fd5b8062d025541461011f578063078425a31461014f57806342f346e9146101705780634c40a84814610185575b600080fd5b61013261012d366004610d74565b6102e4565b6040516001600160a01b0390911681526020015b60405180910390f35b61016261015d366004610dd6565b61030e565b604051908152602001610146565b61018361017e366004610e2d565b6103be565b005b6101627f000000000000000000000000000000000000000000000000000000000000000081565b6101327f000000000000000000000000000000000000000000000000000000000000000081565b610183610541565b6101ee6101e9366004610e51565b6105a7565b604051610146919081511515815260208083015190820152604080830151908201526060918201519181019190915260800190565b610162610231366004610dd6565b610616565b610183610623565b6000546001600160a01b0316610132565b61026261025d366004610e2d565b6106ff565b6040519015158152602001610146565b610162610280366004610e51565b6107c3565b600154610132906001600160a01b031681565b6101836102a6366004610e2d565b610894565b6101626102b9366004610dd6565b6109b0565b6101836102cc366004610e2d565b610a6c565b6101626102df366004610dd6565b610b34565b600281815481106102f457600080fd5b6000918252602090912001546001600160a01b0316905081565b60008061031b84846109b0565b90506000600160009054906101000a90046001600160a01b03166001600160a01b031663053f14da6040518163ffffffff1660e01b8152600401602060405180830381865afa158015610372573d6000803e3d6000fd5b505050506040513d601f19601f820116820180604052508101906103969190610ea8565b9050806103ab83670de0b6b3a7640000610ed7565b6103b59190610ef6565b95945050505050565b6000546001600160a01b0316331461041d5760405162461bcd60e51b815260206004820181905260248201527f4f776e61626c653a2063616c6c6572206973206e6f7420746865206f776e657260448201526064015b60405180910390fd5b60005b60025481101561052457816001600160a01b03166002828154811061044757610447610f18565b6000918252602090912001546001600160a01b031603610512576002805461047190600190610f2e565b8154811061048157610481610f18565b600091825260209091200154600280546001600160a01b0390921691839081106104ad576104ad610f18565b9060005260206000200160006101000a8154816001600160a01b0302191690836001600160a01b0316021790555060028054806104ec576104ec610f45565b600082815260209020810160001990810180546001600160a01b03191690550190555050565b8061051c81610f5b565b915050610420565b5060405163b4cd490960e01b815260040160405180910390fd5b50565b6000546001600160a01b0316331461059b5760405162461bcd60e51b815260206004820181905260248201527f4f776e61626c653a2063616c6c6572206973206e6f7420746865206f776e65726044820152606401610414565b6105a56000610be7565b565b6105d460405180608001604052806000151581526020016000815260200160008152602001600081525090565b6105dd826106ff565b151581526105eb8484610616565b60208201526105fa848461030e565b604082015261060a8484846107c3565b60608201529392505050565b60008061031b8484610b34565b6040516346056fb160e11b81527f000000000000000000000000000000000000000000000000000000000000000060048201526000907f00000000000000000000000000000000000000000000000000000000000000006001600160a01b031690638c0adf6290602401602060405180830381865afa1580156106aa573d6000803e3d6000fd5b505050506040513d601f19601f820116820180604052508101906106ce9190610f74565b90506001600160a01b0381161561053e57600180546001600160a01b0383166001600160a01b031990911617905550565b6000805b6002548110156107ba5760006002828154811061072257610722610f18565b6000918252602090912001546040516370a0823160e01b81526001600160a01b038681166004830152909116906370a0823190602401602060405180830381865afa158015610775573d6000803e3d6000fd5b505050506040513d601f19601f820116820180604052508101906107999190610ea8565b11156107a85750600192915050565b806107b281610f5b565b915050610703565b50600092915050565b6000806000600160009054906101000a90046001600160a01b03166001600160a01b031663053f14da6040518163ffffffff1660e01b8152600401602060405180830381865afa15801561081b573d6000803e3d6000fd5b505050506040513d601f19601f8201168201806040525081019061083f9190610ea8565b905061084a846106ff565b156108605761085986866109b0565b915061086d565b61086a8686610b34565b91505b8061088083670de0b6b3a7640000610ed7565b61088a9190610ef6565b9695505050505050565b6000546001600160a01b031633146108ee5760405162461bcd60e51b815260206004820181905260248201527f4f776e61626c653a2063616c6c6572206973206e6f7420746865206f776e65726044820152606401610414565b60005b60025481101561095d57816001600160a01b03166002828154811061091857610918610f18565b6000918252602090912001546001600160a01b03160361094b576040516303a820d560e51b815260040160405180910390fd5b8061095581610f5b565b9150506108f1565b50600280546001810182556000919091527f405787fa12a823e0f2b7631cc41b3ba8828b3321ca811111fa75cd3aa3bb5ace0180546001600160a01b0319166001600160a01b0392909216919091179055565b6000806109f284848080601f016020809104026020016040519081016040528093929190818152602001838380828437600092019190915250610c3792505050565b90506003811015610a16576040516365ac5e6760e11b815260040160405180910390fd5b80600303610a28576102769150610a57565b80600403610a395760a09150610a57565b80600503610a4a5760319150610a57565b60068110610a5757600a91505b610a6482620f4240610ed7565b949350505050565b6000546001600160a01b03163314610ac65760405162461bcd60e51b815260206004820181905260248201527f4f776e61626c653a2063616c6c6572206973206e6f7420746865206f776e65726044820152606401610414565b6001600160a01b038116610b2b5760405162461bcd60e51b815260206004820152602660248201527f4f776e61626c653a206e6577206f776e657220697320746865207a65726f206160448201526564647265737360d01b6064820152608401610414565b61053e81610be7565b600080610b7684848080601f016020809104026020016040519081016040528093929190818152602001838380828437600092019190915250610c3792505050565b90506003811015610b9a576040516365ac5e6760e11b815260040160405180910390fd5b80600303610bac576102bc9150610a57565b80600403610bbd5760c89150610a57565b80600503610bce5760469150610a57565b60068110610a575760149150610a6482620f4240610ed7565b600080546001600160a01b038381166001600160a01b0319831681178455604051919092169283917f8be0079c531659141344cd1fd0a4f28419497f9722a3daafe3b4186f6b6457e09190a35050565b600080825b8051821015610d6d576007818381518110610c5957610c59610f18565b01602001516001600160f81b031990811690911c16600003610c8757610c80600183610f91565b9150610d5b565b8051600360f91b90600590839085908110610ca457610ca4610f18565b01602001516001600160f81b031990811690911c1603610cc957610c80600283610f91565b8051600760f91b90600490839085908110610ce657610ce6610f18565b01602001516001600160f81b031990811690911c1603610d0b57610c80600383610f91565b8051600f60f91b90600390839085908110610d2857610d28610f18565b01602001516001600160f81b031990811690911c1603610d4d57610c80600483610f91565b610d58600183610f91565b91505b82610d6581610f5b565b935050610c3c565b5050919050565b600060208284031215610d8657600080fd5b5035919050565b60008083601f840112610d9f57600080fd5b50813567ffffffffffffffff811115610db757600080fd5b602083019150836020828501011115610dcf57600080fd5b9250929050565b60008060208385031215610de957600080fd5b823567ffffffffffffffff811115610e0057600080fd5b610e0c85828601610d8d565b90969095509350505050565b6001600160a01b038116811461053e57600080fd5b600060208284031215610e3f57600080fd5b8135610e4a81610e18565b9392505050565b600080600060408486031215610e6657600080fd5b833567ffffffffffffffff811115610e7d57600080fd5b610e8986828701610d8d565b9094509250506020840135610e9d81610e18565b809150509250925092565b600060208284031215610eba57600080fd5b5051919050565b634e487b7160e01b600052601160045260246000fd5b6000816000190483118215151615610ef157610ef1610ec1565b500290565b600082610f1357634e487b7160e01b600052601260045260246000fd5b500490565b634e487b7160e01b600052603260045260246000fd5b600082821015610f4057610f40610ec1565b500390565b634e487b7160e01b600052603160045260246000fd5b600060018201610f6d57610f6d610ec1565b5060010190565b600060208284031215610f8657600080fd5b8151610e4a81610e18565b60008219821115610fa457610fa4610ec1565b50019056fea264697066735822122016757d63942f58dab8cd88cb14017e1002ef347727d84a3124e7a57bbbeeb0a564736f6c634300080d0033",
  "devdoc": {
    "kind": "dev",
    "methods": {
      "owner()": {
        "details": "Returns the address of the current owner."
      },
      "renounceOwnership()": {
        "details": "Leaves the contract without owner. It will not be possible to call `onlyOwner` functions anymore. Can only be called by the current owner. NOTE: Renouncing ownership will leave the contract without an owner, thereby removing any functionality that is only available to the owner."
      },
      "transferOwnership(address)": {
        "details": "Transfers ownership of the contract to a new account (`newOwner`). Can only be called by the current owner."
      }
    },
    "version": 1
  },
  "userdoc": {
    "kind": "user",
    "methods": {
      "updateKCSUSDTPriceFeed()": {
        "notice": "Detects if the WitnetPriceRouter is now pointing to a different IWitnetPriceFeed implementation:"
      }
    },
    "version": 1
  },
  "storageLayout": {
    "storage": [
      {
        "astId": 4295,
        "contract": "src/KNSPriceOracle.sol:KNSPriceOracle",
        "label": "_owner",
        "offset": 0,
        "slot": "0",
        "type": "t_address"
      },
      {
        "astId": 7571,
        "contract": "src/KNSPriceOracle.sol:KNSPriceOracle",
        "label": "kcsUSDTPriceFeed",
        "offset": 0,
        "slot": "1",
        "type": "t_contract(IWitnetPriceFeed)10337"
      },
      {
        "astId": 7574,
        "contract": "src/KNSPriceOracle.sol:KNSPriceOracle",
        "label": "nftCollectionsEligibleForDiscount",
        "offset": 0,
        "slot": "2",
        "type": "t_array(t_address)dyn_storage"
      }
    ],
    "types": {
      "t_address": {
        "encoding": "inplace",
        "label": "address",
        "numberOfBytes": "20"
      },
      "t_array(t_address)dyn_storage": {
        "base": "t_address",
        "encoding": "dynamic_array",
        "label": "address[]",
        "numberOfBytes": "32"
      },
      "t_contract(IWitnetPriceFeed)10337": {
        "encoding": "inplace",
        "label": "contract IWitnetPriceFeed",
        "numberOfBytes": "20"
      }
    }
  }
}