{
  "address": "0x0045D39D9DFEC3Be514E04dD692dBfCc2cb56D75",
  "abi": [
    {
      "inputs": [],
      "stateMutability": "nonpayable",
      "type": "constructor"
    },
    {
      "inputs": [
        {
          "internalType": "bytes32",
          "name": "node",
          "type": "bytes32"
        },
        {
          "internalType": "bytes32",
          "name": "label",
          "type": "bytes32"
        }
      ],
      "name": "namehash",
      "outputs": [
        {
          "internalType": "bytes32",
          "name": "",
          "type": "bytes32"
        }
      ],
      "stateMutability": "pure",
      "type": "function"
    },
    {
      "inputs": [],
      "name": "namehashDB",
      "outputs": [
        {
          "internalType": "contract NamehashDB",
          "name": "",
          "type": "address"
        }
      ],
      "stateMutability": "view",
      "type": "function"
    }
  ],
  "transactionHash": "0x2c86ac93875ecceb18176e50f5dfd09aac63f348e67283345039ac57b7f59230",
  "args": [],
  "numDeployments": 1,
  "solcInputHash": "320d301f50f1429d649e22e3e22ef34a",
  "bytecode": "0x60a060405234801561001057600080fd5b5060405161001d90610260565b604051809103906000f080158015610039573d6000803e3d6000fd5b506001600160a01b0316608081905260408051639d105a2560e01b815260006004820152602481019190915260036044820152626b636360e81b6064820152639d105a2590608401600060405180830381600087803b15801561009b57600080fd5b505af11580156100af573d6000803e3d6000fd5b505060805160408051639d105a2560e01b815260006004820152602481019190915260086044820152673932b9b7b63b32b960c11b60648201526001600160a01b039091169250639d105a259150608401600060405180830381600087803b15801561011a57600080fd5b505af115801561012e573d6000803e3d6000fd5b505060805160408051639d105a2560e01b815260006004820152602481019190915260076044820152667265766572736560c81b60648201526001600160a01b039091169250639d105a259150608401600060405180830381600087803b15801561019857600080fd5b505af11580156101ac573d6000803e3d6000fd5b5050608051604080516000602080830191909152667265766572736560c81b828401528251808303840181526060830180855281519190920120639d105a2560e01b90915260648201526084810191909152600460a48201526330b2323960e11b60c48201526001600160a01b039091169250639d105a25915060e401600060405180830381600087803b15801561024357600080fd5b505af1158015610257573d6000803e3d6000fd5b5050505061026d565b6105c9806103a983390190565b6080516101226102876000396000608501526101226000f3fe6080604052348015600f57600080fd5b506004361060325760003560e01c80631d9273c71460375780632eb8221a146081575b600080fd5b606e604236600460cb565b604080516020808201949094528082019290925280518083038201815260609092019052805191012090565b6040519081526020015b60405180910390f35b60a77f000000000000000000000000000000000000000000000000000000000000000081565b60405173ffffffffffffffffffffffffffffffffffffffff90911681526020016078565b6000806040838503121560dd57600080fd5b5050803592602090910135915056fea2646970667358221220be3450510aab9fae304ca68b043700b498dde4112e8791cb4ea124fb7547835764736f6c634300080d0033608060405234801561001057600080fd5b506105a9806100206000396000f3fe608060405234801561001057600080fd5b50600436106100415760003560e01c80631d9273c7146100465780639d105a2514610093578063f39ec1f7146100a8575b600080fd5b610080610054366004610368565b604080516020808201949094528082019290925280518083038201815260609092019052805191012090565b6040519081526020015b60405180910390f35b6100a66100a136600461038a565b6100c8565b005b6100bb6100b6366004610406565b6101f0565b60405161008a919061041f565b600061011f8484846040516020016100e1929190610474565b60408051601f198184030181528282528051602091820120838201949094528282019390935280518083038201815260609092019052805191012090565b90508361016c576101668184848080601f01602080910402602001604051908101604052809392919081815260200183838082843760009201919091525061029292505050565b50505050565b60008481526001602052604081205460ff161515900361018c5750505050565b600081815260208190526040902080546101a590610484565b1590506101b25750505050565b6101668184846000808981526020019081526020016000206040516020016101dc939291906104be565b604051602081830303815290604052610292565b600081815260208190526040902080546060919061020d90610484565b80601f016020809104026020016040519081016040528092919081815260200182805461023990610484565b80156102865780601f1061025b57610100808354040283529160200191610286565b820191906000526020600020905b81548152906001019060200180831161026957829003601f168201915b50505050509050919050565b60008281526020818152604090912082516102af928401906102cf565b50506000908152600160208190526040909120805460ff19169091179055565b8280546102db90610484565b90600052602060002090601f0160209004810192826102fd5760008555610343565b82601f1061031657805160ff1916838001178555610343565b82800160010185558215610343579182015b82811115610343578251825591602001919060010190610328565b5061034f929150610353565b5090565b5b8082111561034f5760008155600101610354565b6000806040838503121561037b57600080fd5b50508035926020909101359150565b60008060006040848603121561039f57600080fd5b83359250602084013567ffffffffffffffff808211156103be57600080fd5b818601915086601f8301126103d257600080fd5b8135818111156103e157600080fd5b8760208285010111156103f357600080fd5b6020830194508093505050509250925092565b60006020828403121561041857600080fd5b5035919050565b600060208083528351808285015260005b8181101561044c57858101830151858201604001528201610430565b8181111561045e576000604083870101525b50601f01601f1916929092016040019392505050565b8183823760009101908152919050565b600181811c9082168061049857607f821691505b6020821081036104b857634e487b7160e01b600052602260045260246000fd5b50919050565b828482376000838201601760f91b81526001600085548181841c9050838216806104e957607f821691505b6020808310820361050857634e487b7160e01b85526022600452602485fd5b81801561051c576001811461053157610562565b60ff1985168888015283880187019550610562565b60008b81526020902060005b858110156105585781548a82018a015290880190830161053d565b5050868489010195505b50939b9a505050505050505050505056fea2646970667358221220356d7d199e1e5527c4c33a979c7bbba8a2d745a0f9308c5e29a97f548a7c139f64736f6c634300080d0033",
  "devdoc": {
    "author": "Gilgames <gilgames@kuname.domains>",
    "kind": "dev",
    "methods": {},
    "title": "KNS NamehashDB Setup",
    "version": 1
  },
  "userdoc": {
    "kind": "user",
    "methods": {},
    "version": 1
  },
  "storageLayout": {
    "storage": [],
    "types": null
  }
}